{"abi":[{"type":"function","name":"checkAction","inputs":[{"name":"id","type":"bytes32","internalType":"ConfigId"},{"name":"account","type":"address","internalType":"address"},{"name":"","type":"address","internalType":"address"},{"name":"value","type":"uint256","internalType":"uint256"},{"name":"","type":"bytes","internalType":"bytes"}],"outputs":[{"name":"","type":"uint256","internalType":"uint256"}],"stateMutability":"nonpayable"},{"type":"function","name":"checkUserOpPolicy","inputs":[{"name":"id","type":"bytes32","internalType":"ConfigId"},{"name":"op","type":"tuple","internalType":"struct PackedUserOperation","components":[{"name":"sender","type":"address","internalType":"address"},{"name":"nonce","type":"uint256","internalType":"uint256"},{"name":"initCode","type":"bytes","internalType":"bytes"},{"name":"callData","type":"bytes","internalType":"bytes"},{"name":"accountGasLimits","type":"bytes32","internalType":"bytes32"},{"name":"preVerificationGas","type":"uint256","internalType":"uint256"},{"name":"gasFees","type":"bytes32","internalType":"bytes32"},{"name":"paymasterAndData","type":"bytes","internalType":"bytes"},{"name":"signature","type":"bytes","internalType":"bytes"}]}],"outputs":[{"name":"","type":"uint256","internalType":"uint256"}],"stateMutability":"nonpayable"},{"type":"function","name":"getUsed","inputs":[{"name":"configId","type":"bytes32","internalType":"ConfigId"},{"name":"msgSender","type":"address","internalType":"address"},{"name":"userOpSender","type":"address","internalType":"address"}],"outputs":[{"name":"","type":"uint256","internalType":"uint256"}],"stateMutability":"view"},{"type":"function","name":"getValueLimit","inputs":[{"name":"configId","type":"bytes32","internalType":"ConfigId"},{"name":"msgSender","type":"address","internalType":"address"},{"name":"userOpSender","type":"address","internalType":"address"}],"outputs":[{"name":"","type":"uint256","internalType":"uint256"}],"stateMutability":"view"},{"type":"function","name":"initializeWithMultiplexer","inputs":[{"name":"account","type":"address","internalType":"address"},{"name":"configId","type":"bytes32","internalType":"ConfigId"},{"name":"initData","type":"bytes","internalType":"bytes"}],"outputs":[],"stateMutability":"nonpayable"},{"type":"function","name":"supportsInterface","inputs":[{"name":"interfaceID","type":"bytes4","internalType":"bytes4"}],"outputs":[{"name":"","type":"bool","internalType":"bool"}],"stateMutability":"pure"},{"type":"function","name":"valueLimitConfigs","inputs":[{"name":"id","type":"bytes32","internalType":"ConfigId"},{"name":"msgSender","type":"address","internalType":"address"},{"name":"userOpSender","type":"address","internalType":"address"}],"outputs":[{"name":"valueLimit","type":"uint256","internalType":"uint256"},{"name":"limitUsed","type":"uint256","internalType":"uint256"}],"stateMutability":"view"},{"type":"event","name":"PolicySet","inputs":[{"name":"id","type":"bytes32","indexed":false,"internalType":"ConfigId"},{"name":"multiplexer","type":"address","indexed":false,"internalType":"address"},{"name":"account","type":"address","indexed":false,"internalType":"address"}],"anonymous":false},{"type":"error","name":"PolicyNotInitialized","inputs":[{"name":"id","type":"bytes32","internalType":"ConfigId"},{"name":"multiplexer","type":"address","internalType":"address"},{"name":"account","type":"address","internalType":"address"}]},{"type":"error","name":"UnsupportedCallType","inputs":[{"name":"callType","type":"bytes1","internalType":"CallType"}]}],"bytecode":{"object":"0x6080604052348015600e575f5ffd5b506109cf8061001c5f395ff3fe608060405234801561000f575f5ffd5b506004361061007a575f3560e01c8063831b65a511610058578063831b65a5146100da578063856334b214610118578063989c9e46146101535780639cbbc52714610168575f5ffd5b806301ffc9a71461007e57806305c00895146100a65780637129edce146100c7575b5f5ffd5b61009161008c36600461067e565b6101b3565b60405190151581526020015b60405180910390f35b6100b96100b436600461070c565b61021f565b60405190815260200161009d565b6100b96100d536600461077f565b61026d565b6100b96100e83660046107ca565b5f928352602083815260408085206001600160a01b03948516865282528085209290931684525290206001015490565b6100b96101263660046107ca565b5f928352602083815260408085206001600160a01b03948516865282528085209290931684525290205490565b610166610161366004610803565b610432565b005b61019e6101763660046107ca565b5f60208181529381526040808220855292815282812090935282529020805460019091015482565b6040805192835260208301919091520161009d565b5f6001600160e01b031982166301ffc9a760e01b14806101e357506001600160e01b03198216634c4e4f2360e11b145b806101fe57506001600160e01b031982166305c0089560e01b145b8061021957506001600160e01b03198216633894f6e760e11b145b92915050565b5f8681526020818152604080832033845282528083206001600160a01b0389168452909152812061025081866104c0565b61025e576001915050610263565b5f9150505b9695505050505050565b5f82815260208181526040808320338452825282208291829061029290860186610859565b6001600160a01b0316815260208101919091526040015f90812091506102bb6060850185610872565b6102c9916004915f916108b5565b6102d2916108dc565b9050631651a3ad60e01b6001600160e01b0319821601610428575f6103026102fd6060870187610872565b610503565b5090506001600160f81b03198116610358575f61033261032d6103286060890189610872565b61052c565b610598565b505091505061034184826104c0565b610352576001945050505050610219565b50610426565b6001600160f81b03198116600160f81b036103fc57365f61038761038261032860608a018a610872565b6105e8565b9092509050805f805b828110156103d4578484828181106103aa576103aa610914565b90506020028101906103bc9190610928565b6103ca906020013583610946565b9150600101610390565b506103df87826104c0565b6103f3576001975050505050505050610219565b50505050610426565b604051632e5bf3f960e21b81526001600160f81b0319821660048201526024015b60405180910390fd5b505b505f949350505050565b5f61044060208284866108b5565b61044991610965565b9050833386836104865760405163369d19e760e11b815260048101939093526001600160a01b03918216602484015216604482015260640161041d565b5050505f9384526020848152604080862033875282528086206001600160a01b039790971686529590529383209384555050600190910155565b5f825f01548284600101546104d59190610946565b11156104e257505f610219565b81836001015f8282546104f59190610946565b909155506001949350505050565b5f80806105146024600486886108b5565b61051d91610965565b95600887901b95509350505050565b365f604483101561053b575f5ffd5b60248401803567ffffffffffffffff811115610555575f5ffd5b01915050601f1981013567ffffffffffffffff811115610573575f5ffd5b82840180831115610582575f5ffd5b808284011115610590575f5ffd5b509250929050565b5f8036816105a960148287896108b5565b6105b291610982565b60601c93506105c56034601487896108b5565b6105ce91610965565b92506105dd85603481896108b5565b949793965094505050565b365f833580850160208587010360208201945081359350808460051b8301118360401c171561061e5763ba597e7e5f526004601cfd5b8315610674578392505b6001830392508260051b850135915081850160408101358082018381358201118460408501111782861782351760401c171561066b5763ba597e7e5f526004601cfd5b50505082610628575b5050509250929050565b5f6020828403121561068e575f5ffd5b81356001600160e01b0319811681146106a5575f5ffd5b9392505050565b80356001600160a01b03811681146106c2575f5ffd5b919050565b5f5f83601f8401126106d7575f5ffd5b50813567ffffffffffffffff8111156106ee575f5ffd5b602083019150836020828501011115610705575f5ffd5b9250929050565b5f5f5f5f5f5f60a08789031215610721575f5ffd5b86359550610731602088016106ac565b945061073f604088016106ac565b935060608701359250608087013567ffffffffffffffff811115610761575f5ffd5b61076d89828a016106c7565b979a9699509497509295939492505050565b5f5f60408385031215610790575f5ffd5b82359150602083013567ffffffffffffffff8111156107ad575f5ffd5b830161012081860312156107bf575f5ffd5b809150509250929050565b5f5f5f606084860312156107dc575f5ffd5b833592506107ec602085016106ac565b91506107fa604085016106ac565b90509250925092565b5f5f5f5f60608587031215610816575f5ffd5b61081f856106ac565b935060208501359250604085013567ffffffffffffffff811115610841575f5ffd5b61084d878288016106c7565b95989497509550505050565b5f60208284031215610869575f5ffd5b6106a5826106ac565b5f5f8335601e19843603018112610887575f5ffd5b83018035915067ffffffffffffffff8211156108a1575f5ffd5b602001915036819003821315610705575f5ffd5b5f5f858511156108c3575f5ffd5b838611156108cf575f5ffd5b5050820193919092039150565b80356001600160e01b0319811690600484101561090d576001600160e01b0319600485900360031b81901b82161691505b5092915050565b634e487b7160e01b5f52603260045260245ffd5b5f8235605e1983360301811261093c575f5ffd5b9190910192915050565b8082018082111561021957634e487b7160e01b5f52601160045260245ffd5b80356020831015610219575f19602084900360031b1b1692915050565b80356bffffffffffffffffffffffff19811690601484101561090d576bffffffffffffffffffffffff1960149490940360031b84901b169092169291505056fea164736f6c634300081c000a","linkReferences":{}},"methodIdentifiers":{"checkAction(bytes32,address,address,uint256,bytes)":"05c00895","checkUserOpPolicy(bytes32,(address,uint256,bytes,bytes,bytes32,uint256,bytes32,bytes,bytes))":"7129edce","getUsed(bytes32,address,address)":"831b65a5","getValueLimit(bytes32,address,address)":"856334b2","initializeWithMultiplexer(address,bytes32,bytes)":"989c9e46","supportsInterface(bytes4)":"01ffc9a7","valueLimitConfigs(bytes32,address,address)":"9cbbc527"},"id":2}