{"abi":[{"type":"function","name":"$canUsePaymaster","inputs":[{"name":"permissionId","type":"bytes32","internalType":"PermissionId"},{"name":"smartAccount","type":"address","internalType":"address"}],"outputs":[{"name":"canUsePaymaster","type":"bool","internalType":"bool"}],"stateMutability":"view"},{"type":"function","name":"areActionsEnabled","inputs":[{"name":"account","type":"address","internalType":"address"},{"name":"permissionId","type":"bytes32","internalType":"PermissionId"},{"name":"actions","type":"tuple[]","internalType":"struct ActionData[]","components":[{"name":"actionTargetSelector","type":"bytes4","internalType":"bytes4"},{"name":"actionTarget","type":"address","internalType":"address"},{"name":"actionPolicies","type":"tuple[]","internalType":"struct PolicyData[]","components":[{"name":"policy","type":"address","internalType":"address"},{"name":"initData","type":"bytes","internalType":"bytes"}]}]}],"outputs":[{"name":"","type":"bool","internalType":"bool"}],"stateMutability":"view"},{"type":"function","name":"areERC1271PoliciesEnabled","inputs":[{"name":"account","type":"address","internalType":"address"},{"name":"permissionId","type":"bytes32","internalType":"PermissionId"},{"name":"erc1271Policies","type":"tuple[]","internalType":"struct PolicyData[]","components":[{"name":"policy","type":"address","internalType":"address"},{"name":"initData","type":"bytes","internalType":"bytes"}]}],"outputs":[{"name":"","type":"bool","internalType":"bool"}],"stateMutability":"view"},{"type":"function","name":"areUserOpPoliciesEnabled","inputs":[{"name":"account","type":"address","internalType":"address"},{"name":"permissionId","type":"bytes32","internalType":"PermissionId"},{"name":"userOpPolicies","type":"tuple[]","internalType":"struct PolicyData[]","components":[{"name":"policy","type":"address","internalType":"address"},{"name":"initData","type":"bytes","internalType":"bytes"}]}],"outputs":[{"name":"","type":"bool","internalType":"bool"}],"stateMutability":"view"},{"type":"function","name":"disableActionId","inputs":[{"name":"permissionId","type":"bytes32","internalType":"PermissionId"},{"name":"actionId","type":"bytes32","internalType":"ActionId"}],"outputs":[],"stateMutability":"nonpayable"},{"type":"function","name":"disableActionPolicies","inputs":[{"name":"permissionId","type":"bytes32","internalType":"PermissionId"},{"name":"actionId","type":"bytes32","internalType":"ActionId"},{"name":"policies","type":"address[]","internalType":"address[]"}],"outputs":[],"stateMutability":"nonpayable"},{"type":"function","name":"disableERC1271Policies","inputs":[{"name":"permissionId","type":"bytes32","internalType":"PermissionId"},{"name":"policies","type":"address[]","internalType":"address[]"},{"name":"contexts","type":"tuple[]","internalType":"struct ERC7739Context[]","components":[{"name":"appDomainSeparator","type":"bytes32","internalType":"bytes32"},{"name":"contentNames","type":"string[]","internalType":"string[]"}]}],"outputs":[],"stateMutability":"nonpayable"},{"type":"function","name":"disableUserOpPolicies","inputs":[{"name":"permissionId","type":"bytes32","internalType":"PermissionId"},{"name":"policies","type":"address[]","internalType":"address[]"}],"outputs":[],"stateMutability":"nonpayable"},{"type":"function","name":"enableActionPolicies","inputs":[{"name":"permissionId","type":"bytes32","internalType":"PermissionId"},{"name":"actionPolicies","type":"tuple[]","internalType":"struct ActionData[]","components":[{"name":"actionTargetSelector","type":"bytes4","internalType":"bytes4"},{"name":"actionTarget","type":"address","internalType":"address"},{"name":"actionPolicies","type":"tuple[]","internalType":"struct PolicyData[]","components":[{"name":"policy","type":"address","internalType":"address"},{"name":"initData","type":"bytes","internalType":"bytes"}]}]}],"outputs":[],"stateMutability":"nonpayable"},{"type":"function","name":"enableERC1271Policies","inputs":[{"name":"permissionId","type":"bytes32","internalType":"PermissionId"},{"name":"erc1271Policies","type":"tuple","internalType":"struct ERC7739Data","components":[{"name":"allowedERC7739Content","type":"tuple[]","internalType":"struct ERC7739Context[]","components":[{"name":"appDomainSeparator","type":"bytes32","internalType":"bytes32"},{"name":"contentNames","type":"string[]","internalType":"string[]"}]},{"name":"erc1271Policies","type":"tuple[]","internalType":"struct PolicyData[]","components":[{"name":"policy","type":"address","internalType":"address"},{"name":"initData","type":"bytes","internalType":"bytes"}]}]}],"outputs":[],"stateMutability":"nonpayable"},{"type":"function","name":"enableSessions","inputs":[{"name":"sessions","type":"tuple[]","internalType":"struct Session[]","components":[{"name":"sessionValidator","type":"address","internalType":"contract ISessionValidator"},{"name":"sessionValidatorInitData","type":"bytes","internalType":"bytes"},{"name":"salt","type":"bytes32","internalType":"bytes32"},{"name":"userOpPolicies","type":"tuple[]","internalType":"struct PolicyData[]","components":[{"name":"policy","type":"address","internalType":"address"},{"name":"initData","type":"bytes","internalType":"bytes"}]},{"name":"erc7739Policies","type":"tuple","internalType":"struct ERC7739Data","components":[{"name":"allowedERC7739Content","type":"tuple[]","internalType":"struct ERC7739Context[]","components":[{"name":"appDomainSeparator","type":"bytes32","internalType":"bytes32"},{"name":"contentNames","type":"string[]","internalType":"string[]"}]},{"name":"erc1271Policies","type":"tuple[]","internalType":"struct PolicyData[]","components":[{"name":"policy","type":"address","internalType":"address"},{"name":"initData","type":"bytes","internalType":"bytes"}]}]},{"name":"actions","type":"tuple[]","internalType":"struct ActionData[]","components":[{"name":"actionTargetSelector","type":"bytes4","internalType":"bytes4"},{"name":"actionTarget","type":"address","internalType":"address"},{"name":"actionPolicies","type":"tuple[]","internalType":"struct PolicyData[]","components":[{"name":"policy","type":"address","internalType":"address"},{"name":"initData","type":"bytes","internalType":"bytes"}]}]},{"name":"canUsePaymaster","type":"bool","internalType":"bool"}]}],"outputs":[{"name":"permissionIds","type":"bytes32[]","internalType":"PermissionId[]"}],"stateMutability":"nonpayable"},{"type":"function","name":"enableUserOpPolicies","inputs":[{"name":"permissionId","type":"bytes32","internalType":"PermissionId"},{"name":"userOpPolicies","type":"tuple[]","internalType":"struct PolicyData[]","components":[{"name":"policy","type":"address","internalType":"address"},{"name":"initData","type":"bytes","internalType":"bytes"}]}],"outputs":[],"stateMutability":"nonpayable"},{"type":"function","name":"getActionPolicies","inputs":[{"name":"account","type":"address","internalType":"address"},{"name":"permissionId","type":"bytes32","internalType":"PermissionId"},{"name":"actionId","type":"bytes32","internalType":"ActionId"}],"outputs":[{"name":"","type":"address[]","internalType":"address[]"}],"stateMutability":"view"},{"type":"function","name":"getERC1271Policies","inputs":[{"name":"account","type":"address","internalType":"address"},{"name":"permissionId","type":"bytes32","internalType":"PermissionId"}],"outputs":[{"name":"","type":"address[]","internalType":"address[]"}],"stateMutability":"view"},{"type":"function","name":"getEnabledActions","inputs":[{"name":"account","type":"address","internalType":"address"},{"name":"permissionId","type":"bytes32","internalType":"PermissionId"}],"outputs":[{"name":"","type":"bytes32[]","internalType":"bytes32[]"}],"stateMutability":"view"},{"type":"function","name":"getEnabledERC7739Content","inputs":[{"name":"account","type":"address","internalType":"address"},{"name":"permissionId","type":"bytes32","internalType":"PermissionId"}],"outputs":[{"name":"enabledERC7739ContentHashes","type":"tuple[]","internalType":"struct ERC7739ContextHashes[]","components":[{"name":"appDomainSeparator","type":"bytes32","internalType":"bytes32"},{"name":"contentNameHashes","type":"bytes32[]","internalType":"bytes32[]"}]}],"stateMutability":"view"},{"type":"function","name":"getNonce","inputs":[{"name":"permissionId","type":"bytes32","internalType":"PermissionId"},{"name":"account","type":"address","internalType":"address"}],"outputs":[{"name":"","type":"uint256","internalType":"uint256"}],"stateMutability":"view"},{"type":"function","name":"getPermissionIDs","inputs":[{"name":"account","type":"address","internalType":"address"}],"outputs":[{"name":"permissionIds","type":"bytes32[]","internalType":"PermissionId[]"}],"stateMutability":"view"},{"type":"function","name":"getPermissionId","inputs":[{"name":"session","type":"tuple","internalType":"struct Session","components":[{"name":"sessionValidator","type":"address","internalType":"contract ISessionValidator"},{"name":"sessionValidatorInitData","type":"bytes","internalType":"bytes"},{"name":"salt","type":"bytes32","internalType":"bytes32"},{"name":"userOpPolicies","type":"tuple[]","internalType":"struct PolicyData[]","components":[{"name":"policy","type":"address","internalType":"address"},{"name":"initData","type":"bytes","internalType":"bytes"}]},{"name":"erc7739Policies","type":"tuple","internalType":"struct ERC7739Data","components":[{"name":"allowedERC7739Content","type":"tuple[]","internalType":"struct ERC7739Context[]","components":[{"name":"appDomainSeparator","type":"bytes32","internalType":"bytes32"},{"name":"contentNames","type":"string[]","internalType":"string[]"}]},{"name":"erc1271Policies","type":"tuple[]","internalType":"struct PolicyData[]","components":[{"name":"policy","type":"address","internalType":"address"},{"name":"initData","type":"bytes","internalType":"bytes"}]}]},{"name":"actions","type":"tuple[]","internalType":"struct ActionData[]","components":[{"name":"actionTargetSelector","type":"bytes4","internalType":"bytes4"},{"name":"actionTarget","type":"address","internalType":"address"},{"name":"actionPolicies","type":"tuple[]","internalType":"struct PolicyData[]","components":[{"name":"policy","type":"address","internalType":"address"},{"name":"initData","type":"bytes","internalType":"bytes"}]}]},{"name":"canUsePaymaster","type":"bool","internalType":"bool"}]}],"outputs":[{"name":"permissionId","type":"bytes32","internalType":"PermissionId"}],"stateMutability":"pure"},{"type":"function","name":"getSessionDigest","inputs":[{"name":"permissionId","type":"bytes32","internalType":"PermissionId"},{"name":"account","type":"address","internalType":"address"},{"name":"data","type":"tuple","internalType":"struct Session","components":[{"name":"sessionValidator","type":"address","internalType":"contract ISessionValidator"},{"name":"sessionValidatorInitData","type":"bytes","internalType":"bytes"},{"name":"salt","type":"bytes32","internalType":"bytes32"},{"name":"userOpPolicies","type":"tuple[]","internalType":"struct PolicyData[]","components":[{"name":"policy","type":"address","internalType":"address"},{"name":"initData","type":"bytes","internalType":"bytes"}]},{"name":"erc7739Policies","type":"tuple","internalType":"struct ERC7739Data","components":[{"name":"allowedERC7739Content","type":"tuple[]","internalType":"struct ERC7739Context[]","components":[{"name":"appDomainSeparator","type":"bytes32","internalType":"bytes32"},{"name":"contentNames","type":"string[]","internalType":"string[]"}]},{"name":"erc1271Policies","type":"tuple[]","internalType":"struct PolicyData[]","components":[{"name":"policy","type":"address","internalType":"address"},{"name":"initData","type":"bytes","internalType":"bytes"}]}]},{"name":"actions","type":"tuple[]","internalType":"struct ActionData[]","components":[{"name":"actionTargetSelector","type":"bytes4","internalType":"bytes4"},{"name":"actionTarget","type":"address","internalType":"address"},{"name":"actionPolicies","type":"tuple[]","internalType":"struct PolicyData[]","components":[{"name":"policy","type":"address","internalType":"address"},{"name":"initData","type":"bytes","internalType":"bytes"}]}]},{"name":"canUsePaymaster","type":"bool","internalType":"bool"}]},{"name":"mode","type":"uint8","internalType":"enum SmartSessionMode"}],"outputs":[{"name":"","type":"bytes32","internalType":"bytes32"}],"stateMutability":"view"},{"type":"function","name":"getSessionValidatorAndConfig","inputs":[{"name":"account","type":"address","internalType":"address"},{"name":"permissionId","type":"bytes32","internalType":"PermissionId"}],"outputs":[{"name":"sessionValidator","type":"address","internalType":"address"},{"name":"sessionValidatorData","type":"bytes","internalType":"bytes"}],"stateMutability":"view"},{"type":"function","name":"getUserOpPolicies","inputs":[{"name":"account","type":"address","internalType":"address"},{"name":"permissionId","type":"bytes32","internalType":"PermissionId"}],"outputs":[{"name":"","type":"address[]","internalType":"address[]"}],"stateMutability":"view"},{"type":"function","name":"isActionIdEnabled","inputs":[{"name":"account","type":"address","internalType":"address"},{"name":"permissionId","type":"bytes32","internalType":"PermissionId"},{"name":"actionId","type":"bytes32","internalType":"ActionId"}],"outputs":[{"name":"","type":"bool","internalType":"bool"}],"stateMutability":"view"},{"type":"function","name":"isActionPolicyEnabled","inputs":[{"name":"account","type":"address","internalType":"address"},{"name":"permissionId","type":"bytes32","internalType":"PermissionId"},{"name":"actionId","type":"bytes32","internalType":"ActionId"},{"name":"policy","type":"address","internalType":"address"}],"outputs":[{"name":"","type":"bool","internalType":"bool"}],"stateMutability":"view"},{"type":"function","name":"isERC1271PolicyEnabled","inputs":[{"name":"account","type":"address","internalType":"address"},{"name":"permissionId","type":"bytes32","internalType":"PermissionId"},{"name":"policy","type":"address","internalType":"address"}],"outputs":[{"name":"","type":"bool","internalType":"bool"}],"stateMutability":"view"},{"type":"function","name":"isERC7739ContentEnabled","inputs":[{"name":"account","type":"address","internalType":"address"},{"name":"permissionId","type":"bytes32","internalType":"PermissionId"},{"name":"appDomainSeparator","type":"bytes32","internalType":"bytes32"},{"name":"content","type":"string","internalType":"string"}],"outputs":[{"name":"","type":"bool","internalType":"bool"}],"stateMutability":"view"},{"type":"function","name":"isISessionValidatorSet","inputs":[{"name":"permissionId","type":"bytes32","internalType":"PermissionId"},{"name":"account","type":"address","internalType":"address"}],"outputs":[{"name":"","type":"bool","internalType":"bool"}],"stateMutability":"view"},{"type":"function","name":"isInitialized","inputs":[{"name":"smartAccount","type":"address","internalType":"address"}],"outputs":[{"name":"","type":"bool","internalType":"bool"}],"stateMutability":"view"},{"type":"function","name":"isModuleType","inputs":[{"name":"typeID","type":"uint256","internalType":"uint256"}],"outputs":[{"name":"","type":"bool","internalType":"bool"}],"stateMutability":"pure"},{"type":"function","name":"isPermissionEnabled","inputs":[{"name":"permissionId","type":"bytes32","internalType":"PermissionId"},{"name":"account","type":"address","internalType":"address"}],"outputs":[{"name":"","type":"bool","internalType":"bool"}],"stateMutability":"view"},{"type":"function","name":"isUserOpPolicyEnabled","inputs":[{"name":"account","type":"address","internalType":"address"},{"name":"permissionId","type":"bytes32","internalType":"PermissionId"},{"name":"policy","type":"address","internalType":"address"}],"outputs":[{"name":"","type":"bool","internalType":"bool"}],"stateMutability":"view"},{"type":"function","name":"isValidSignatureWithSender","inputs":[{"name":"sender","type":"address","internalType":"address"},{"name":"hash","type":"bytes32","internalType":"bytes32"},{"name":"signature","type":"bytes","internalType":"bytes"}],"outputs":[{"name":"result","type":"bytes4","internalType":"bytes4"}],"stateMutability":"view"},{"type":"function","name":"onInstall","inputs":[{"name":"data","type":"bytes","internalType":"bytes"}],"outputs":[],"stateMutability":"nonpayable"},{"type":"function","name":"onUninstall","inputs":[{"name":"","type":"bytes","internalType":"bytes"}],"outputs":[],"stateMutability":"nonpayable"},{"type":"function","name":"removeSession","inputs":[{"name":"permissionId","type":"bytes32","internalType":"PermissionId"}],"outputs":[],"stateMutability":"nonpayable"},{"type":"function","name":"revokeEnableSignature","inputs":[{"name":"permissionId","type":"bytes32","internalType":"PermissionId"}],"outputs":[],"stateMutability":"nonpayable"},{"type":"function","name":"setCanUsePaymaster","inputs":[{"name":"permissionId","type":"bytes32","internalType":"PermissionId"},{"name":"enabled","type":"bool","internalType":"bool"}],"outputs":[],"stateMutability":"nonpayable"},{"type":"function","name":"validateUserOp","inputs":[{"name":"userOp","type":"tuple","internalType":"struct PackedUserOperation","components":[{"name":"sender","type":"address","internalType":"address"},{"name":"nonce","type":"uint256","internalType":"uint256"},{"name":"initCode","type":"bytes","internalType":"bytes"},{"name":"callData","type":"bytes","internalType":"bytes"},{"name":"accountGasLimits","type":"bytes32","internalType":"bytes32"},{"name":"preVerificationGas","type":"uint256","internalType":"uint256"},{"name":"gasFees","type":"bytes32","internalType":"bytes32"},{"name":"paymasterAndData","type":"bytes","internalType":"bytes"},{"name":"signature","type":"bytes","internalType":"bytes"}]},{"name":"userOpHash","type":"bytes32","internalType":"bytes32"}],"outputs":[{"name":"vd","type":"uint256","internalType":"ValidationData"}],"stateMutability":"nonpayable"},{"type":"event","name":"ActionIdDisabled","inputs":[{"name":"permissionId","type":"bytes32","indexed":false,"internalType":"PermissionId"},{"name":"actionId","type":"bytes32","indexed":false,"internalType":"ActionId"},{"name":"smartAccount","type":"address","indexed":false,"internalType":"address"}],"anonymous":false},{"type":"event","name":"NonceIterated","inputs":[{"name":"permissionId","type":"bytes32","indexed":false,"internalType":"PermissionId"},{"name":"account","type":"address","indexed":false,"internalType":"address"},{"name":"newValue","type":"uint256","indexed":false,"internalType":"uint256"}],"anonymous":false},{"type":"event","name":"PermissionIdCanUsePaymaster","inputs":[{"name":"permissionId","type":"bytes32","indexed":false,"internalType":"PermissionId"},{"name":"smartAccount","type":"address","indexed":false,"internalType":"address"},{"name":"enabled","type":"bool","indexed":false,"internalType":"bool"}],"anonymous":false},{"type":"event","name":"PolicyDisabled","inputs":[{"name":"permissionId","type":"bytes32","indexed":false,"internalType":"PermissionId"},{"name":"policyType","type":"uint8","indexed":false,"internalType":"enum PolicyType"},{"name":"policy","type":"address","indexed":false,"internalType":"address"},{"name":"smartAccount","type":"address","indexed":false,"internalType":"address"}],"anonymous":false},{"type":"event","name":"PolicyEnabled","inputs":[{"name":"permissionId","type":"bytes32","indexed":false,"internalType":"PermissionId"},{"name":"policyType","type":"uint8","indexed":false,"internalType":"enum PolicyType"},{"name":"policy","type":"address","indexed":false,"internalType":"address"},{"name":"smartAccount","type":"address","indexed":false,"internalType":"address"}],"anonymous":false},{"type":"event","name":"SessionCreated","inputs":[{"name":"permissionId","type":"bytes32","indexed":false,"internalType":"PermissionId"},{"name":"account","type":"address","indexed":false,"internalType":"address"}],"anonymous":false},{"type":"event","name":"SessionRemoved","inputs":[{"name":"permissionId","type":"bytes32","indexed":false,"internalType":"PermissionId"},{"name":"smartAccount","type":"address","indexed":false,"internalType":"address"}],"anonymous":false},{"type":"event","name":"SessionValidatorDisabled","inputs":[{"name":"permissionId","type":"bytes32","indexed":false,"internalType":"PermissionId"},{"name":"sessionValidator","type":"address","indexed":false,"internalType":"address"},{"name":"smartAccount","type":"address","indexed":false,"internalType":"address"}],"anonymous":false},{"type":"event","name":"SessionValidatorEnabled","inputs":[{"name":"permissionId","type":"bytes32","indexed":false,"internalType":"PermissionId"},{"name":"sessionValidator","type":"address","indexed":false,"internalType":"address"},{"name":"smartAccount","type":"address","indexed":false,"internalType":"address"}],"anonymous":false},{"type":"error","name":"AssociatedArray_OutOfBounds","inputs":[{"name":"index","type":"uint256","internalType":"uint256"}]},{"type":"error","name":"ChainIdMismatch","inputs":[{"name":"providedChainId","type":"uint64","internalType":"uint64"}]},{"type":"error","name":"ChainIdMismatch","inputs":[{"name":"providedChainId","type":"uint64","internalType":"uint64"}]},{"type":"error","name":"ForbiddenValidationData","inputs":[]},{"type":"error","name":"HashIndexOutOfBounds","inputs":[{"name":"index","type":"uint256","internalType":"uint256"}]},{"type":"error","name":"HashMismatch","inputs":[{"name":"providedHash","type":"bytes32","internalType":"bytes32"},{"name":"computedHash","type":"bytes32","internalType":"bytes32"}]},{"type":"error","name":"HashMismatch","inputs":[{"name":"providedHash","type":"bytes32","internalType":"bytes32"},{"name":"computedHash","type":"bytes32","internalType":"bytes32"}]},{"type":"error","name":"InvalidActionId","inputs":[]},{"type":"error","name":"InvalidCallTarget","inputs":[]},{"type":"error","name":"InvalidData","inputs":[]},{"type":"error","name":"InvalidDataLength","inputs":[]},{"type":"error","name":"InvalidEnableSignature","inputs":[{"name":"account","type":"address","internalType":"address"},{"name":"hash","type":"bytes32","internalType":"bytes32"}]},{"type":"error","name":"InvalidISessionValidator","inputs":[{"name":"sessionValidator","type":"address","internalType":"contract ISessionValidator"}]},{"type":"error","name":"InvalidMode","inputs":[]},{"type":"error","name":"InvalidPermissionId","inputs":[{"name":"permissionId","type":"bytes32","internalType":"PermissionId"}]},{"type":"error","name":"InvalidSelfCall","inputs":[]},{"type":"error","name":"InvalidSession","inputs":[{"name":"permissionId","type":"bytes32","internalType":"PermissionId"}]},{"type":"error","name":"InvalidSessionKeySignature","inputs":[{"name":"permissionId","type":"bytes32","internalType":"PermissionId"},{"name":"sessionValidator","type":"address","internalType":"address"},{"name":"account","type":"address","internalType":"address"},{"name":"userOpHash","type":"bytes32","internalType":"bytes32"}]},{"type":"error","name":"InvalidTarget","inputs":[]},{"type":"error","name":"InvalidUserOpSender","inputs":[{"name":"sender","type":"address","internalType":"address"}]},{"type":"error","name":"NoExecutionsInBatch","inputs":[]},{"type":"error","name":"NoPoliciesSet","inputs":[{"name":"permissionId","type":"bytes32","internalType":"PermissionId"}]},{"type":"error","name":"PartlyEnabledActions","inputs":[]},{"type":"error","name":"PartlyEnabledPolicies","inputs":[]},{"type":"error","name":"PaymasterValidationNotEnabled","inputs":[{"name":"permissionId","type":"bytes32","internalType":"PermissionId"}]},{"type":"error","name":"PolicyViolation","inputs":[{"name":"permissionId","type":"bytes32","internalType":"PermissionId"},{"name":"policy","type":"address","internalType":"address"}]},{"type":"error","name":"SignerNotFound","inputs":[{"name":"permissionId","type":"bytes32","internalType":"PermissionId"},{"name":"account","type":"address","internalType":"address"}]},{"type":"error","name":"SignerNotFound","inputs":[{"name":"permissionId","type":"bytes32","internalType":"PermissionId"},{"name":"account","type":"address","internalType":"address"}]},{"type":"error","name":"SmartSessionModuleAlreadyInstalled","inputs":[{"name":"account","type":"address","internalType":"address"}]},{"type":"error","name":"UnsupportedExecutionType","inputs":[]},{"type":"error","name":"UnsupportedPolicy","inputs":[{"name":"policy","type":"address","internalType":"address"}]},{"type":"error","name":"UnsupportedPolicy","inputs":[{"name":"policy","type":"address","internalType":"address"}]},{"type":"error","name":"UnsupportedSmartSessionMode","inputs":[{"name":"mode","type":"uint8","internalType":"enum SmartSessionMode"}]}],"bytecode":{"object":"0x6080604052348015600e575f5ffd5b50615e0d8061001c5f395ff3fe608060405234801561000f575f5ffd5b5060043610610283575f3560e01c806396e7296211610157578063d0e6f608116100d2578063f5297b7711610088578063f77a7eac1161006e578063f77a7eac146105db578063f867b08e146105ee578063f9b8036914610601575f5ffd5b8063f5297b771461059c578063f551e2ee146105af575f5ffd5b8063d60b347f116100b8578063d60b347f14610562578063eab2566714610575578063ecd0596114610588575f5ffd5b8063d0e6f6081461052f578063d527ed6e1461054f575f5ffd5b8063a9fa4b4411610127578063af29e6b21161010d578063af29e6b2146104f6578063c9a5ec3914610509578063d056b06d1461051c575f5ffd5b8063a9fa4b44146104c3578063adbc532f146104e3575f5ffd5b806396e7296214610477578063970032031461048a578063a67c714e1461049d578063a7ef6205146104b0575f5ffd5b806344d1628c116102015780636e79eee0116101b75780637373f1811161019d5780637373f1811461041e578063795f9269146104315780638a91b0e314610464575f5ffd5b80636e79eee0146103de57806370f1dbb1146103f1575f5ffd5b8063496c8a91116101e7578063496c8a91146103975780634e33ad2e146103b85780636d61fe70146103cb575f5ffd5b806344d1628c14610364578063454c9d8214610384575f5ffd5b80631be1fffb116102565780632445e73e1161023c5780632445e73e1461032b5780632cca983d1461033e5780632dadb5e914610351575f5ffd5b80631be1fffb146102f8578063217124071461030b575f5ffd5b806302a1a4cd1461028757806305defba61461029c57806309e5aef8146102c25780631097109e146102e5575b5f5ffd5b61029a610295366004614335565b610614565b005b6102af6102aa3660046148c1565b610684565b6040519081526020015b60405180910390f35b6102d56102d0366004614a02565b6106bc565b60405190151581526020016102b9565b6102d56102f3366004614a49565b6106e8565b6102af610306366004614aa0565b6106f7565b61031e610319366004614ad6565b610707565b6040516102b99190614b14565b6102d5610339366004614a49565b61071c565b61029a61034c366004614b56565b61072b565b6102d561035f366004614a49565b6107a4565b610377610372366004614b84565b6107b3565b6040516102b99190614bae565b61029a610392366004614bee565b6107cd565b6103aa6103a5366004614b84565b61080a565b6040516102b9929190614c55565b61029a6103c6366004614c76565b61084b565b61029a6103d9366004614cec565b610866565b61029a6103ec366004614d1e565b610943565b6102d56103ff366004614d54565b600a60209081525f928352604080842090915290825290205460ff1681565b61031e61042c366004614d77565b6109f3565b6102af61043f366004614d54565b5f918252602082815260408084206001600160a01b0393909316845291905290205490565b61029a610472366004614cec565b610a01565b61029a610485366004614d92565b610a40565b6102af610498366004614db2565b610acb565b6103776104ab366004614b84565b610c26565b6102d56104be366004614dea565b610c40565b6104d66104d1366004614b84565b610c58565b6040516102b99190614e63565b6102d56104f1366004614d54565b610c72565b6102d5610504366004614e75565b610c7f565b6102d5610517366004614d54565b610c97565b61029a61052a366004614ea7565b610cc1565b61054261053d366004614b84565b610cdc565b6040516102b99190614eee565b61037761055d366004614e75565b610e1c565b6102d5610570366004614d77565b610e41565b6102d5610583366004614f68565b610e57565b6102d5610596366004614fc6565b60011490565b61029a6105aa366004614fdd565b610e8a565b6105c26105bd36600461501b565b610eec565b6040516001600160e01b031990911681526020016102b9565b6102d56105e9366004614dea565b610f6d565b61029a6105fc366004614fc6565b610f85565b61029a61060f366004614fc6565b6110d1565b8461062060058261114b565b61062c6005338861117a565b15155f03610655576040516324b5a7e760e21b8152600481018790526024015b60405180910390fd5b61066c6106628385615066565b60079088336111a5565b61067c60026003338989896112be565b505050505050565b5f848152602081815260408083206001600160a01b03871684529091528120546106b084868584611362565b9150505b949350505050565b5f82815260036020908152604080832086845290915281206106df908684611370565b95945050505050565b5f6106df6002858786866113a0565b5f61070182611431565b92915050565b606061071583836001611481565b9392505050565b5f6106df6001858786866113a0565b61073660058361114b565b5f828152600a602090815260408083203380855290835292819020805460ff19166001179055805185815291820192909252821515918101919091527fa281e1a78ed9e87a1f99f00fb4d03699e2c176c0943496e206e81107e176acf8906060015b60405180910390a15050565b5f6106df600385878686611737565b5f81815260016020526040902060609061071590846117fc565b816107d960058261114b565b6107fa6001846107ed81611809565b611809565b6001929190863385611814565b61080560058261114b565b505050565b5f8181526009602090815260408083206001600160a01b0380871685529252909120805490911690606090610841600182016119a9565b9150509250929050565b8161085760058261114b565b6107fa600384843360016119b4565b5f610872600533611af2565b11156108935760405163bcf00e1d60e01b815233600482015260240161064c565b5f81900361089f575050565b5f6108ad6001828486615072565b6108b691615099565b60f81c60028111156108ca576108ca6150d1565b90506108e68160028111156108e1576108e16150d1565b611afd565b6109035760405163a0042b1760e01b815260040160405180910390fd5b6109108260018186615072565b90935091508235830160208101903561067c828261093e866002811115610939576109396150d1565b611b35565b611481565b8361094f60058261114b565b5f84815260036020526040902061096b906002338887876112be565b5f848152600360209081526040808320888452909152902061098d9033611af2565b5f036109ec575f8581526004602052604090206109ab903386611b3d565b506040805186815260208101869052338183015290517ffb5966a10bbfa837a7964784b0eb92d624218037b24ae5d1aeae23157f21453f9181900360600190a15b5050505050565b60605f6107156005846117fc565b5f610a0d600533611af2565b90505f5b81811015610a3a575f610a2660053383611b49565b9050610a3181610f85565b50600101610a11565b50505050565b81610a4c60058261114b565b5f8281526003602090815260408083208684529091529020610a6e9033611b55565b5f838152600460205260409020610a86903384611b3d565b506040805184815260208101849052338183015290517ffb5966a10bbfa837a7964784b0eb92d624218037b24ae5d1aeae23157f21453f9181900360600190a1505050565b5f80610ada6020850185614d77565b90506001600160a01b0381163314610b10576040516301292ae560e21b81526001600160a01b038216600482015260240161064c565b5f803681610b2a610b256101008a018a6150e5565b611b5f565b9350935093509350610b4c846002811115610b4757610b476150d1565b611bf3565b15610b9b57610b9483888a85858080601f0160208091040260200160405190810160405280939291908181526020018383808284375f920191909152508c9250611bfa915050565b9550610c1b565b610bb08460028111156108e1576108e16150d1565b15610c0057610bbd61426b565b6060610bc98484611f55565b60408201519193509150610bdc90611fbb565b9450610bea82868989611fdc565b610bf7858a8c848b611bfa565b97505050610c1b565b836040516325f70cf760e21b815260040161064c9190615127565b505050505092915050565b5f81815260026020526040902060609061071590846117fc565b5f8281526002602052604081206106b4908584611370565b5f81815260046020526040902060609061071590846117fc565b5f6107156005838561117a565b5f8281526004602052604081206106b490858461117a565b5f8281526009602090815260408083206001600160a01b0380861685529252822054161515610715565b82610ccd60058261114b565b610a3a600180338787876112be565b5f81815260086020526040812060609190610cf79085611af2565b9050806001600160401b03811115610d1157610d116143d3565b604051908082528060200260200182016040528015610d5657816020015b604080518082019091525f815260606020820152815260200190600190039081610d2f5790505b5091505f5b81811015610e14575f848152600860205260409020610d7b908683611b49565b838281518110610d8d57610d8d615141565b60200260200101515f018181525050610dec8560075f015f8781526020019081526020015f205f868581518110610dc657610dc6615141565b60200260200101515f015181526020019081526020015f206117fc90919063ffffffff16565b838281518110610dfe57610dfe615141565b6020908102919091018101510152600101610d5b565b505092915050565b5f81815260036020908152604080832085845290915290206060906106b490856117fc565b5f80610e4e600584611af2565b15159392505050565b5f6106df85610e6b84805160209091012090565b5f8781526007602090815260408083208984529091529020919061117a565b81610e9660058261114b565b610eb6610ea38380615155565b610eac91615066565b60079085336121c0565b6107fa600384610ec86107e88761228a565b610ed56020870187615155565b610ede9161519a565b600293929190336001611814565b5f7f7739773977397739773977397739773977397739773977397739773977397739849003610f235750637739000160e01b6106b4565b306001600160a01b03861603610f4257506001600160e01b03196106b4565b5f610f578686610f5287876122c4565b6122f9565b155f03631626ba7e1760e01b9695505050505050565b5f8281526001602052604081206106b4908584611370565b80610fa6576040516324b5a7e760e21b81526004810182905260240161064c565b5f818152600160205260409020610fbd9033611b55565b5f818152600260205260409020610fd49033611b55565b5f818152600460205260408120610feb9033611af2565b90505f5b8181101561103d575f83815260046020526040812061100f903384611b49565b5f81815260036020908152604080832088845290915290209091506110349033611b55565b50600101610fef565b505f8281526004602052604090206110559033611b55565b61106160098333612561565b5f828152600a60209081526040808320338085529252909120805460ff1916905561108f9060059084611b3d565b5061109c600783336125ed565b604080518381523360208201527f1ff4377bcf87e5e9c2ec7fdc4732408c1073dd4b9f49e719d783b1e4fb0f62819101610798565b5f818152602081815260408083203384529091528120805490826110f4836151ba565b9091555090507fb21cd80665df6c8932e067c1fb0835dc3bc61d85bcab4c90a9992b692d8e17e282336111288460016151d2565b604080519384526001600160a01b03909216602084015290820152606001610798565b61115682338361117a565b6111765760405163526d0da560e01b81526004810182905260240161064c565b5050565b5f81815260018401602090815260408083206001600160a01b038616845290915281205415156106b4565b82515f5b8181101561067c575f8582815181106111c4576111c4615141565b60200260200101515f015190505f8683815181106111e4576111e4615141565b6020026020010151602001515190505f5b81811015611271575f61124389868151811061121357611213615141565b602002602001015160200151838151811061123057611230615141565b6020026020010151805160209091012090565b5f89815260208c815260408083208884529091529020909150611267908883611b3d565b50506001016111f5565b505f8681526020898152604080832085845290915290206112929086611af2565b5f036112b4575f86815260018901602052604090206112b2908684611b3d565b505b50506001016111a9565b805f5b81811015611358575f8484838181106112dc576112dc615141565b90506020020160208101906112f19190614d77565b5f87815260208b90526040902090915061130c90888361267a565b1561134f577fb2a53c8ed9d14361634fc2a7835a222e5dbec408b6cef4e06768e844613fa7548689838a60405161134694939291906151e5565b60405180910390a15b506001016112c1565b5050505050505050565b5f6106df858530868661268f565b6001600160a01b038181165f908152600185016020908152604080832093861683529290529081205415156106b4565b5f818082036113b35760019150506106df565b5f5b81811015611423575f8585838181106113d0576113d0615141565b90506020028101906113e29190615221565b6113eb9061523f565b80515f8a815260208c90526040902091925090611409908983611370565b611419575f9450505050506106df565b50506001016113b5565b506001979650505050505050565b5f61143f6020830183614d77565b61144c60208401846150e5565b84604001356040516020016114649493929190615272565b604051602081830303815290604052805190602001209050919050565b6060825f8190036114a557604051635cb045db60e01b815260040160405180910390fd5b806001600160401b038111156114bd576114bd6143d3565b6040519080825280602002602001820160405280156114e6578160200160208202803683370190505b5091505f5b8181101561172e573686868381811061150657611506615141565b905060200281019061151891906152a5565b90505f61152482611431565b905061155860018261153581611809565b6115426060870187615155565b61154b9161519a565b600193929190338c611814565b61159b60038261156a6107e88561228a565b6115776080870187615221565b611585906020810190615155565b61158e9161519a565b600293929190338c611814565b6115c86115ab6080840184615221565b6115b59080615155565b6115be91615066565b60079083336121c0565b6115ed816115d960a0850185615155565b6115e2916152b9565b60039190338a6119b4565b6115f960053383612784565b5061160a60e0830160c084016152c5565b15611633575f818152600a602090815260408083203384529091529020805460ff191660011790555b5f8181526009602090815260408083203384529091529020546001600160a01b03166116ba576116ba813361166b6020860186614d77565b61167860208701876150e5565b8080601f0160208091040260200160405190810160405280939291908181526020018383808284375f9201919091525060099695949392506001915050612790565b808584815181106116cd576116cd615141565b6020026020010181815250507fc5c98ce9477fc2c88a84abed218cda086be8442fc2eecb9e1ce33941d28741b6813360405161171c9291909182526001600160a01b0316602082015260400190565b60405180910390a150506001016114eb565b50509392505050565b5f8180820361174a5760019150506106df565b5f5b81811015611423573685858381811061176757611767615141565b905060200281019061177991906152e0565b90505f6117ab61178c60208401846152f4565b61179c6040850160208601614d77565b6001600160a01b03169061294c565b90506117e289896117bf6040860186615155565b8e5f015f8781526020019081526020015f206113a090949392919063ffffffff16565b6117f2575f9450505050506106df565b505060010161174c565b60605f6106b4848461299c565b5f61070182336129a8565b82515f5b8181101561199e575f85828151811061183357611833615141565b60209081029190910101515190506118546001600160a01b0382168a6129d5565b83156118c557604051631304d58360e21b81526001600160a01b038087166004830152821660248201526e69e2a187aeffb852bf3ccdc95151b290634c13560c906044015f6040518083038186803b1580156118ae575f5ffd5b505afa1580156118c0573d5f5f3e3d5ffd5b505050505b5f88815260208b9052604090206118dd908683612ac3565b50806001600160a01b031663989c9e46868989868151811061190157611901615141565b6020026020010151602001516040518463ffffffff1660e01b815260040161192b9392919061530f565b5f604051808303815f87803b158015611942575f5ffd5b505af1158015611954573d5f5f3e3d5ffd5b505050507f1c5ea73ef804151087de6d0ce7a77287b15cfc4f51654cac5bfe6c558547f827888a838860405161198d94939291906151e5565b60405180910390a150600101611818565b505050505050505050565b606061070182612ad8565b836119d55760405163526d0da560e01b81526004810185905260240161064c565b82515f5b81811015611ae9575f8582815181106119f4576119f4615141565b602002602001015190505f6001600160a01b031681602001516001600160a01b03161480611a2e575060208101516001600160a01b031630145b15611a4c5760405163703469d160e11b815260040160405180910390fd5b805160208201515f91611a68916001600160a01b03169061294c565b905080611a885760405163703469d160e11b815260040160405180910390fd5b611ac4600289611a988185612b9e565b85604001518a8a8f5f015f8981526020019081526020015f20611814909695949392919063ffffffff16565b5f88815260018a0160205260409020611ade908783612784565b5050506001016119d9565b50505050505050565b5f6107158383612bb2565b5f6001826002811115611b1257611b126150d1565b1480610701575060025b826002811115611b2e57611b2e6150d1565b1492915050565b5f6001611b1c565b5f6106b4848484612bbd565b5f6106b4848484612c9b565b6111768282612ca7565b5f803681611b706001828789615072565b611b7991615099565b60f81c6002811115611b8d57611b8d6150d1565b9350611ba48460028111156108e1576108e16150d1565b15611bbf57611bb68560018189615072565b91509150611bea565b611bcd602160018789615072565b611bd691615336565b9250611be58560218189615072565b915091505b92959194509250565b5f80611b1c565b5f611c076005838861117a565b611c275760405163526d0da560e01b81526004810187905260240161064c565b5f611c3560e08601866150e5565b159050611c8a575f878152600a602090815260408083206001600160a01b038716845290915290205460ff1615611c6e57506001611c8a565b60405163357727e960e21b81526004810188905260240161064c565b611cdf8588611c9881611809565b88604051602401611caa929190615394565b60408051601f198184030181529190526020810180516001600160e01b0316633894f6e760e11b179052600192919085612cf5565b91505f9050611cf160608601866150e5565b611cff916004915f91615072565b611d089161548b565b9050631651a3ad60e01b6001600160e01b0319821601611e3d575f80611d39611d3460608901896150e5565b612d9d565b90925090506001600160f81b0319811615611d6757604051636c4872f960e01b815260040160405180910390fd5b6001600160f81b03198216600160f81b03611d9b57611d94611d8d6003898c6001612dc6565b8590612e92565b9350611e36565b6001600160f81b03198216611e1d575f803681611ddd611dd8611dc160608e018e6150e5565b506024818101359091019081019160049091013590565b612f65565b9350935093509350611e12611e0b8c8f87878787600160035f01612faa90979695949392919063ffffffff16565b8990612e92565b975050505050611e36565b604051636c4872f960e01b815260040160405180910390fd5b5050611f29565b6372288ed160e01b6001600160e01b0319821601611e6e57604051636c4872f960e01b815260040160405180910390fd5b5f611ea6611e7f60608801886150e5565b611e8d916004915f91615072565b611e969161548b565b6001600160a01b0386169061294c565b9050611f25611f1e878a611eba8186612b9e565b88805f611eca60608f018f6150e5565b604051602401611edf969594939291906154c1565b60408051601f19818403018152918152602080830180516001600160e01b03166305c0089560e01b1790525f8881526003909152209291906001612cf5565b8490612e92565b9250505b5f611f38600988868b89613250565b905080611f4a576001925050506106df565b505095945050505050565b611f5d61426b565b6060611f9d84848080601f0160208091040260200160405190810160405280939291908181526020018383808284375f9201919091525061334392505050565b806020019051810190611fb09190615a37565b909590945092505050565b5f815f01518260200151836040015160405160200161146493929190615b2f565b5f838152602081815260408083206001600160a01b0386168452909152812080549082612008836151ba565b9091555090505f61201b868584866133ff565b6060870151604051630b135d3f60e11b8082529293506001600160a01b03871691631626ba7e91612050918691600401615b60565b602060405180830381865afa15801561206b573d5f5f3e3d5ffd5b505050506040513d601f19601f8201168201806040525081019061208f9190615b78565b6001600160e01b031916146120c957604051630f2a3bc360e21b81526001600160a01b03851660048201526024810182905260440161064c565b5f6120df846002811115610939576109396150d1565b90506121066001876120f081611809565b60408b0151606001516001939291908a87611814565b6040870151608001515161211e9060079088886121c0565b61214a6003876121306107e88a61228a565b60408b015160800151602001516002939291908a87611814565b604087015160a0015161216390600390889088856119b4565b5f8681526009602090815260408083206001600160a01b03808a168552925290912054166121a957604087015180516020909101516121a9916009918991899186612790565b61135860053388612784565b805160209091012090565b82515f5b8181101561067c575f8582815181106121df576121df615141565b60200260200101515f015190505f8683815181106121ff576121ff615141565b602002602001015160200151519050805f14612231575f868152600189016020526040902061222f908684612784565b505b5f5b8181101561227f575f61225189868151811061121357611213615141565b5f89815260208c815260408083208884529091529020909150612275908883612784565b5050600101612233565b5050506001016121c4565b6040517f455243313237313a2000000000000000000000000000000000000000000000006020820152602981018290525f90604901611464565b365f83839150915061ffff60605119046164920260208203830135036122f257506040810135016020810190355b9250929050565b5f8282823080156123b5575f5f5f5f5f336001600160a01b03166384b0196e6040518163ffffffff1660e01b81526004015f60405180830381865afa158015612344573d5f5f3e3d5ffd5b505050506040513d5f823e601f3d908101601f1916820160405261236b9190810190615bee565b506040805186516020978801208183015285519590960194909420606086015260808501929092526001600160a01b031660a084015260c083015260e08201905296505050505050505b6040516002870388013560f01c806042018089038a016119015f526040816020377f5479706564446174615369676e280000000000000000000000000000000000008452600e8401836040830182376040820198508397506028848201526029600185830103515f1a14612459575f6001858301035b6001820191506029828203515f1a148683101161242b57508085039450808560408501018337602881830153505b6f07fffffe00000000000001000000000081515f1a1c5b602882515f1a1461249657806512010000000183515f1a1c179050600182019150612470565b7f20636f6e74656e74732c737472696e67206e616d652c737472696e670000000082527f2076657273696f6e2c75696e7432353620636861696e49642c61646472657373601c8301527f20766572696679696e67436f6e74726163742c627974657333322073616c7429603c830152605c82019150846040840183376040838837858583010386208752602051975060e0872060405280600116604201601e209d5050505080890398505050604052612554898989898689896134e2565b9998505050505050505050565b5f828152602084815260408083206001600160a01b03858116808652918452938290208054835188815295169385019390935290830152907f1b8b78a1623842b0534f626565151ce282cc88268c30bf8d525c59d0c22f21db9060600160405180910390a1805473ffffffffffffffffffffffffffffffffffffffff19168155610a3a60018201613629565b5f828152600184016020526040812061260690836117fc565b80519091505f5b81811015612660575f83828151811061262857612628615141565b6020908102919091018101515f8881528983526040808220838352909352919091209091506126579086611b55565b5060010161260d565b505f84815260018601602052604090206109ec9084611b55565b5f6106b484846001600160a01b038516612bbd565b5f7fc1211ac69ffe18c099e596ce9a4395ae7a1400e7db4ae9a45fcdc0a67709ffa285858560028111156126c5576126c56150d1565b895160408b01516020808d0151805191012060608d01516126e590613649565b6126f28e608001516136c2565b6126ff8f60a0015161373c565b60408051602081019b909b526001600160a01b03998a16908b015296881660608a015260ff90951660808901529590921660a087015260c086015260e085015261010084019290925261012083019190915261014082015261016081018390526101800160405160208183030381529060405280519060200120905095945050505050565b5f6106b4848484613796565b6001600160a01b038316158061280a575060405163ecd0596160e01b8152600760048201526001600160a01b0384169063ecd0596190602401602060405180830381865afa1580156127e4573d5f5f3e3d5ffd5b505050506040513d601f19601f820116820180604052508101906128089190615cbe565b155b15612833576040516353f5708960e11b81526001600160a01b038416600482015260240161064c565b80156128ab5760405163529562a160e01b81526001600160a01b03808616600483015284166024820152600760448201526e69e2a187aeffb852bf3ccdc95151b29063529562a1906064015f6040518083038186803b158015612894575f5ffd5b505afa1580156128a6573d5f5f3e3d5ffd5b505050505b5f858152602087815260408083206001600160a01b0388811685529252909120805473ffffffffffffffffffffffffffffffffffffffff19169185169190911781556128fa600182018461380a565b604080518781526001600160a01b03868116602083015287168183015290517f9e1deb1dcdedd38e68d5543a9a6be8416a0e0a5627628e47780bd6ef8abc1a3c9181900360600190a150505050505050565b6040516bffffffffffffffffffffffff19606084901b1660208201526001600160e01b0319821660348201525f906038015b60405160208183030381529060405280519060200120905092915050565b60606107158383613882565b6040516bffffffffffffffffffffffff19606083901b166020820152603481018390525f9060540161297e565b5f60018260038111156129ea576129ea6150d1565b03612a1057612a096001600160a01b038416633894f6e760e11b61388e565b9050612a9a565b6002826003811115612a2457612a246150d1565b03612a4357612a096001600160a01b0384166305c0089560e01b61388e565b6003826003811115612a5757612a576150d1565b03612a7657612a096001600160a01b03841663cbf3450560e01b61388e565b604051636a01dd0160e01b81526001600160a01b038416600482015260240161064c565b8061080557604051636a01dd0160e01b81526001600160a01b038416600482015260240161064c565b5f6106b484846001600160a01b038516613796565b80546060905f6020612aeb83601f6151d2565b612af59190615cd9565b9050600184015f826001600160401b03811115612b1457612b146143d3565b604051908082528060200260200182016040528015612b3d578160200160208202803683370190505b5090505f5b83811015612b78575f81840154905080838381518110612b6457612b64615141565b602090810291909101015250600101612b42565b5080604051602001612b8a9190615cf8565b604080519190529384525091949350505050565b5f610715612bac84846138a9565b336129a8565b5f61071583836138c4565b5f81815260018401602090815260408083206001600160a01b03861684529091528120548015612c92575f612bf3600183615d2d565b90505f6001612c0288886138c4565b612c0c9190615d2d565b9050808214612c56575f612c218888846138d7565b9050612c2f888885846138e3565b5f90815260018801602090815260408083206001600160a01b038a16845290915290208390555b612c6087876138ef565b5050505f8281526001808601602090815260408084206001600160a01b03881685529091528220919091559050610715565b5f915050610715565b5f6106b48484846138d7565b5f612cb28383612bb2565b905060015b818111610a3a575f612cd38585612cce8587615d2d565b612c9b565b9050612ce0858583612bbd565b50508080612ced906151ba565b915050612cb7565b5f80612d1a612d076020880188614d77565b5f87815260208a905260409020906117fc565b805190915080841115612d4357604051631c792c0560e01b81526004810187905260240161064c565b5f5b81811015612d9157612d87611d8d8888868581518110612d6757612d67615141565b60200260200101516001600160a01b03166138f99092919063ffffffff16565b9350600101612d45565b50505095945050505050565b5f8080612dae602460048688615072565b612db791615336565b95600887901b95509350505050565b5f3681612dea612ddc611dc160608901896150e5565b508035016020810191903590565b9092509050805f819003612e1157604051632b6c9e0d60e11b815260040160405180910390fd5b5f5b81811015612e865736848483818110612e2e57612e2e615141565b9050602002810190612e4091906152e0565b90505f612e6e8b8b8b612e566020870187614d77565b6020870135612e6860408901896150e5565b8f612faa565b9050612e7a8782612e92565b96505050600101612e13565b50505050949350505050565b5f81830160601b8260601b81148460601b8214176001600160a01b0384861816151760018114612ec55760019250610e14565b7fffffffffffff000000000000000000000000000000000000000000000000000080851690861681811881831102188686176001600160a01b031617935065ffffffffffff60a01b86169081612f225765ffffffffffff60a01b91505b5065ffffffffffff60a01b851680612f40575065ffffffffffff60a01b5b808218908211021880612f59575065ffffffffffff60a01b5b92909217949350505050565b5f803681612f766014828789615072565b612f7f91615d40565b60601c9350612f92603460148789615072565b612f9b91615336565b9250611be58560348189615072565b5f806004841015612fc457506001600160e01b0319612fdd565b612fd160045f8688615072565b612fda9161548b565b90505b6001600160e01b0319811663e9ae5c5360e01b14801561301a575061300560208a018a614d77565b6001600160a01b0316876001600160a01b0316145b1561303857604051632a0399f560e11b815260040160405180910390fd5b6001600160a01b0387166001148061305857506001600160a01b03871630145b156130765760405163416aebb560e11b815260040160405180910390fd5b5f61308a6001600160a01b0389168361294c565b90506131138a8a61309b8185612b9e565b6130a860208f018f614d77565b8c8c8c8c6040516024016130c1969594939291906154c1565b6040516020818303038152906040526305c0089560e01b6020820180516001600160e01b038381831617835250505050878f5f8781526020019081526020015f2061398090949392919063ffffffff16565b92506350ffbaad8303613242576040516c010000000000000000000000006020820152600160e01b603482015261323f908b908b9061317490603801604051602081830303815290604052805190602001208d612b9e90919063ffffffff16565b61318160208f018f614d77565b8c8c8c8c60405160240161319a969594939291906154c1565b6040516020818303038152906040526305c0089560e01b6020820180516001600160e01b038381831617835250505050878f5f60018060e01b60405160200161320b92919060609290921b6bffffffffffffffffffffffff191682526001600160e01b031916601482015260180190565b6040516020818303038152906040528051906020012081526020019081526020015f20612cf590949392919063ffffffff16565b92505b505098975050505050505050565b5f828152602086815260408083206001600160a01b038088168552925282205416806132a157604051630d5dd5ff60e31b8152600481018590526001600160a01b038616602482015260440161064c565b5f848152602088815260408083206001600160a01b03898116855292529091209082169063940d384090889086906132db906001016119a9565b6040518463ffffffff1660e01b81526004016132f993929190615d80565b602060405180830381865afa158015613314573d5f5f3e3d5ffd5b505050506040513d601f19601f820116820180604052508101906133389190615cbe565b979650505050505050565b60405181516020838101938184019201015b808410156133e7578351805f1a8060051c80613387575060018681015185529581016002019593019092019150613355565b600781148360011a600701821881028218600201600185836001011a85601f1660081b0101808803602082186020831102821891505f5b818101518a82015282018381106133be579a84016002019a988301985050505050505050613355565b50601f198282030182525f8152602001604052919050565b60408401515f90819061341490868587611362565b90505f8660200151875f015160ff168151811061343357613433615141565b60200260200101515f015190505f8760200151885f015160ff168151811061345d5761345d615141565b602002602001015160200151905046826001600160401b03161461349f5760405163e75e237960e01b81526001600160401b038316600482015260240161064c565b8281146134c9576040516305846adf60e11b8152600481018290526024810184905260440161064c565b6134d68860200151613a00565b98975050505050505050565b5f5f61352284848080601f0160208091040260200160405190810160405280939291908181526020018383808284375f920191909152506121b592505050565b90505f613532602082898b615072565b61353b91615336565b905061354a876020818b615072565b909850965061355b6005338361117a565b613569575f92505050613338565b5f818152600760209081526040808320898452909152902061358c90338461117a565b61359a575f92505050613338565b5f6135c0338c8c8c8c876135b06107e88a61228a565b6002969594939291906001613b09565b9050806135d2575f9350505050613338565b61361a8a33848c8c8080601f0160208091040260200160405190810160405280939291908181526020018383808284375f920191909152506009969594939250506132509050565b9b9a5050505050505050505050565b5f80825560018201905b6020811015610805575f82820155600101613633565b80515f90816136688260408051828152600190920160051b8201905290565b90505f5b828110156136b2576136a98161369a87848151811061368d5761368d615141565b6020026020010151613c0d565b600190910160051b8401528290565b5060010161366c565b50805160051b60208201206106b4565b6040805160038152608081019091527fdfd9b5718eebaa2484740b4ea6939e96189024c15848f16ccce901118114e15260208201525f90613719600161370a855f0151613c77565b600190910160051b8301528190565b5061372c600261370a8560200151613649565b50805160051b6020820120610715565b80515f908161375b8260408051828152600190920160051b8201905290565b90505f5b828110156136b25761378d8161369a87848151811061378057613780615141565b6020026020010151613cd1565b5060010161375f565b5f81815260018401602090815260408083206001600160a01b0386168452909152812054613803576137c9848484613d45565b6137d384846138c4565b5f8381526001808701602090815260408084206001600160a01b0389168552909152909120919091559050610715565b505f610715565b613815602080615daa565b8151111561383657604051630dfe930960e41b815260040160405180910390fd5b606061384182613d50565b9084558051909150600184015f5b8281101561067c575f84828151811061386a5761386a615141565b6020908102919091010151838301555060010161384f565b60606107158383613e22565b5f61389883613ebb565b801561071557506107158383613eed565b60408051602081018490529081018290525f9060600161297e565b5f81815260208390526040812054610715565b5f6106b4848484613f70565b610a3a84848484613f87565b6111768282613f9f565b5f80806139146001600160a01b0387165f1983602088613fdb565b915091505f826139335763f42707525f5260208201516020526024601cfd5b5060208101519250826001600160a01b0381161561397657604051633b57736160e01b8152600481018790526001600160a01b038816602482015260440161064c565b5050509392505050565b5f80613992612d076020880188614d77565b8051909150808411156139ad576350ffbaad925050506106df565b5f5b818110156139db576139d1611d8d8888868581518110612d6757612d67615141565b93506001016139af565b506350ffbaad8303611f4a57604051630b4e78fd60e21b815260040160405180910390fd5b5f807fb8891a1d91e981333b5a0f2583fadff6cb80006149b9f8407608eb4c0a130c7d613a2c84614060565b60408051602081019390935282015260600160408051601f1981840301815282825280516020918201207fb03948446334eb9b2196d5eb166f69b9d49403eb4a12f36de8d3f9f3cb8e15c3918401919091527f174e195918c922f8ce2a6d59c7e3e4eb4908dcdb2e305d06e24a973039099ed4918301919091527fc89efdaa54c0f20c7adf612882df0950f5a951637e0307cdcb4c672f298b8bc6606083015291506107159060800160408051601f1981840301815290829052805160209091012061190160f01b82526002820152602281018390526042902090565b5f83815260208a9052604081208190613b22908b6117fc565b805190915080841115613b4b57604051631c792c0560e01b81526004810187905260240161064c565b5f5b81811015613bfd57828181518110613b6757613b67615141565b60200260200101516001600160a01b031663cbf34505878d8f8e8e8e6040518763ffffffff1660e01b8152600401613ba4969594939291906154c1565b602060405180830381865afa158015613bbf573d5f5f3e3d5ffd5b505050506040513d601f19601f82011682018060405250810190613be39190615cbe565b935083613bf5575f9350505050612554565b600101613b4d565b5050509998505050505050505050565b80516020808301518051908201206040515f93611464937fdddac12cd8b10a071bea04226e97ac9490698394e19224abc47a5cfeeeb6ee97939192019283526001600160a01b03919091166020830152604082015260600190565b60019190910160051b82015290565b80515f9081613c968260408051828152600190920160051b8201905290565b90505f5b828110156136b257613cc88161369a878481518110613cbb57613cbb615141565b60200260200101516140ba565b50600101613c9a565b5f7f35809859dccf8877c407a59527c2f00fb81ca9c198ebcb0c832c3deaa38d35025f1b825f01518360200151613d0b8560400151613649565b6040805160208101959095526001600160e01b0319909316928401929092526001600160a01b03166060830152608082015260a001611464565b61080583838361410c565b80516060613d5f602080615daa565b821115613d7f57604051630dfe930960e41b815260040160405180910390fd5b5f6020613d8d84601f6151d2565b613d979190615cd9565b9050806001600160401b03811115613db157613db16143d3565b604051908082528060200260200182016040528015613dda578160200160208202803683370190505b5091505f5b81811015613e1b575f60206001830102860151905080848381518110613e0757613e07615141565b602090810291909101015250600101613ddf565b5050915091565b5f818152602083905260409020805460609190806001600160401b03811115613e4d57613e4d6143d3565b604051908082528060200260200182016040528015613e76578160200160208202803683370190505b5092505f5b81811015613eb257613e8d838261414a565b848281518110613e9f57613e9f615141565b6020908102919091010152600101613e7b565b50505092915050565b5f613ecd826301ffc9a760e01b613eed565b80156107015750613ee6826001600160e01b0319613eed565b1592915050565b6040516001600160e01b0319821660248201525f90819060440160408051601f19818403018152919052602080820180516001600160e01b03166301ffc9a760e01b17815282519293505f9283928392909183918a617530fa92503d91505f519050828015613f5d575060208210155b8015613338575015159695505050505050565b5f8281526020849052604081206106b4908361414a565b5f838152602085905260409020610a3a90838361416d565b5f81815260208390526040812080549091819003613fbd5750505050565b613fd282613fcc600184615d2d565b5f61416d565b5f190190555050565b5f60605f5f5f8661ffff166001600160401b03811115613ffd57613ffd6143d3565b6040519080825280601f01601f191660200182016040528015614027576020820181803683370190505b5090505f5f8751602089018b8e8ef191503d925086831115614047578692505b828152825f602083013e90999098509650505050505050565b80515f908161407f8260408051828152600190920160051b8201905290565b90505f5b828110156136b2576140b18161369a8784815181106140a4576140a4615141565b602002602001015161418e565b50600101614083565b805160208201515f917e6166b2b3a1edaf1da1ce02715d02d4979a4ab93755bff9ec054b0e6a96a1da916140ed906141e3565b6040805160208101949094528301919091526060820152608001611464565b5f8281526020849052604090208054607f81111561413557638277484f5f52806020526024601cfd5b82600182018301556001810182555050505050565b5f8254821061416457638277484f5f52816020526024601cfd5b50016001015490565b8254821061418657638277484f5f52816020526024601cfd5b910160010155565b80516020808301516040515f93611464937fce180a7804b7aa8318434f77c9fa28e064a722408ea7b7874d9163732f3ba1d5939192019283526001600160401b03919091166020830152604082015260600190565b80515f90816142028260408051828152600190920160051b8201905290565b90505f5b828110156136b2576142628186838151811061422457614224615141565b602002602001015160405160200161423c9190615dc1565b6040516020818303038152906040528051906020012084613c689092919063ffffffff16565b50600101614206565b604080516080810182525f81526060602082015290810161428a614297565b8152602001606081525090565b6040518060e001604052805f6001600160a01b03168152602001606081526020015f8152602001606081526020016142e2604051806040016040528060608152602001606081525090565b8152606060208201525f60409091015290565b5f5f83601f840112614305575f5ffd5b5081356001600160401b0381111561431b575f5ffd5b6020830191508360208260051b85010111156122f2575f5ffd5b5f5f5f5f5f60608688031215614349575f5ffd5b8535945060208601356001600160401b03811115614365575f5ffd5b614371888289016142f5565b90955093505060408601356001600160401b0381111561438f575f5ffd5b61439b888289016142f5565b969995985093965092949392505050565b6001600160a01b03811681146143c0575f5ffd5b50565b80356143ce816143ac565b919050565b634e487b7160e01b5f52604160045260245ffd5b604080519081016001600160401b0381118282101715614409576144096143d3565b60405290565b604051606081016001600160401b0381118282101715614409576144096143d3565b60405160e081016001600160401b0381118282101715614409576144096143d3565b604051608081016001600160401b0381118282101715614409576144096143d3565b604051601f8201601f191681016001600160401b038111828210171561449d5761449d6143d3565b604052919050565b5f6001600160401b038211156144bd576144bd6143d3565b50601f01601f191660200190565b5f82601f8301126144da575f5ffd5b8135602083015f6144f26144ed846144a5565b614475565b9050828152858383011115614505575f5ffd5b828260208301375f92810160200192909252509392505050565b5f6001600160401b03821115614537576145376143d3565b5060051b60200190565b5f60408284031215614551575f5ffd5b6145596143e7565b90508135614566816143ac565b815260208201356001600160401b03811115614580575f5ffd5b61458c848285016144cb565b60208301525092915050565b5f6145a56144ed8461451f565b838152905060208101600584901b8301858111156145c1575f5ffd5b835b818110156139765780356001600160401b038111156145e0575f5ffd5b6145ec88828801614541565b845250602092830192016145c3565b5f82601f83011261460a575f5ffd5b61071583833560208501614598565b5f6146266144ed8461451f565b838152905060208101600584901b830185811115614642575f5ffd5b835b818110156139765780356001600160401b03811115614661575f5ffd5b850160408189031215614672575f5ffd5b61467a6143e7565b8135815260208201356001600160401b03811115614696575f5ffd5b80830192505088601f8301126146aa575f5ffd5b81356146b86144ed8261451f565b8082825260208201915060208360051b86010192508b8311156146d9575f5ffd5b602085015b838110156147195780356001600160401b038111156146fb575f5ffd5b61470a8e6020838a01016144cb565b845250602092830192016146de565b508060208501525050508085525050602083019250602081019050614644565b5f60408284031215614749575f5ffd5b6147516143e7565b905081356001600160401b03811115614768575f5ffd5b8201601f81018413614778575f5ffd5b61478784823560208401614619565b82525060208201356001600160401b038111156147a2575f5ffd5b61458c848285016145fb565b6001600160e01b0319811681146143c0575f5ffd5b5f6147d06144ed8461451f565b838152905060208101600584901b8301858111156147ec575f5ffd5b835b818110156139765780356001600160401b0381111561480b575f5ffd5b85016060818903121561481c575f5ffd5b61482461440f565b813561482f816147ae565b8152602082013561483f816143ac565b602082015260408201356001600160401b0381111561485c575f5ffd5b6148688a8285016145fb565b604083015250845250602092830192016147ee565b5f82601f83011261488c575f5ffd5b610715838335602085016147c3565b80151581146143c0575f5ffd5b80356143ce8161489b565b8035600381106143ce575f5ffd5b5f5f5f5f608085870312156148d4575f5ffd5b8435935060208501356148e6816143ac565b925060408501356001600160401b03811115614900575f5ffd5b850160e08188031215614911575f5ffd5b614919614431565b614922826143c3565b815260208201356001600160401b0381111561493c575f5ffd5b614948898285016144cb565b6020830152506040828101359082015260608201356001600160401b03811115614970575f5ffd5b61497c898285016145fb565b60608301525060808201356001600160401b0381111561499a575f5ffd5b6149a689828501614739565b60808301525060a08201356001600160401b038111156149c4575f5ffd5b6149d08982850161487d565b60a0830152506149e260c083016148a8565b60c082015292506149f79050606086016148b3565b905092959194509250565b5f5f5f5f60808587031215614a15575f5ffd5b8435614a20816143ac565b935060208501359250604085013591506060850135614a3e816143ac565b939692955090935050565b5f5f5f5f60608587031215614a5c575f5ffd5b8435614a67816143ac565b93506020850135925060408501356001600160401b03811115614a88575f5ffd5b614a94878288016142f5565b95989497509550505050565b5f60208284031215614ab0575f5ffd5b81356001600160401b03811115614ac5575f5ffd5b820160e08185031215610715575f5ffd5b5f5f60208385031215614ae7575f5ffd5b82356001600160401b03811115614afc575f5ffd5b614b08858286016142f5565b90969095509350505050565b602080825282518282018190525f918401906040840190835b81811015614b4b578351835260209384019390920191600101614b2d565b509095945050505050565b5f5f60408385031215614b67575f5ffd5b823591506020830135614b798161489b565b809150509250929050565b5f5f60408385031215614b95575f5ffd5b8235614ba0816143ac565b946020939093013593505050565b602080825282518282018190525f918401906040840190835b81811015614b4b5783516001600160a01b0316835260209384019390920191600101614bc7565b5f5f60408385031215614bff575f5ffd5b8235915060208301356001600160401b03811115614c1b575f5ffd5b610841858286016145fb565b5f81518084528060208401602086015e5f602082860101526020601f19601f83011685010191505092915050565b6001600160a01b0383168152604060208201525f6106b46040830184614c27565b5f5f60408385031215614c87575f5ffd5b8235915060208301356001600160401b03811115614ca3575f5ffd5b6108418582860161487d565b5f5f83601f840112614cbf575f5ffd5b5081356001600160401b03811115614cd5575f5ffd5b6020830191508360208285010111156122f2575f5ffd5b5f5f60208385031215614cfd575f5ffd5b82356001600160401b03811115614d12575f5ffd5b614b0885828601614caf565b5f5f5f5f60608587031215614d31575f5ffd5b843593506020850135925060408501356001600160401b03811115614a88575f5ffd5b5f5f60408385031215614d65575f5ffd5b823591506020830135614b79816143ac565b5f60208284031215614d87575f5ffd5b8135610715816143ac565b5f5f60408385031215614da3575f5ffd5b50508035926020909101359150565b5f5f60408385031215614dc3575f5ffd5b82356001600160401b03811115614dd8575f5ffd5b83016101208186031215614ba0575f5ffd5b5f5f5f60608486031215614dfc575f5ffd5b8335614e07816143ac565b9250602084013591506040840135614e1e816143ac565b809150509250925092565b5f8151808452602084019350602083015f5b82811015614e59578151865260209586019590910190600101614e3b565b5093949350505050565b602081525f6107156020830184614e29565b5f5f5f60608486031215614e87575f5ffd5b8335614e92816143ac565b95602085013595506040909401359392505050565b5f5f5f60408486031215614eb9575f5ffd5b8335925060208401356001600160401b03811115614ed5575f5ffd5b614ee1868287016142f5565b9497909650939450505050565b5f602082016020835280845180835260408501915060408160051b8601019250602086015f5b82811015614f5c57603f198786030184528151805186526020810151905060406020870152614f466040870182614e29565b9550506020938401939190910190600101614f14565b50929695505050505050565b5f5f5f5f60808587031215614f7b575f5ffd5b8435614f86816143ac565b9350602085013592506040850135915060608501356001600160401b03811115614fae575f5ffd5b614fba878288016144cb565b91505092959194509250565b5f60208284031215614fd6575f5ffd5b5035919050565b5f5f60408385031215614fee575f5ffd5b8235915060208301356001600160401b0381111561500a575f5ffd5b830160408186031215614b79575f5ffd5b5f5f5f5f6060858703121561502e575f5ffd5b8435615039816143ac565b93506020850135925060408501356001600160401b0381111561505a575f5ffd5b614a9487828801614caf565b5f610715368484614619565b5f5f85851115615080575f5ffd5b8386111561508c575f5ffd5b5050820193919092039150565b80356001600160f81b031981169060018410156150ca576001600160f81b0319600185900360031b81901b82161691505b5092915050565b634e487b7160e01b5f52602160045260245ffd5b5f5f8335601e198436030181126150fa575f5ffd5b8301803591506001600160401b03821115615113575f5ffd5b6020019150368190038213156122f2575f5ffd5b602081016003831061513b5761513b6150d1565b91905290565b634e487b7160e01b5f52603260045260245ffd5b5f5f8335601e1984360301811261516a575f5ffd5b8301803591506001600160401b03821115615183575f5ffd5b6020019150600581901b36038213156122f2575f5ffd5b5f610715368484614598565b634e487b7160e01b5f52601160045260245ffd5b5f600182016151cb576151cb6151a6565b5060010190565b80820180821115610701576107016151a6565b84815260808101600485106151fc576151fc6150d1565b60208201949094526001600160a01b0392831660408201529116606090910152919050565b5f8235603e19833603018112615235575f5ffd5b9190910192915050565b5f6107013683614541565b81835281816020850137505f828201602090810191909152601f909101601f19169091010190565b6001600160a01b0385168152606060208201525f61529460608301858761524a565b905082604083015295945050505050565b5f823560de19833603018112615235575f5ffd5b5f6107153684846147c3565b5f602082840312156152d5575f5ffd5b81356107158161489b565b5f8235605e19833603018112615235575f5ffd5b5f60208284031215615304575f5ffd5b8135610715816147ae565b6001600160a01b0384168152826020820152606060408201525f6106df6060830184614c27565b80356020831015610701575f19602084900360031b1b1692915050565b5f5f8335601e19843603018112615368575f5ffd5b83016020810192503590506001600160401b03811115615386575f5ffd5b8036038213156122f2575f5ffd5b828152604060208201526153bb604082016153ae846143c3565b6001600160a01b03169052565b602082013560608201525f6153d36040840184615353565b61012060808501526153ea6101608501828461524a565b9150506153fa6060850185615353565b848303603f190160a086015261541183828461524a565b608087013560c08781019190915260a088013560e0808901919091529088013561010088015290935061544992508601905085615353565b848303603f190161012086015261546183828461524a565b92505050615473610100850185615353565b848303603f190161014086015261333883828461524a565b80356001600160e01b031981169060048410156150ca576001600160e01b031960049490940360031b84901b1690921692915050565b8681526001600160a01b03861660208201526001600160a01b038516604082015283606082015260a060808201525f6134d660a08301848661524a565b5f82601f83011261550d575f5ffd5b815161551b6144ed8261451f565b8082825260208201915060208360061b86010192508583111561553c575f5ffd5b602085015b838110156155925760408188031215615558575f5ffd5b6155606143e7565b81516001600160401b0381168114615576575f5ffd5b8152602082810151818301529084529290920191604001615541565b5095945050505050565b80516143ce816143ac565b5f82601f8301126155b6575f5ffd5b8151602083015f6155c96144ed846144a5565b90508281528583830111156155dc575f5ffd5b8282602083015e5f92810160200192909252509392505050565b5f82601f830112615605575f5ffd5b81516156136144ed8261451f565b8082825260208201915060208360051b860101925085831115615634575f5ffd5b602085015b838110156155925780516001600160401b03811115615656575f5ffd5b86016040818903601f1901121561566b575f5ffd5b6156736143e7565b6020820151615681816143ac565b815260408201516001600160401b0381111561569b575f5ffd5b6156aa8a6020838601016155a7565b6020830152508085525050602083019250602081019050615639565b5f604082840312156156d6575f5ffd5b6156de6143e7565b905081516001600160401b038111156156f5575f5ffd5b8201601f81018413615705575f5ffd5b80516157136144ed8261451f565b8082825260208201915060208360051b850101925086831115615734575f5ffd5b602084015b838110156158385780516001600160401b03811115615756575f5ffd5b85016040818a03601f1901121561576b575f5ffd5b6157736143e7565b6020820151815260408201516001600160401b03811115615792575f5ffd5b60208184010192505089601f8301126157a9575f5ffd5b81516157b76144ed8261451f565b8082825260208201915060208360051b86010192508c8311156157d8575f5ffd5b602085015b838110156158185780516001600160401b038111156157fa575f5ffd5b6158098f6020838a01016155a7565b845250602092830192016157dd565b508060208501525050508085525050602083019250602081019050615739565b50845250505060208201516001600160401b03811115615856575f5ffd5b61458c848285016155f6565b5f82601f830112615871575f5ffd5b815161587f6144ed8261451f565b8082825260208201915060208360051b8601019250858311156158a0575f5ffd5b602085015b838110156155925780516001600160401b038111156158c2575f5ffd5b86016060818903601f190112156158d7575f5ffd5b6158df61440f565b60208201516158ed816147ae565b815260408201516158fd816143ac565b602082015260608201516001600160401b0381111561591a575f5ffd5b6159298a6020838601016155f6565b604083015250845250602092830192016158a5565b80516143ce8161489b565b5f60e08284031215615959575f5ffd5b615961614431565b905061596c8261559c565b815260208201516001600160401b03811115615986575f5ffd5b615992848285016155a7565b6020830152506040828101519082015260608201516001600160401b038111156159ba575f5ffd5b6159c6848285016155f6565b60608301525060808201516001600160401b038111156159e4575f5ffd5b6159f0848285016156c6565b60808301525060a08201516001600160401b03811115615a0e575f5ffd5b615a1a84828501615862565b60a083015250615a2c60c0830161593e565b60c082015292915050565b5f5f60408385031215615a48575f5ffd5b82516001600160401b03811115615a5d575f5ffd5b830160808186031215615a6e575f5ffd5b615a76614453565b815160ff81168114615a86575f5ffd5b815260208201516001600160401b03811115615aa0575f5ffd5b615aac878285016154fe565b60208301525060408201516001600160401b03811115615aca575f5ffd5b615ad687828501615949565b60408301525060608201516001600160401b03811115615af4575f5ffd5b615b00878285016155a7565b606083015250809350505060208301516001600160401b03811115615b23575f5ffd5b610841858286016155a7565b6001600160a01b0384168152606060208201525f615b506060830185614c27565b9050826040830152949350505050565b828152604060208201525f6106b46040830184614c27565b5f60208284031215615b88575f5ffd5b8151610715816147ae565b5f82601f830112615ba2575f5ffd5b8151615bb06144ed8261451f565b8082825260208201915060208360051b860101925085831115615bd1575f5ffd5b602085015b83811015615592578051835260209283019201615bd6565b5f5f5f5f5f5f5f60e0888a031215615c04575f5ffd5b87516001600160f81b031981168114615c1b575f5ffd5b60208901519097506001600160401b03811115615c36575f5ffd5b615c428a828b016155a7565b96505060408801516001600160401b03811115615c5d575f5ffd5b615c698a828b016155a7565b60608a01519096509450615c8190506080890161559c565b60a089015160c08a015191945092506001600160401b03811115615ca3575f5ffd5b615caf8a828b01615b93565b91505092959891949750929550565b5f60208284031215615cce575f5ffd5b81516107158161489b565b5f82615cf357634e487b7160e01b5f52601260045260245ffd5b500490565b81515f90829060208501835b82811015615d22578151845260209384019390910190600101615d04565b509195945050505050565b81810381811115610701576107016151a6565b80356bffffffffffffffffffffffff1981169060148410156150ca576bffffffffffffffffffffffff1960149490940360031b84901b1690921692915050565b838152606060208201525f615d986060830185614c27565b82810360408401526106b08185614c27565b8082028115828204841417610701576107016151a6565b5f82518060208501845e5f92019182525091905056fea26469706673582212209529ea3136d8743e5f40e8213387dd0e25f884c1cae4f10b567ab195e427af8664736f6c634300081b0033","linkReferences":{}},"methodIdentifiers":{"$canUsePaymaster(bytes32,address)":"70f1dbb1","areActionsEnabled(address,bytes32,(bytes4,address,(address,bytes)[])[])":"2dadb5e9","areERC1271PoliciesEnabled(address,bytes32,(address,bytes)[])":"1097109e","areUserOpPoliciesEnabled(address,bytes32,(address,bytes)[])":"2445e73e","disableActionId(bytes32,bytes32)":"96e72962","disableActionPolicies(bytes32,bytes32,address[])":"6e79eee0","disableERC1271Policies(bytes32,address[],(bytes32,string[])[])":"02a1a4cd","disableUserOpPolicies(bytes32,address[])":"d056b06d","enableActionPolicies(bytes32,(bytes4,address,(address,bytes)[])[])":"4e33ad2e","enableERC1271Policies(bytes32,((bytes32,string[])[],(address,bytes)[]))":"f5297b77","enableSessions((address,bytes,bytes32,(address,bytes)[],((bytes32,string[])[],(address,bytes)[]),(bytes4,address,(address,bytes)[])[],bool)[])":"21712407","enableUserOpPolicies(bytes32,(address,bytes)[])":"454c9d82","getActionPolicies(address,bytes32,bytes32)":"d527ed6e","getERC1271Policies(address,bytes32)":"a67c714e","getEnabledActions(address,bytes32)":"a9fa4b44","getEnabledERC7739Content(address,bytes32)":"d0e6f608","getNonce(bytes32,address)":"795f9269","getPermissionIDs(address)":"7373f181","getPermissionId((address,bytes,bytes32,(address,bytes)[],((bytes32,string[])[],(address,bytes)[]),(bytes4,address,(address,bytes)[])[],bool))":"1be1fffb","getSessionDigest(bytes32,address,(address,bytes,bytes32,(address,bytes)[],((bytes32,string[])[],(address,bytes)[]),(bytes4,address,(address,bytes)[])[],bool),uint8)":"05defba6","getSessionValidatorAndConfig(address,bytes32)":"496c8a91","getUserOpPolicies(address,bytes32)":"44d1628c","isActionIdEnabled(address,bytes32,bytes32)":"af29e6b2","isActionPolicyEnabled(address,bytes32,bytes32,address)":"09e5aef8","isERC1271PolicyEnabled(address,bytes32,address)":"a7ef6205","isERC7739ContentEnabled(address,bytes32,bytes32,string)":"eab25667","isISessionValidatorSet(bytes32,address)":"c9a5ec39","isInitialized(address)":"d60b347f","isModuleType(uint256)":"ecd05961","isPermissionEnabled(bytes32,address)":"adbc532f","isUserOpPolicyEnabled(address,bytes32,address)":"f77a7eac","isValidSignatureWithSender(address,bytes32,bytes)":"f551e2ee","onInstall(bytes)":"6d61fe70","onUninstall(bytes)":"8a91b0e3","removeSession(bytes32)":"f867b08e","revokeEnableSignature(bytes32)":"f9b80369","setCanUsePaymaster(bytes32,bool)":"2cca983d","validateUserOp((address,uint256,bytes,bytes,bytes32,uint256,bytes32,bytes,bytes),bytes32)":"97003203"},"id":2}