{"abi":[{"type":"function","name":"eip712Domain","inputs":[],"outputs":[{"name":"fields","type":"bytes1","internalType":"bytes1"},{"name":"name","type":"string","internalType":"string"},{"name":"version","type":"string","internalType":"string"},{"name":"chainId","type":"uint256","internalType":"uint256"},{"name":"verifyingContract","type":"address","internalType":"address"},{"name":"salt","type":"bytes32","internalType":"bytes32"},{"name":"extensions","type":"uint256[]","internalType":"uint256[]"}],"stateMutability":"view"},{"type":"function","name":"isInitialized","inputs":[{"name":"smartAccount","type":"address","internalType":"address"}],"outputs":[{"name":"isInitialized","type":"bool","internalType":"bool"}],"stateMutability":"view"},{"type":"function","name":"isModuleType","inputs":[{"name":"typeID","type":"uint256","internalType":"uint256"}],"outputs":[{"name":"","type":"bool","internalType":"bool"}],"stateMutability":"pure"},{"type":"function","name":"onInstall","inputs":[{"name":"","type":"bytes","internalType":"bytes"}],"outputs":[],"stateMutability":"nonpayable"},{"type":"function","name":"onUninstall","inputs":[{"name":"","type":"bytes","internalType":"bytes"}],"outputs":[],"stateMutability":"nonpayable"},{"type":"function","name":"supportsNestedTypedDataSign","inputs":[],"outputs":[{"name":"result","type":"bytes32","internalType":"bytes32"}],"stateMutability":"view"},{"type":"error","name":"AlreadyInitialized","inputs":[{"name":"smartAccount","type":"address","internalType":"address"}]},{"type":"error","name":"NotInitialized","inputs":[{"name":"smartAccount","type":"address","internalType":"address"}]}],"bytecode":{"object":"0x6080604052348015600e575f5ffd5b506109878061001c5f395ff3fe608060405234801561000f575f5ffd5b506004361061006f575f3560e01c8063d60b347f1161004d578063d60b347f146100ec578063d620c85a1461011e578063ecd0596114610133575f5ffd5b80636d61fe701461007357806384b0196e146100a05780638a91b0e3146100c4575b5f5ffd5b61009e610081366004610587565b5050335f908152602081905260409020805460ff19166001179055565b005b6100a8610146565b6040516100bb9796959493929190610623565b60405180910390f35b61009e6100d2366004610587565b5050335f908152602081905260409020805460ff19169055565b61010e6100fa3660046106c6565b5f6020819052908152604090205460ff1681565b60405190151581526020016100bb565b604051636b10642d60e11b81526020016100bb565b61010e610141366004610700565b6101e7565b5f6060805f5f5f6060600f60f81b96503392505f3373ffffffffffffffffffffffffffffffffffffffff16639cfd7cff6040518163ffffffff1660e01b81526004015f60405180830381865afa1580156101a2573d5f5f3e3d5ffd5b505050506040513d5f823e601f3d908101601f191682016040526101c9919081019061072b565b90506101d4816101fd565b9899909897504696509394509192909150565b5f600382036101f857506001919050565b919050565b6060805f610231846040805180820182525f8082526020918201528151808301909252825182529182019181019190915290565b60408051808201825260018152601760f91b6020808301918252835180850185525f808252908201528351808501909452915183529082015290915061027f61027a83836102c0565b6102e5565b61028c61027a84846102c0565b60405160200161029d9291906107f5565b60405160208183030381529060405293506102b7826102e5565b92505050915091565b604080518082019091525f80825260208201526102de83838361034a565b5092915050565b60605f825f015167ffffffffffffffff81111561030457610304610717565b6040519080825280601f01601f19166020018201604052801561032e576020820181803683370190505b5090505f6020820190506102de818560200151865f01516103f0565b604080518082019091525f80825260208201525f610378855f01518660200151865f01518760200151610469565b6020808701805191860191909152519091506103949082610831565b8352845160208601516103a7919061084a565b81036103b5575f85526103e7565b835183516103c3919061084a565b855186906103d2908390610831565b90525083516103e1908261084a565b60208601525b50909392505050565b60208110610428578151835261040760208461084a565b925061041460208361084a565b9150610421602082610831565b90506103f0565b5f19811561045657600161043d836020610831565b61044990610100610940565b6104539190610831565b90505b9151835183169219169190911790915250565b5f83818685116105705760208511610520575f85156104b357600161048f876020610831565b61049a90600861094b565b6104a5906002610940565b6104af9190610831565b1990505b845181165f876104c38b8b61084a565b6104cd9190610831565b855190915083165b828114610512578186106104fa576104ed8b8b61084a565b965050505050505061057f565b8561050481610962565b9650508386511690506104d5565b85965050505050505061057f565b508383205f905b6105318689610831565b821161056e5785832080820361054d578394505050505061057f565b61055860018561084a565b935050818061056690610962565b925050610527565b505b61057a878761084a565b925050505b949350505050565b5f5f60208385031215610598575f5ffd5b823567ffffffffffffffff8111156105ae575f5ffd5b8301601f810185136105be575f5ffd5b803567ffffffffffffffff8111156105d4575f5ffd5b8560208284010111156105e5575f5ffd5b6020919091019590945092505050565b5f81518084528060208401602086015e5f602082860101526020601f19601f83011685010191505092915050565b60ff60f81b8816815260e060208201525f61064160e08301896105f5565b828103604084015261065381896105f5565b6060840188905273ffffffffffffffffffffffffffffffffffffffff8716608085015260a0840186905283810360c0850152845180825260208087019350909101905f5b818110156106b5578351835260209384019390920191600101610697565b50909b9a5050505050505050505050565b5f602082840312156106d6575f5ffd5b813573ffffffffffffffffffffffffffffffffffffffff811681146106f9575f5ffd5b9392505050565b5f60208284031215610710575f5ffd5b5035919050565b634e487b7160e01b5f52604160045260245ffd5b5f6020828403121561073b575f5ffd5b815167ffffffffffffffff811115610751575f5ffd5b8201601f81018413610761575f5ffd5b805167ffffffffffffffff81111561077b5761077b610717565b604051601f8201601f19908116603f0116810167ffffffffffffffff811182821017156107aa576107aa610717565b6040528181528282016020018610156107c1575f5ffd5b8160208401602083015e5f91810160200191909152949350505050565b5f81518060208401855e5f93019283525090919050565b5f61080082856107de565b600160fd1b815261081460018201856107de565b95945050505050565b634e487b7160e01b5f52601160045260245ffd5b818103818111156108445761084461081d565b92915050565b808201808211156108445761084461081d565b6001815b60018411156108985780850481111561087c5761087c61081d565b600184161561088a57908102905b60019390931c928002610861565b935093915050565b5f826108ae57506001610844565b816108ba57505f610844565b81600181146108d057600281146108da576108f6565b6001915050610844565b60ff8411156108eb576108eb61081d565b50506001821b610844565b5060208310610133831016604e8410600b8410161715610919575081810a610844565b6109255f19848461085d565b805f19048211156109385761093861081d565b029392505050565b5f6106f983836108a0565b80820281158282048414176108445761084461081d565b5f600182016109735761097361081d565b506001019056fea164736f6c634300081c000a","linkReferences":{}},"methodIdentifiers":{"eip712Domain()":"84b0196e","isInitialized(address)":"d60b347f","isModuleType(uint256)":"ecd05961","onInstall(bytes)":"6d61fe70","onUninstall(bytes)":"8a91b0e3","supportsNestedTypedDataSign()":"d620c85a"},"id":1}