{"abi":[{"type":"function","name":"checkAction","inputs":[{"name":"id","type":"bytes32","internalType":"ConfigId"},{"name":"account","type":"address","internalType":"address"},{"name":"target","type":"address","internalType":"address"},{"name":"value","type":"uint256","internalType":"uint256"},{"name":"callData","type":"bytes","internalType":"bytes"}],"outputs":[{"name":"","type":"uint256","internalType":"uint256"}],"stateMutability":"nonpayable"},{"type":"function","name":"getPolicyData","inputs":[{"name":"id","type":"bytes32","internalType":"ConfigId"},{"name":"multiplexer","type":"address","internalType":"address"},{"name":"token","type":"address","internalType":"address"},{"name":"userOpSender","type":"address","internalType":"address"}],"outputs":[{"name":"spendingLimit","type":"uint256","internalType":"uint256"},{"name":"alreadySpent","type":"uint256","internalType":"uint256"},{"name":"approvedAmount","type":"uint256","internalType":"uint256"}],"stateMutability":"view"},{"type":"function","name":"initializeWithMultiplexer","inputs":[{"name":"account","type":"address","internalType":"address"},{"name":"configId","type":"bytes32","internalType":"ConfigId"},{"name":"initData","type":"bytes","internalType":"bytes"}],"outputs":[],"stateMutability":"nonpayable"},{"type":"function","name":"supportsInterface","inputs":[{"name":"interfaceID","type":"bytes4","internalType":"bytes4"}],"outputs":[{"name":"","type":"bool","internalType":"bool"}],"stateMutability":"pure"},{"type":"event","name":"PolicySet","inputs":[{"name":"id","type":"bytes32","indexed":false,"internalType":"ConfigId"},{"name":"multiplexer","type":"address","indexed":false,"internalType":"address"},{"name":"account","type":"address","indexed":false,"internalType":"address"}],"anonymous":false},{"type":"event","name":"TokenSpent","inputs":[{"name":"id","type":"bytes32","indexed":false,"internalType":"ConfigId"},{"name":"multiplexer","type":"address","indexed":false,"internalType":"address"},{"name":"token","type":"address","indexed":false,"internalType":"address"},{"name":"account","type":"address","indexed":false,"internalType":"address"},{"name":"amount","type":"uint256","indexed":false,"internalType":"uint256"},{"name":"remaining","type":"uint256","indexed":false,"internalType":"uint256"}],"anonymous":false},{"type":"error","name":"InvalidInitDataLength","inputs":[]},{"type":"error","name":"InvalidLimit","inputs":[{"name":"limit","type":"uint256","internalType":"uint256"}]},{"type":"error","name":"InvalidTokenAddress","inputs":[{"name":"token","type":"address","internalType":"address"}]},{"type":"error","name":"PolicyNotInitialized","inputs":[{"name":"id","type":"bytes32","internalType":"ConfigId"},{"name":"multiplexer","type":"address","internalType":"address"},{"name":"account","type":"address","internalType":"address"}]}],"bytecode":{"object":"0x6080604052348015600e575f5ffd5b50610f028061001c5f395ff3fe608060405234801561000f575f5ffd5b506004361061004a575f3560e01c806301ffc9a71461004e57806305c0089514610076578063989c9e4614610097578063f33fa13a146100ac575b5f5ffd5b61006161005c366004610a8f565b6100da565b60405190151581526020015b60405180910390f35b610089610084366004610b12565b61012b565b60405190815260200161006d565b6100aa6100a5366004610b89565b61030d565b005b6100bf6100ba366004610be1565b6104e6565b6040805193845260208401929092529082015260600161006d565b5f6001600160e01b031982166301ffc9a760e01b148061010a57506001600160e01b03198216634c4e4f2360e11b145b8061012557506001600160e01b031982166305c0089560e01b145b92915050565b5f831561013a57506001610303565b5f5f6101478886866105cf565b915091508161015b57600192505050610303565b5f6101678a8a8a6106f7565b6040805160608101825282548152600183015460208201526002830154918101919091529091505f63095ea7b360e01b6101a46004838a8c610c31565b6101ad91610c58565b6001600160e01b03191614806101e85750633950935160e01b6101d360045f8a8c610c31565b6101dc91610c58565b6001600160e01b031916145b1561023e5783826020018181516101ff9190610ca4565b905250602082015182516102139190610ca4565b9050816040015181111561022f57600195505050505050610303565b60208201516001840155610284565b83825f0181815161024f9190610ca4565b905250602082015182516102639190610ca4565b9050816040015181111561027f57600195505050505050610303565b815183555b7f8c8443cbf8877c7ddfe6d58dd9d439df5da8eb966f6aee4edb64cdb36f6b9c658c338c8e888688604001516102ba9190610cb7565b604080519687526001600160a01b0395861660208801529385169386019390935292166060840152608083019190915260a082015260c00160405180910390a15f955050505050505b9695505050505050565b5f8061031b83850185610d9c565b5f87815260208181526040808320338452909152902081518351939550919350911461035a57604051634c70a78160e01b815260040160405180910390fd5b5f6103658289610764565b905080156103ba575f5b818110156103af575f610383848b84610776565b90505f6103918a8c846106f7565b5f6002820181905580825560019182015592909201915061036f9050565b506103ba828961078a565b5f5b8451811015610494575f8582815181106103d8576103d8610e61565b602002602001015190505f8583815181106103f5576103f5610e61565b602002602001015190505f6001600160a01b0316826001600160a01b03160361044157604051637330680360e01b81526001600160a01b03831660048201526024015b60405180910390fd5b805f036104645760405163337fcce960e21b815260048101829052602401610438565b5f6104708b8d856106f7565b600281018390559050610484868d85610798565b5050600190920191506103bc9050565b50604080518881523360208201526001600160a01b038a168183015290517f5d14f8bf6f75758495bb0b0768b81cdebc7869d1f19edacc2f483ca0c89a17159181900360600190a15050505050505050565b5f80806001600160a01b03851661051b57604051637330680360e01b81526001600160a01b0386166004820152602401610438565b5f878152602081815260408083206001600160a01b038a16845290915290206105459085876107ad565b61056d57604051637330680360e01b81526001600160a01b0386166004820152602401610438565b5050505f9384526001602081815260408087206001600160a01b03968716885282528087209486168752938152838620929094168552908352928190208151606081018352815480825294820154938101849052600290910154910181905292565b5f80806105df6004828688610c31565b6105e891610c58565b905063f6a1584d60e01b6001600160e01b031982160161062c575f6106108560048189610c31565b81019061061d9190610e75565b6001955093506106ef92505050565b63c6af6caf60e01b6001600160e01b0319821601610652575f6106108560048189610c31565b6356fa634560e01b6001600160e01b0319821601610678575f6106108560048189610c31565b63dc478d2360e01b6001600160e01b03198216016106e7575f8061069f866004818a610c31565b8101906106ac9190610e9f565b9250925050876001600160a01b0316826001600160a01b0316036106d95760015f945094505050506106ef565b6001945092506106ef915050565b5f5f92509250505b935093915050565b5f6001600160a01b03821661072a57604051637330680360e01b81526001600160a01b0383166004820152602401610438565b505f92835260016020908152604080852033865282528085206001600160a01b039384168652825280852093909216845291909152902090565b5f61076f83836107dd565b9392505050565b5f6107828484846107e8565b949350505050565b61079482826107f4565b5050565b5f61078284846001600160a01b038516610848565b6001600160a01b038181165f90815260018501602090815260408083209386168352929052908120541515610782565b5f61076f83836108cd565b5f6107828484846108e0565b5f6107ff83836107dd565b905060015b818111610842575f610820858561081b8587610cb7565b6107e8565b905061082d8585836108ec565b5050808061083a90610edd565b915050610804565b50505050565b5f81815260018401602090815260408083206001600160a01b03861684529091528120546108c6575f83815260208590526040902080546001818301810185905501905561089684846108cd565b5f8381526001808701602090815260408084206001600160a01b038916855290915290912091909155905061076f565b505f61076f565b5f8181526020839052604081205461076f565b5f6107828484846109ca565b5f81815260018401602090815260408083206001600160a01b038616845290915281205480156109c1575f610922600183610cb7565b90505f600161093188886108cd565b61093b9190610cb7565b9050808214610985575f6109508888846108e0565b905061095e888885846109e1565b5f90815260018801602090815260408083206001600160a01b038a16845290915290208390555b61098f87876109ed565b5050505f8281526001808601602090815260408084206001600160a01b0388168552909152822091909155905061076f565b5f91505061076f565b5f82815260208490526040812061078290836109f7565b61084284848484610a1a565b6107948282610a32565b5f82548210610a1157638277484f5f52816020526024601cfd5b50016001015490565b5f838152602085905260409020610842908383610a6e565b5f81815260208390526040812080549091819003610a505750505050565b610a6582610a5f600184610cb7565b5f610a6e565b5f190190555050565b82548210610a8757638277484f5f52816020526024601cfd5b910160010155565b5f60208284031215610a9f575f5ffd5b81356001600160e01b03198116811461076f575f5ffd5b6001600160a01b0381168114610aca575f5ffd5b50565b5f5f83601f840112610add575f5ffd5b50813567ffffffffffffffff811115610af4575f5ffd5b602083019150836020828501011115610b0b575f5ffd5b9250929050565b5f5f5f5f5f5f60a08789031215610b27575f5ffd5b863595506020870135610b3981610ab6565b94506040870135610b4981610ab6565b935060608701359250608087013567ffffffffffffffff811115610b6b575f5ffd5b610b7789828a01610acd565b979a9699509497509295939492505050565b5f5f5f5f60608587031215610b9c575f5ffd5b8435610ba781610ab6565b935060208501359250604085013567ffffffffffffffff811115610bc9575f5ffd5b610bd587828801610acd565b95989497509550505050565b5f5f5f5f60808587031215610bf4575f5ffd5b843593506020850135610c0681610ab6565b92506040850135610c1681610ab6565b91506060850135610c2681610ab6565b939692955090935050565b5f5f85851115610c3f575f5ffd5b83861115610c4b575f5ffd5b5050820193919092039150565b80356001600160e01b03198116906004841015610c89576001600160e01b0319600485900360031b81901b82161691505b5092915050565b634e487b7160e01b5f52601160045260245ffd5b8082018082111561012557610125610c90565b8181038181111561012557610125610c90565b634e487b7160e01b5f52604160045260245ffd5b604051601f8201601f1916810167ffffffffffffffff81118282101715610d0757610d07610cca565b604052919050565b5f67ffffffffffffffff821115610d2857610d28610cca565b5060051b60200190565b5f82601f830112610d41575f5ffd5b8135610d54610d4f82610d0f565b610cde565b8082825260208201915060208360051b860101925085831115610d75575f5ffd5b602085015b83811015610d92578035835260209283019201610d7a565b5095945050505050565b5f5f60408385031215610dad575f5ffd5b823567ffffffffffffffff811115610dc3575f5ffd5b8301601f81018513610dd3575f5ffd5b8035610de1610d4f82610d0f565b8082825260208201915060208360051b850101925087831115610e02575f5ffd5b6020840193505b82841015610e2d578335610e1c81610ab6565b825260209384019390910190610e09565b9450505050602083013567ffffffffffffffff811115610e4b575f5ffd5b610e5785828601610d32565b9150509250929050565b634e487b7160e01b5f52603260045260245ffd5b5f5f60408385031215610e86575f5ffd5b8235610e9181610ab6565b946020939093013593505050565b5f5f5f60608486031215610eb1575f5ffd5b8335610ebc81610ab6565b92506020840135610ecc81610ab6565b929592945050506040919091013590565b5f60018201610eee57610eee610c90565b506001019056fea164736f6c634300081c000a","linkReferences":{}},"methodIdentifiers":{"checkAction(bytes32,address,address,uint256,bytes)":"05c00895","getPolicyData(bytes32,address,address,address)":"f33fa13a","initializeWithMultiplexer(address,bytes32,bytes)":"989c9e46","supportsInterface(bytes4)":"01ffc9a7"},"id":1}