{"abi":[{"type":"function","name":"checkAction","inputs":[{"name":"id","type":"bytes32","internalType":"ConfigId"},{"name":"account","type":"address","internalType":"address"},{"name":"target","type":"address","internalType":"address"},{"name":"","type":"uint256","internalType":"uint256"},{"name":"","type":"bytes","internalType":"bytes"}],"outputs":[{"name":"","type":"uint256","internalType":"uint256"}],"stateMutability":"view"},{"type":"function","name":"initializeWithMultiplexer","inputs":[{"name":"account","type":"address","internalType":"address"},{"name":"configId","type":"bytes32","internalType":"ConfigId"},{"name":"initData","type":"bytes","internalType":"bytes"}],"outputs":[],"stateMutability":"nonpayable"},{"type":"function","name":"isContractWhitelisted","inputs":[{"name":"id","type":"bytes32","internalType":"ConfigId"},{"name":"multiplexer","type":"address","internalType":"address"},{"name":"smartAccount","type":"address","internalType":"address"},{"name":"target","type":"address","internalType":"address"}],"outputs":[{"name":"","type":"bool","internalType":"bool"}],"stateMutability":"view"},{"type":"function","name":"supportsInterface","inputs":[{"name":"interfaceID","type":"bytes4","internalType":"bytes4"}],"outputs":[{"name":"","type":"bool","internalType":"bool"}],"stateMutability":"pure"},{"type":"event","name":"PolicySet","inputs":[{"name":"id","type":"bytes32","indexed":false,"internalType":"ConfigId"},{"name":"multiplexer","type":"address","indexed":false,"internalType":"address"},{"name":"account","type":"address","indexed":false,"internalType":"address"}],"anonymous":false},{"type":"error","name":"InvalidInitData","inputs":[]},{"type":"error","name":"PolicyNotInitialized","inputs":[{"name":"id","type":"bytes32","internalType":"ConfigId"},{"name":"multiplexer","type":"address","internalType":"address"},{"name":"account","type":"address","internalType":"address"}]}],"bytecode":{"object":"0x6080604052348015600e575f5ffd5b506107a28061001c5f395ff3fe608060405234801561000f575f5ffd5b506004361061004a575f3560e01c806301ffc9a71461004e57806305c00895146100765780638452c13814610097578063989c9e46146100aa575b5f5ffd5b61006161005c366004610582565b6100bf565b60405190151581526020015b60405180910390f35b610089610084366004610609565b610110565b60405190815260200161006d565b6100616100a536600461067c565b61014b565b6100bd6100b83660046106c6565b61017e565b005b5f6001600160e01b031982166301ffc9a760e01b14806100ef57506001600160e01b03198216634c4e4f2360e11b145b8061010a57506001600160e01b031982166305c0089560e01b145b92915050565b5f868152602081815260408083203384529091528120610131908787610277565b1561013d57505f610141565b5060015b9695505050505050565b5f848152602081815260408083206001600160a01b03871684529091528120610175908484610277565b95945050505050565b5f83815260208181526040808320338452909152902061019e81866102ad565b6101a9601483610730565b1580156101b557508115155b6101d2576040516307ce216360e51b815260040160405180910390fd5b5f6101de601484610757565b90505f5b81811015610227576014810285013560601c80610212576040516307ce216360e51b815260040160405180910390fd5b61021d8489836102bb565b50506001016101e2565b50604080518681523360208201526001600160a01b0388168183015290517f5d14f8bf6f75758495bb0b0768b81cdebc7869d1f19edacc2f483ca0c89a17159181900360600190a1505050505050565b6001600160a01b038181165f908152600185016020908152604080832093861683529290529081205415155b90505b9392505050565b6102b782826102d0565b5050565b5f6102a384846001600160a01b038516610324565b5f6102db83836103a9565b905060015b81811161031e575f6102fc85856102f7858761076a565b6103b4565b90506103098585836103c0565b505080806103169061077d565b9150506102e0565b50505050565b5f81815260018401602090815260408083206001600160a01b03861684529091528120546103a2575f838152602085905260409020805460018183018101859055019055610372848461049e565b5f8381526001808701602090815260408084206001600160a01b03891685529091529091209190915590506102a6565b505f6102a6565b5f6102a6838361049e565b5f6102a38484846104b1565b5f81815260018401602090815260408083206001600160a01b03861684529091528120548015610495575f6103f660018361076a565b90505f6001610405888861049e565b61040f919061076a565b9050808214610459575f6104248888846104b1565b9050610432888885846104bd565b5f90815260018801602090815260408083206001600160a01b038a16845290915290208390555b61046387876104c9565b5050505f8281526001808601602090815260408084206001600160a01b038816855290915282209190915590506102a6565b5f9150506102a6565b5f818152602083905260408120546102a6565b5f6102a38484846104d3565b61031e848484846104ea565b6102b78282610502565b5f8281526020849052604081206102a3908361053e565b5f83815260208590526040902061031e908383610561565b5f818152602083905260408120805490918190036105205750505050565b6105358261052f60018461076a565b5f610561565b5f190190555050565b5f8254821061055857638277484f5f52816020526024601cfd5b50016001015490565b8254821061057a57638277484f5f52816020526024601cfd5b910160010155565b5f60208284031215610592575f5ffd5b81356001600160e01b0319811681146102a6575f5ffd5b80356001600160a01b03811681146105bf575f5ffd5b919050565b5f5f83601f8401126105d4575f5ffd5b50813567ffffffffffffffff8111156105eb575f5ffd5b602083019150836020828501011115610602575f5ffd5b9250929050565b5f5f5f5f5f5f60a0878903121561061e575f5ffd5b8635955061062e602088016105a9565b945061063c604088016105a9565b935060608701359250608087013567ffffffffffffffff81111561065e575f5ffd5b61066a89828a016105c4565b979a9699509497509295939492505050565b5f5f5f5f6080858703121561068f575f5ffd5b8435935061069f602086016105a9565b92506106ad604086016105a9565b91506106bb606086016105a9565b905092959194509250565b5f5f5f5f606085870312156106d9575f5ffd5b6106e2856105a9565b935060208501359250604085013567ffffffffffffffff811115610704575f5ffd5b610710878288016105c4565b95989497509550505050565b634e487b7160e01b5f52601260045260245ffd5b5f8261073e5761073e61071c565b500690565b634e487b7160e01b5f52601160045260245ffd5b5f826107655761076561071c565b500490565b8181038181111561010a5761010a610743565b5f6001820161078e5761078e610743565b506001019056fea164736f6c634300081c000a","linkReferences":{}},"methodIdentifiers":{"checkAction(bytes32,address,address,uint256,bytes)":"05c00895","initializeWithMultiplexer(address,bytes32,bytes)":"989c9e46","isContractWhitelisted(bytes32,address,address,address)":"8452c138","supportsInterface(bytes4)":"01ffc9a7"},"id":1}