{"abi":[{"type":"function","name":"checkAction","inputs":[{"name":"id","type":"bytes32","internalType":"ConfigId"},{"name":"account","type":"address","internalType":"address"},{"name":"target","type":"address","internalType":"address"},{"name":"value","type":"uint256","internalType":"uint256"},{"name":"callData","type":"bytes","internalType":"bytes"}],"outputs":[{"name":"","type":"uint256","internalType":"uint256"}],"stateMutability":"nonpayable"},{"type":"function","name":"initializeWithMultiplexer","inputs":[{"name":"account","type":"address","internalType":"address"},{"name":"configId","type":"bytes32","internalType":"ConfigId"},{"name":"initData","type":"bytes","internalType":"bytes"}],"outputs":[],"stateMutability":"nonpayable"},{"type":"function","name":"supportsInterface","inputs":[{"name":"interfaceID","type":"bytes4","internalType":"bytes4"}],"outputs":[{"name":"","type":"bool","internalType":"bool"}],"stateMutability":"pure"},{"type":"event","name":"PolicySet","inputs":[{"name":"id","type":"bytes32","indexed":false,"internalType":"ConfigId"},{"name":"multiplexer","type":"address","indexed":false,"internalType":"address"},{"name":"account","type":"address","indexed":false,"internalType":"address"}],"anonymous":false},{"type":"event","name":"TokenSpent","inputs":[{"name":"id","type":"bytes32","indexed":false,"internalType":"ConfigId"},{"name":"multiplexer","type":"address","indexed":false,"internalType":"address"},{"name":"token","type":"address","indexed":false,"internalType":"address"},{"name":"account","type":"address","indexed":false,"internalType":"address"},{"name":"amount","type":"uint256","indexed":false,"internalType":"uint256"},{"name":"remaining","type":"uint256","indexed":false,"internalType":"uint256"}],"anonymous":false},{"type":"error","name":"InvalidLimit","inputs":[{"name":"limit","type":"uint256","internalType":"uint256"}]},{"type":"error","name":"InvalidTokenAddress","inputs":[{"name":"token","type":"address","internalType":"address"}]}],"bytecode":{"object":"0x6080604052348015600e575f5ffd5b50610c558061001c5f395ff3fe608060405234801561000f575f5ffd5b506004361061003f575f3560e01c806301ffc9a71461004357806305c008951461006b578063989c9e461461008c575b5f5ffd5b610056610051366004610809565b6100a1565b60405190151581526020015b60405180910390f35b61007e61007936600461088c565b6100f2565b604051908152602001610062565b61009f61009a366004610903565b6101e4565b005b5f6001600160e01b031982166301ffc9a760e01b14806100d157506001600160e01b03198216634c4e4f2360e11b145b806100ec57506001600160e01b031982166305c0089560e01b145b92915050565b5f8315610101575060016101da565b5f5f61010e888686610393565b9150915081610122576001925050506101da565b5f61012e8a8a8a610464565b60018101548154919250905f610144858361096f565b90508281111561015d57600196505050505050506101da565b8084557f8c8443cbf8877c7ddfe6d58dd9d439df5da8eb966f6aee4edb64cdb36f6b9c658d338d8f89610190878a610982565b604080519687526001600160a01b0395861660208801529385169386019390935292166060840152608083019190915260a082015260c00160405180910390a15f96505050505050505b9695505050505050565b5f806101f283850185610a67565b5f87815260208181526040808320338452909152812092945090925061021882896104d1565b90508015610267575f5b8181101561025c575f610236848b846104e3565b90505f6102448a8c84610464565b5f600180830182905591559290920191506102229050565b5061026782896104f7565b5f5b8451811015610341575f85828151811061028557610285610b2c565b602002602001015190505f8583815181106102a2576102a2610b2c565b602002602001015190505f6001600160a01b0316826001600160a01b0316036102ee57604051637330680360e01b81526001600160a01b03831660048201526024015b60405180910390fd5b805f036103115760405163337fcce960e21b8152600481018290526024016102e5565b5f61031d8b8d85610464565b600181018390559050610331868d85610505565b5050600190920191506102699050565b50604080518881523360208201526001600160a01b038a168183015290517f5d14f8bf6f75758495bb0b0768b81cdebc7869d1f19edacc2f483ca0c89a17159181900360600190a15050505050505050565b5f80806103a36004828688610b40565b6103ac91610b67565b905063f6a1584d60e01b6001600160e01b03198216016103ee576103d38460048188610b40565b8101906103e09190610b9f565b60019450925061045c915050565b6356fa634560e01b6001600160e01b0319821601610413576103d38460048188610b40565b63dc478d2360e01b6001600160e01b0319821601610454576104388460048188610b40565b8101906104459190610bc9565b60019550935061045c92505050565b5f5f92509250505b935093915050565b5f6001600160a01b03821661049757604051637330680360e01b81526001600160a01b03831660048201526024016102e5565b505f92835260016020908152604080852033865282528085206001600160a01b039384168652825280852093909216845291909152902090565b5f6104dc838361051a565b9392505050565b5f6104ef848484610525565b949350505050565b6105018282610531565b5050565b5f6104ef84846001600160a01b038516610585565b5f6104dc83836105f9565b5f6104ef84848461060c565b5f61053c838361051a565b905060015b81811161057f575f61055d85856105588587610982565b610525565b905061056a858583610618565b5050808061057790610c07565b915050610541565b50505050565b5f81815260018401602090815260408083206001600160a01b03861684529091528120546105f2576105b88484846106f6565b6105c284846105f9565b5f8381526001808701602090815260408084206001600160a01b03891685529091529091209190915590506104dc565b505f6104dc565b5f818152602083905260408120546104dc565b5f6104ef848484610706565b5f81815260018401602090815260408083206001600160a01b038616845290915281205480156106ed575f61064e600183610982565b90505f600161065d88886105f9565b6106679190610982565b90508082146106b1575f61067c88888461060c565b905061068a8888858461071d565b5f90815260018801602090815260408083206001600160a01b038a16845290915290208390555b6106bb8787610729565b5050505f8281526001808601602090815260408084206001600160a01b038816855290915282209190915590506104dc565b5f9150506104dc565b610701838383610733565b505050565b5f8281526020849052604081206104ef9083610771565b61057f84848484610794565b61050182826107ac565b5f8281526020849052604090208054607f81111561075c57638277484f5f52806020526024601cfd5b82600182018301556001810182555050505050565b5f8254821061078b57638277484f5f52816020526024601cfd5b50016001015490565b5f83815260208590526040902061057f9083836107e8565b5f818152602083905260408120805490918190036107ca5750505050565b6107df826107d9600184610982565b5f6107e8565b5f190190555050565b8254821061080157638277484f5f52816020526024601cfd5b910160010155565b5f60208284031215610819575f5ffd5b81356001600160e01b0319811681146104dc575f5ffd5b6001600160a01b0381168114610844575f5ffd5b50565b5f5f83601f840112610857575f5ffd5b50813567ffffffffffffffff81111561086e575f5ffd5b602083019150836020828501011115610885575f5ffd5b9250929050565b5f5f5f5f5f5f60a087890312156108a1575f5ffd5b8635955060208701356108b381610830565b945060408701356108c381610830565b935060608701359250608087013567ffffffffffffffff8111156108e5575f5ffd5b6108f189828a01610847565b979a9699509497509295939492505050565b5f5f5f5f60608587031215610916575f5ffd5b843561092181610830565b935060208501359250604085013567ffffffffffffffff811115610943575f5ffd5b61094f87828801610847565b95989497509550505050565b634e487b7160e01b5f52601160045260245ffd5b808201808211156100ec576100ec61095b565b818103818111156100ec576100ec61095b565b634e487b7160e01b5f52604160045260245ffd5b604051601f8201601f1916810167ffffffffffffffff811182821017156109d2576109d2610995565b604052919050565b5f67ffffffffffffffff8211156109f3576109f3610995565b5060051b60200190565b5f82601f830112610a0c575f5ffd5b8135610a1f610a1a826109da565b6109a9565b8082825260208201915060208360051b860101925085831115610a40575f5ffd5b602085015b83811015610a5d578035835260209283019201610a45565b5095945050505050565b5f5f60408385031215610a78575f5ffd5b823567ffffffffffffffff811115610a8e575f5ffd5b8301601f81018513610a9e575f5ffd5b8035610aac610a1a826109da565b8082825260208201915060208360051b850101925087831115610acd575f5ffd5b6020840193505b82841015610af8578335610ae781610830565b825260209384019390910190610ad4565b9450505050602083013567ffffffffffffffff811115610b16575f5ffd5b610b22858286016109fd565b9150509250929050565b634e487b7160e01b5f52603260045260245ffd5b5f5f85851115610b4e575f5ffd5b83861115610b5a575f5ffd5b5050820193919092039150565b80356001600160e01b03198116906004841015610b98576001600160e01b0319600485900360031b81901b82161691505b5092915050565b5f5f60408385031215610bb0575f5ffd5b8235610bbb81610830565b946020939093013593505050565b5f5f5f60608486031215610bdb575f5ffd5b8335610be681610830565b92506020840135610bf681610830565b929592945050506040919091013590565b5f60018201610c1857610c1861095b565b506001019056fea264697066735822122064df2542148553cc587a947656c3cf41ab5795d9e29f4772e18bc508cba39ede64736f6c634300081b0033","linkReferences":{}},"methodIdentifiers":{"checkAction(bytes32,address,address,uint256,bytes)":"05c00895","initializeWithMultiplexer(address,bytes32,bytes)":"989c9e46","supportsInterface(bytes4)":"01ffc9a7"},"id":7}