{"abi":[{"type":"function","name":"areActionsEnabled","inputs":[{"name":"account","type":"address","internalType":"address"},{"name":"permissionId","type":"bytes32","internalType":"PermissionId"},{"name":"actions","type":"tuple[]","internalType":"struct ActionData[]","components":[{"name":"actionTargetSelector","type":"bytes4","internalType":"bytes4"},{"name":"actionTarget","type":"address","internalType":"address"},{"name":"actionPolicies","type":"tuple[]","internalType":"struct PolicyData[]","components":[{"name":"policy","type":"address","internalType":"address"},{"name":"initData","type":"bytes","internalType":"bytes"}]}]}],"outputs":[{"name":"","type":"bool","internalType":"bool"}],"stateMutability":"view"},{"type":"function","name":"areERC1271PoliciesEnabled","inputs":[{"name":"account","type":"address","internalType":"address"},{"name":"permissionId","type":"bytes32","internalType":"PermissionId"},{"name":"erc1271Policies","type":"tuple[]","internalType":"struct PolicyData[]","components":[{"name":"policy","type":"address","internalType":"address"},{"name":"initData","type":"bytes","internalType":"bytes"}]}],"outputs":[{"name":"","type":"bool","internalType":"bool"}],"stateMutability":"view"},{"type":"function","name":"areUserOpPoliciesEnabled","inputs":[{"name":"account","type":"address","internalType":"address"},{"name":"permissionId","type":"bytes32","internalType":"PermissionId"},{"name":"userOpPolicies","type":"tuple[]","internalType":"struct PolicyData[]","components":[{"name":"policy","type":"address","internalType":"address"},{"name":"initData","type":"bytes","internalType":"bytes"}]}],"outputs":[{"name":"","type":"bool","internalType":"bool"}],"stateMutability":"view"},{"type":"function","name":"disableActionId","inputs":[{"name":"permissionId","type":"bytes32","internalType":"PermissionId"},{"name":"actionId","type":"bytes32","internalType":"ActionId"}],"outputs":[],"stateMutability":"nonpayable"},{"type":"function","name":"disableActionPolicies","inputs":[{"name":"permissionId","type":"bytes32","internalType":"PermissionId"},{"name":"actionId","type":"bytes32","internalType":"ActionId"},{"name":"policies","type":"address[]","internalType":"address[]"}],"outputs":[],"stateMutability":"nonpayable"},{"type":"function","name":"disableERC1271Policies","inputs":[{"name":"permissionId","type":"bytes32","internalType":"PermissionId"},{"name":"policies","type":"address[]","internalType":"address[]"},{"name":"contexts","type":"tuple[]","internalType":"struct ERC7739Context[]","components":[{"name":"appDomainSeparator","type":"bytes32","internalType":"bytes32"},{"name":"contentNames","type":"string[]","internalType":"string[]"}]}],"outputs":[],"stateMutability":"nonpayable"},{"type":"function","name":"disableUserOpPolicies","inputs":[{"name":"permissionId","type":"bytes32","internalType":"PermissionId"},{"name":"policies","type":"address[]","internalType":"address[]"}],"outputs":[],"stateMutability":"nonpayable"},{"type":"function","name":"enableActionPolicies","inputs":[{"name":"permissionId","type":"bytes32","internalType":"PermissionId"},{"name":"actionPolicies","type":"tuple[]","internalType":"struct ActionData[]","components":[{"name":"actionTargetSelector","type":"bytes4","internalType":"bytes4"},{"name":"actionTarget","type":"address","internalType":"address"},{"name":"actionPolicies","type":"tuple[]","internalType":"struct PolicyData[]","components":[{"name":"policy","type":"address","internalType":"address"},{"name":"initData","type":"bytes","internalType":"bytes"}]}]}],"outputs":[],"stateMutability":"nonpayable"},{"type":"function","name":"enableERC1271Policies","inputs":[{"name":"permissionId","type":"bytes32","internalType":"PermissionId"},{"name":"erc1271Policies","type":"tuple","internalType":"struct ERC7739Data","components":[{"name":"allowedERC7739Content","type":"tuple[]","internalType":"struct ERC7739Context[]","components":[{"name":"appDomainSeparator","type":"bytes32","internalType":"bytes32"},{"name":"contentNames","type":"string[]","internalType":"string[]"}]},{"name":"erc1271Policies","type":"tuple[]","internalType":"struct PolicyData[]","components":[{"name":"policy","type":"address","internalType":"address"},{"name":"initData","type":"bytes","internalType":"bytes"}]}]}],"outputs":[],"stateMutability":"nonpayable"},{"type":"function","name":"enableSessions","inputs":[{"name":"sessions","type":"tuple[]","internalType":"struct Session[]","components":[{"name":"sessionValidator","type":"address","internalType":"contract ISessionValidator"},{"name":"sessionValidatorInitData","type":"bytes","internalType":"bytes"},{"name":"salt","type":"bytes32","internalType":"bytes32"},{"name":"userOpPolicies","type":"tuple[]","internalType":"struct PolicyData[]","components":[{"name":"policy","type":"address","internalType":"address"},{"name":"initData","type":"bytes","internalType":"bytes"}]},{"name":"erc7739Policies","type":"tuple","internalType":"struct ERC7739Data","components":[{"name":"allowedERC7739Content","type":"tuple[]","internalType":"struct ERC7739Context[]","components":[{"name":"appDomainSeparator","type":"bytes32","internalType":"bytes32"},{"name":"contentNames","type":"string[]","internalType":"string[]"}]},{"name":"erc1271Policies","type":"tuple[]","internalType":"struct PolicyData[]","components":[{"name":"policy","type":"address","internalType":"address"},{"name":"initData","type":"bytes","internalType":"bytes"}]}]},{"name":"actions","type":"tuple[]","internalType":"struct ActionData[]","components":[{"name":"actionTargetSelector","type":"bytes4","internalType":"bytes4"},{"name":"actionTarget","type":"address","internalType":"address"},{"name":"actionPolicies","type":"tuple[]","internalType":"struct PolicyData[]","components":[{"name":"policy","type":"address","internalType":"address"},{"name":"initData","type":"bytes","internalType":"bytes"}]}]},{"name":"permitERC4337Paymaster","type":"bool","internalType":"bool"}]}],"outputs":[{"name":"permissionIds","type":"bytes32[]","internalType":"PermissionId[]"}],"stateMutability":"nonpayable"},{"type":"function","name":"enableUserOpPolicies","inputs":[{"name":"permissionId","type":"bytes32","internalType":"PermissionId"},{"name":"userOpPolicies","type":"tuple[]","internalType":"struct PolicyData[]","components":[{"name":"policy","type":"address","internalType":"address"},{"name":"initData","type":"bytes","internalType":"bytes"}]}],"outputs":[],"stateMutability":"nonpayable"},{"type":"function","name":"getActionPolicies","inputs":[{"name":"account","type":"address","internalType":"address"},{"name":"permissionId","type":"bytes32","internalType":"PermissionId"},{"name":"actionId","type":"bytes32","internalType":"ActionId"}],"outputs":[{"name":"","type":"address[]","internalType":"address[]"}],"stateMutability":"view"},{"type":"function","name":"getERC1271Policies","inputs":[{"name":"account","type":"address","internalType":"address"},{"name":"permissionId","type":"bytes32","internalType":"PermissionId"}],"outputs":[{"name":"","type":"address[]","internalType":"address[]"}],"stateMutability":"view"},{"type":"function","name":"getEnabledActions","inputs":[{"name":"account","type":"address","internalType":"address"},{"name":"permissionId","type":"bytes32","internalType":"PermissionId"}],"outputs":[{"name":"","type":"bytes32[]","internalType":"bytes32[]"}],"stateMutability":"view"},{"type":"function","name":"getEnabledERC7739Content","inputs":[{"name":"account","type":"address","internalType":"address"},{"name":"permissionId","type":"bytes32","internalType":"PermissionId"}],"outputs":[{"name":"enabledERC7739ContentHashes","type":"tuple[]","internalType":"struct ERC7739ContextHashes[]","components":[{"name":"appDomainSeparator","type":"bytes32","internalType":"bytes32"},{"name":"contentNameHashes","type":"bytes32[]","internalType":"bytes32[]"}]}],"stateMutability":"view"},{"type":"function","name":"getNonce","inputs":[{"name":"permissionId","type":"bytes32","internalType":"PermissionId"},{"name":"account","type":"address","internalType":"address"}],"outputs":[{"name":"","type":"uint256","internalType":"uint256"}],"stateMutability":"view"},{"type":"function","name":"getPermissionIDs","inputs":[{"name":"account","type":"address","internalType":"address"}],"outputs":[{"name":"permissionIds","type":"bytes32[]","internalType":"PermissionId[]"}],"stateMutability":"view"},{"type":"function","name":"getPermissionId","inputs":[{"name":"session","type":"tuple","internalType":"struct Session","components":[{"name":"sessionValidator","type":"address","internalType":"contract ISessionValidator"},{"name":"sessionValidatorInitData","type":"bytes","internalType":"bytes"},{"name":"salt","type":"bytes32","internalType":"bytes32"},{"name":"userOpPolicies","type":"tuple[]","internalType":"struct PolicyData[]","components":[{"name":"policy","type":"address","internalType":"address"},{"name":"initData","type":"bytes","internalType":"bytes"}]},{"name":"erc7739Policies","type":"tuple","internalType":"struct ERC7739Data","components":[{"name":"allowedERC7739Content","type":"tuple[]","internalType":"struct ERC7739Context[]","components":[{"name":"appDomainSeparator","type":"bytes32","internalType":"bytes32"},{"name":"contentNames","type":"string[]","internalType":"string[]"}]},{"name":"erc1271Policies","type":"tuple[]","internalType":"struct PolicyData[]","components":[{"name":"policy","type":"address","internalType":"address"},{"name":"initData","type":"bytes","internalType":"bytes"}]}]},{"name":"actions","type":"tuple[]","internalType":"struct ActionData[]","components":[{"name":"actionTargetSelector","type":"bytes4","internalType":"bytes4"},{"name":"actionTarget","type":"address","internalType":"address"},{"name":"actionPolicies","type":"tuple[]","internalType":"struct PolicyData[]","components":[{"name":"policy","type":"address","internalType":"address"},{"name":"initData","type":"bytes","internalType":"bytes"}]}]},{"name":"permitERC4337Paymaster","type":"bool","internalType":"bool"}]}],"outputs":[{"name":"permissionId","type":"bytes32","internalType":"PermissionId"}],"stateMutability":"pure"},{"type":"function","name":"getSessionDigest","inputs":[{"name":"permissionId","type":"bytes32","internalType":"PermissionId"},{"name":"account","type":"address","internalType":"address"},{"name":"data","type":"tuple","internalType":"struct Session","components":[{"name":"sessionValidator","type":"address","internalType":"contract ISessionValidator"},{"name":"sessionValidatorInitData","type":"bytes","internalType":"bytes"},{"name":"salt","type":"bytes32","internalType":"bytes32"},{"name":"userOpPolicies","type":"tuple[]","internalType":"struct PolicyData[]","components":[{"name":"policy","type":"address","internalType":"address"},{"name":"initData","type":"bytes","internalType":"bytes"}]},{"name":"erc7739Policies","type":"tuple","internalType":"struct ERC7739Data","components":[{"name":"allowedERC7739Content","type":"tuple[]","internalType":"struct ERC7739Context[]","components":[{"name":"appDomainSeparator","type":"bytes32","internalType":"bytes32"},{"name":"contentNames","type":"string[]","internalType":"string[]"}]},{"name":"erc1271Policies","type":"tuple[]","internalType":"struct PolicyData[]","components":[{"name":"policy","type":"address","internalType":"address"},{"name":"initData","type":"bytes","internalType":"bytes"}]}]},{"name":"actions","type":"tuple[]","internalType":"struct ActionData[]","components":[{"name":"actionTargetSelector","type":"bytes4","internalType":"bytes4"},{"name":"actionTarget","type":"address","internalType":"address"},{"name":"actionPolicies","type":"tuple[]","internalType":"struct PolicyData[]","components":[{"name":"policy","type":"address","internalType":"address"},{"name":"initData","type":"bytes","internalType":"bytes"}]}]},{"name":"permitERC4337Paymaster","type":"bool","internalType":"bool"}]},{"name":"mode","type":"uint8","internalType":"enum SmartSessionMode"}],"outputs":[{"name":"","type":"bytes32","internalType":"bytes32"}],"stateMutability":"view"},{"type":"function","name":"getSessionValidatorAndConfig","inputs":[{"name":"account","type":"address","internalType":"address"},{"name":"permissionId","type":"bytes32","internalType":"PermissionId"}],"outputs":[{"name":"sessionValidator","type":"address","internalType":"address"},{"name":"sessionValidatorData","type":"bytes","internalType":"bytes"}],"stateMutability":"view"},{"type":"function","name":"getUserOpPolicies","inputs":[{"name":"account","type":"address","internalType":"address"},{"name":"permissionId","type":"bytes32","internalType":"PermissionId"}],"outputs":[{"name":"","type":"address[]","internalType":"address[]"}],"stateMutability":"view"},{"type":"function","name":"isActionIdEnabled","inputs":[{"name":"account","type":"address","internalType":"address"},{"name":"permissionId","type":"bytes32","internalType":"PermissionId"},{"name":"actionId","type":"bytes32","internalType":"ActionId"}],"outputs":[{"name":"","type":"bool","internalType":"bool"}],"stateMutability":"view"},{"type":"function","name":"isActionPolicyEnabled","inputs":[{"name":"account","type":"address","internalType":"address"},{"name":"permissionId","type":"bytes32","internalType":"PermissionId"},{"name":"actionId","type":"bytes32","internalType":"ActionId"},{"name":"policy","type":"address","internalType":"address"}],"outputs":[{"name":"","type":"bool","internalType":"bool"}],"stateMutability":"view"},{"type":"function","name":"isERC1271PolicyEnabled","inputs":[{"name":"account","type":"address","internalType":"address"},{"name":"permissionId","type":"bytes32","internalType":"PermissionId"},{"name":"policy","type":"address","internalType":"address"}],"outputs":[{"name":"","type":"bool","internalType":"bool"}],"stateMutability":"view"},{"type":"function","name":"isERC7739ContentEnabled","inputs":[{"name":"account","type":"address","internalType":"address"},{"name":"permissionId","type":"bytes32","internalType":"PermissionId"},{"name":"appDomainSeparator","type":"bytes32","internalType":"bytes32"},{"name":"content","type":"string","internalType":"string"}],"outputs":[{"name":"","type":"bool","internalType":"bool"}],"stateMutability":"view"},{"type":"function","name":"isISessionValidatorSet","inputs":[{"name":"permissionId","type":"bytes32","internalType":"PermissionId"},{"name":"account","type":"address","internalType":"address"}],"outputs":[{"name":"","type":"bool","internalType":"bool"}],"stateMutability":"view"},{"type":"function","name":"isInitialized","inputs":[{"name":"smartAccount","type":"address","internalType":"address"}],"outputs":[{"name":"","type":"bool","internalType":"bool"}],"stateMutability":"view"},{"type":"function","name":"isModuleType","inputs":[{"name":"typeID","type":"uint256","internalType":"uint256"}],"outputs":[{"name":"","type":"bool","internalType":"bool"}],"stateMutability":"pure"},{"type":"function","name":"isPermissionEnabled","inputs":[{"name":"permissionId","type":"bytes32","internalType":"PermissionId"},{"name":"account","type":"address","internalType":"address"}],"outputs":[{"name":"","type":"bool","internalType":"bool"}],"stateMutability":"view"},{"type":"function","name":"isUserOpPolicyEnabled","inputs":[{"name":"account","type":"address","internalType":"address"},{"name":"permissionId","type":"bytes32","internalType":"PermissionId"},{"name":"policy","type":"address","internalType":"address"}],"outputs":[{"name":"","type":"bool","internalType":"bool"}],"stateMutability":"view"},{"type":"function","name":"isValidSignatureWithSender","inputs":[{"name":"sender","type":"address","internalType":"address"},{"name":"hash","type":"bytes32","internalType":"bytes32"},{"name":"signature","type":"bytes","internalType":"bytes"}],"outputs":[{"name":"result","type":"bytes4","internalType":"bytes4"}],"stateMutability":"view"},{"type":"function","name":"onInstall","inputs":[{"name":"data","type":"bytes","internalType":"bytes"}],"outputs":[],"stateMutability":"nonpayable"},{"type":"function","name":"onUninstall","inputs":[{"name":"","type":"bytes","internalType":"bytes"}],"outputs":[],"stateMutability":"nonpayable"},{"type":"function","name":"removeSession","inputs":[{"name":"permissionId","type":"bytes32","internalType":"PermissionId"}],"outputs":[],"stateMutability":"nonpayable"},{"type":"function","name":"revokeEnableSignature","inputs":[{"name":"permissionId","type":"bytes32","internalType":"PermissionId"}],"outputs":[],"stateMutability":"nonpayable"},{"type":"function","name":"setPermit4337Paymaster","inputs":[{"name":"permissionId","type":"bytes32","internalType":"PermissionId"},{"name":"enabled","type":"bool","internalType":"bool"}],"outputs":[],"stateMutability":"nonpayable"},{"type":"function","name":"validateUserOp","inputs":[{"name":"userOp","type":"tuple","internalType":"struct PackedUserOperation","components":[{"name":"sender","type":"address","internalType":"address"},{"name":"nonce","type":"uint256","internalType":"uint256"},{"name":"initCode","type":"bytes","internalType":"bytes"},{"name":"callData","type":"bytes","internalType":"bytes"},{"name":"accountGasLimits","type":"bytes32","internalType":"bytes32"},{"name":"preVerificationGas","type":"uint256","internalType":"uint256"},{"name":"gasFees","type":"bytes32","internalType":"bytes32"},{"name":"paymasterAndData","type":"bytes","internalType":"bytes"},{"name":"signature","type":"bytes","internalType":"bytes"}]},{"name":"userOpHash","type":"bytes32","internalType":"bytes32"}],"outputs":[{"name":"vd","type":"uint256","internalType":"ValidationData"}],"stateMutability":"nonpayable"},{"type":"event","name":"ActionIdDisabled","inputs":[{"name":"permissionId","type":"bytes32","indexed":false,"internalType":"PermissionId"},{"name":"actionId","type":"bytes32","indexed":false,"internalType":"ActionId"},{"name":"smartAccount","type":"address","indexed":false,"internalType":"address"}],"anonymous":false},{"type":"event","name":"NonceIterated","inputs":[{"name":"permissionId","type":"bytes32","indexed":false,"internalType":"PermissionId"},{"name":"account","type":"address","indexed":false,"internalType":"address"},{"name":"newValue","type":"uint256","indexed":false,"internalType":"uint256"}],"anonymous":false},{"type":"event","name":"PermissionIdPermit4337Paymaster","inputs":[{"name":"permissionId","type":"bytes32","indexed":false,"internalType":"PermissionId"},{"name":"smartAccount","type":"address","indexed":false,"internalType":"address"},{"name":"enabled","type":"bool","indexed":false,"internalType":"bool"}],"anonymous":false},{"type":"event","name":"PolicyDisabled","inputs":[{"name":"permissionId","type":"bytes32","indexed":false,"internalType":"PermissionId"},{"name":"policyType","type":"uint8","indexed":false,"internalType":"enum PolicyType"},{"name":"policy","type":"address","indexed":false,"internalType":"address"},{"name":"smartAccount","type":"address","indexed":false,"internalType":"address"}],"anonymous":false},{"type":"event","name":"PolicyEnabled","inputs":[{"name":"permissionId","type":"bytes32","indexed":false,"internalType":"PermissionId"},{"name":"policyType","type":"uint8","indexed":false,"internalType":"enum PolicyType"},{"name":"policy","type":"address","indexed":false,"internalType":"address"},{"name":"smartAccount","type":"address","indexed":false,"internalType":"address"}],"anonymous":false},{"type":"event","name":"SessionCreated","inputs":[{"name":"permissionId","type":"bytes32","indexed":false,"internalType":"PermissionId"},{"name":"account","type":"address","indexed":false,"internalType":"address"}],"anonymous":false},{"type":"event","name":"SessionRemoved","inputs":[{"name":"permissionId","type":"bytes32","indexed":false,"internalType":"PermissionId"},{"name":"smartAccount","type":"address","indexed":false,"internalType":"address"}],"anonymous":false},{"type":"event","name":"SessionValidatorDisabled","inputs":[{"name":"permissionId","type":"bytes32","indexed":false,"internalType":"PermissionId"},{"name":"sessionValidator","type":"address","indexed":false,"internalType":"address"},{"name":"smartAccount","type":"address","indexed":false,"internalType":"address"}],"anonymous":false},{"type":"event","name":"SessionValidatorEnabled","inputs":[{"name":"permissionId","type":"bytes32","indexed":false,"internalType":"PermissionId"},{"name":"sessionValidator","type":"address","indexed":false,"internalType":"address"},{"name":"smartAccount","type":"address","indexed":false,"internalType":"address"}],"anonymous":false},{"type":"error","name":"AssociatedArray_OutOfBounds","inputs":[{"name":"index","type":"uint256","internalType":"uint256"}]},{"type":"error","name":"ChainIdMismatch","inputs":[{"name":"providedChainId","type":"uint64","internalType":"uint64"}]},{"type":"error","name":"ChainIdMismatch","inputs":[{"name":"providedChainId","type":"uint64","internalType":"uint64"}]},{"type":"error","name":"ForbiddenValidationData","inputs":[]},{"type":"error","name":"HashIndexOutOfBounds","inputs":[{"name":"index","type":"uint256","internalType":"uint256"}]},{"type":"error","name":"HashMismatch","inputs":[{"name":"providedHash","type":"bytes32","internalType":"bytes32"},{"name":"computedHash","type":"bytes32","internalType":"bytes32"}]},{"type":"error","name":"HashMismatch","inputs":[{"name":"providedHash","type":"bytes32","internalType":"bytes32"},{"name":"computedHash","type":"bytes32","internalType":"bytes32"}]},{"type":"error","name":"InvalidActionId","inputs":[]},{"type":"error","name":"InvalidCallTarget","inputs":[]},{"type":"error","name":"InvalidData","inputs":[]},{"type":"error","name":"InvalidEnableSignature","inputs":[{"name":"account","type":"address","internalType":"address"},{"name":"hash","type":"bytes32","internalType":"bytes32"}]},{"type":"error","name":"InvalidISessionValidator","inputs":[{"name":"sessionValidator","type":"address","internalType":"contract ISessionValidator"}]},{"type":"error","name":"InvalidMode","inputs":[]},{"type":"error","name":"InvalidPermissionId","inputs":[{"name":"permissionId","type":"bytes32","internalType":"PermissionId"}]},{"type":"error","name":"InvalidSelfCall","inputs":[]},{"type":"error","name":"InvalidSession","inputs":[{"name":"permissionId","type":"bytes32","internalType":"PermissionId"}]},{"type":"error","name":"InvalidSessionKeySignature","inputs":[{"name":"permissionId","type":"bytes32","internalType":"PermissionId"},{"name":"sessionValidator","type":"address","internalType":"address"},{"name":"account","type":"address","internalType":"address"},{"name":"userOpHash","type":"bytes32","internalType":"bytes32"}]},{"type":"error","name":"InvalidTarget","inputs":[]},{"type":"error","name":"InvalidUserOpSender","inputs":[{"name":"sender","type":"address","internalType":"address"}]},{"type":"error","name":"NoExecutionsInBatch","inputs":[]},{"type":"error","name":"NoPoliciesSet","inputs":[{"name":"permissionId","type":"bytes32","internalType":"PermissionId"}]},{"type":"error","name":"PartlyEnabledActions","inputs":[]},{"type":"error","name":"PartlyEnabledPolicies","inputs":[]},{"type":"error","name":"PaymasterValidationNotEnabled","inputs":[{"name":"permissionId","type":"bytes32","internalType":"PermissionId"}]},{"type":"error","name":"PolicyViolation","inputs":[{"name":"permissionId","type":"bytes32","internalType":"PermissionId"},{"name":"policy","type":"address","internalType":"address"}]},{"type":"error","name":"SignerNotFound","inputs":[{"name":"permissionId","type":"bytes32","internalType":"PermissionId"},{"name":"account","type":"address","internalType":"address"}]},{"type":"error","name":"SignerNotFound","inputs":[{"name":"permissionId","type":"bytes32","internalType":"PermissionId"},{"name":"account","type":"address","internalType":"address"}]},{"type":"error","name":"SmartSessionModuleAlreadyInstalled","inputs":[{"name":"account","type":"address","internalType":"address"}]},{"type":"error","name":"UnsupportedCallType","inputs":[{"name":"callType","type":"bytes1","internalType":"CallType"}]},{"type":"error","name":"UnsupportedExecutionType","inputs":[]},{"type":"error","name":"UnsupportedPolicy","inputs":[{"name":"policy","type":"address","internalType":"address"}]},{"type":"error","name":"UnsupportedSmartSessionMode","inputs":[{"name":"mode","type":"uint8","internalType":"enum SmartSessionMode"}]}],"bytecode":{"object":"0x6080604052348015600e575f5ffd5b50615d478061001c5f395ff3fe608060405234801561000f575f5ffd5b5060043610610269575f3560e01c806396e7296211610157578063d0e6f608116100d2578063f5297b7711610088578063f77a7eac1161006e578063f77a7eac14610594578063f867b08e146105a7578063f9b80369146105ba575f5ffd5b8063f5297b7714610555578063f551e2ee14610568575f5ffd5b8063d60b347f116100b8578063d60b347f1461051b578063eab256671461052e578063ecd0596114610541575f5ffd5b8063d0e6f608146104e8578063d527ed6e14610508575f5ffd5b8063a9fa4b4411610127578063af29e6b21161010d578063af29e6b2146104af578063c9a5ec39146104c2578063d056b06d146104d5575f5ffd5b8063a9fa4b441461047c578063adbc532f1461049c575f5ffd5b806396e72962146104305780639700320314610443578063a67c714e14610456578063a7ef620514610469575f5ffd5b806344d1628c116101e75780636d61fe70116101b75780637373f1811161019d5780637373f181146103d7578063795f9269146103ea5780638a91b0e31461041d575f5ffd5b80636d61fe70146103b15780636e79eee0146103c4575f5ffd5b806344d1628c1461034a578063454c9d821461036a578063496c8a911461037d5780634e33ad2e1461039e575f5ffd5b80631be1fffb1161023c5780632445e73e116102225780632445e73e146103115780632dadb5e9146103245780632e644d8d14610337575f5ffd5b80631be1fffb146102de57806321712407146102f1575f5ffd5b806302a1a4cd1461026d57806305defba61461028257806309e5aef8146102a85780631097109e146102cb575b5f5ffd5b61028061027b3660046142af565b6105cd565b005b61029561029036600461483b565b610639565b6040519081526020015b60405180910390f35b6102bb6102b636600461497c565b610671565b604051901515815260200161029f565b6102bb6102d93660046149c3565b61069d565b6102956102ec366004614a1a565b6106ac565b6103046102ff366004614a50565b6106bc565b60405161029f9190614a8e565b6102bb61031f3660046149c3565b6106d1565b6102bb6103323660046149c3565b6106e0565b610280610345366004614ad0565b6106ef565b61035d610358366004614afe565b610708565b60405161029f9190614b28565b610280610378366004614b68565b610722565b61039061038b366004614afe565b61075e565b60405161029f929190614bcf565b6102806103ac366004614bf0565b61079f565b6102806103bf366004614c66565b6107b8565b6102806103d2366004614c98565b610893565b6103046103e5366004614cce565b610943565b6102956103f8366004614ce9565b5f918252602082815260408084206001600160a01b0393909316845291905290205490565b61028061042b366004614c66565b610951565b61028061043e366004614d0c565b610990565b610295610451366004614d2c565b610a1b565b61035d610464366004614afe565b610b68565b6102bb610477366004614d64565b610b82565b61048f61048a366004614afe565b610b9a565b60405161029f9190614ddd565b6102bb6104aa366004614ce9565b610bb4565b6102bb6104bd366004614def565b610bc1565b6102bb6104d0366004614ce9565b610bd9565b6102806104e3366004614e21565b610c03565b6104fb6104f6366004614afe565b610c1e565b60405161029f9190614e68565b61035d610516366004614def565b610d5e565b6102bb610529366004614cce565b610d83565b6102bb61053c366004614ee2565b610d97565b6102bb61054f366004614f40565b60011490565b610280610563366004614f57565b610dca565b61057b610576366004614f95565b610e29565b6040516001600160e01b0319909116815260200161029f565b6102bb6105a2366004614d64565b610eaa565b6102806105b5366004614f40565b610ec2565b6102806105c8366004614f40565b611016565b846105d9600582611090565b6105e5600533886110bb565b61060a576040516324b5a7e760e21b8152600481018790526024015b60405180910390fd5b6106216106178385614fe0565b60079088336110e6565b61063160026003338989896111ff565b505050505050565b5f848152602081815260408083206001600160a01b0387168452909152812054610665848685846112a3565b9150505b949350505050565b5f82815260036020908152604080832086845290915281206106949086846112b1565b95945050505050565b5f6106946002858786866112e1565b5f6106b68261136d565b92915050565b60606106ca838360016113bd565b9392505050565b5f6106946001858786866112e1565b5f61069460038587868661164c565b6106fa600583611090565b610704828261170f565b5050565b5f8181526001602052604090206060906106ca9084611775565b8161072e600582611090565b61074e60018461074281611782565b611782565b6001929190865f61178d565b610759600582611090565b505050565b5f8181526009602090815260408083206001600160a01b038087168552925290912080549091169060609061079560018201611915565b9150509250929050565b816107ab600582611090565b61074e600384845f611920565b6107c3600533611a2e565b156107e35760405163bcf00e1d60e01b8152336004820152602401610601565b5f8190036107ef575050565b5f6107fd6001828486614fec565b61080691615013565b60f81c600281111561081a5761081a61504b565b90506108368160028111156108315761083161504b565b611a39565b6108535760405163a0042b1760e01b815260040160405180910390fd5b6108608260018186614fec565b909350915082358301602081019035610631828261088e8660028111156108895761088961504b565b505f90565b6113bd565b8361089f600582611090565b5f8481526003602052604090206108bb906002338887876111ff565b5f84815260036020908152604080832088845290915290206108dd9033611a2e565b5f0361093c575f8581526004602052604090206108fb903386611a71565b506040805186815260208101869052338183015290517ffb5966a10bbfa837a7964784b0eb92d624218037b24ae5d1aeae23157f21453f9181900360600190a15b5050505050565b60605f6106ca600584611775565b5f61095d600533611a2e565b90505f5b8181101561098a575f61097660053383611a7d565b905061098181610ec2565b50600101610961565b50505050565b8161099c600582611090565b5f82815260036020908152604080832086845290915290206109be9033611a89565b5f8381526004602052604090206109d6903384611a71565b506040805184815260208101849052338183015290517ffb5966a10bbfa837a7964784b0eb92d624218037b24ae5d1aeae23157f21453f9181900360600190a1505050565b5f8235336001600160a01b03821614610a52576040516301292ae560e21b81526001600160a01b0382166004820152602401610601565b5f803681610a6c610a676101008a018a61505f565b611a93565b9350935093509350610a8e846002811115610a8957610a8961504b565b611b27565b15610add57610ad683888a85858080601f0160208091040260200160405190810160405280939291908181526020018383808284375f920191909152508c9250611b2e915050565b9550610b5d565b610af28460028111156108315761083161504b565b15610b4257610aff6141e5565b6060610b0b8484611e64565b60408201519193509150610b1e90611eca565b9450610b2c82868989611eeb565b610b39858a8c848b611b2e565b97505050610b5d565b836040516325f70cf760e21b815260040161060191906150a1565b505050505092915050565b5f8181526002602052604090206060906106ca9084611775565b5f8281526002602052604081206106699085846112b1565b5f8181526004602052604090206060906106ca9084611775565b5f6106ca600583856110bb565b5f8281526004602052604081206106699085846110bb565b5f8281526009602090815260408083206001600160a01b03808616855292528220541615156106ca565b82610c0f600582611090565b61098a600180338787876111ff565b5f81815260086020526040812060609190610c399085611a2e565b9050806001600160401b03811115610c5357610c5361434d565b604051908082528060200260200182016040528015610c9857816020015b604080518082019091525f815260606020820152815260200190600190039081610c715790505b5091505f5b81811015610d56575f848152600860205260409020610cbd908683611a7d565b838281518110610ccf57610ccf6150bb565b60200260200101515f018181525050610d2e8560075f015f8781526020019081526020015f205f868581518110610d0857610d086150bb565b60200260200101515f015181526020019081526020015f2061177590919063ffffffff16565b838281518110610d4057610d406150bb565b6020908102919091018101510152600101610c9d565b505092915050565b5f81815260036020908152604080832085845290915290206060906106699085611775565b5f610d8f600583611a2e565b151592915050565b5f61069485610dab84805160209091012090565b5f878152600760209081526040808320898452909152902091906110bb565b81610dd6600582611090565b610df5610de383806150cf565b610dec91614fe0565b600790856120c5565b61074e600384610e0761073d8761218f565b610e1460208701876150cf565b610e1d91615114565b6002939291905f61178d565b5f7f7739773977397739773977397739773977397739773977397739773977397739849003610e605750637739000160e01b610669565b306001600160a01b03861603610e7f57506001600160e01b0319610669565b5f610e948686610e8f87876121c9565b6121fe565b155f03631626ba7e1760e01b9695505050505050565b5f8281526001602052604081206106699085846112b1565b80610ee3576040516324b5a7e760e21b815260048101829052602401610601565b5f818152600160205260409020610efa9033611a89565b5f818152600260205260409020610f119033611a89565b5f818152600460205260408120610f289033611a2e565b90505f5b81811015610f7a575f838152600460205260408120610f4c903384611a7d565b5f8181526003602090815260408083208884529091529020909150610f719033611a89565b50600101610f2c565b505f828152600460205260409020610f929033611a89565b610f9e60098333612466565b5f828152600a60209081526040808320338085529252909120805460ff19169055610fcc9060059084611a71565b50610fd9600783336124f2565b604080518381523360208201527f1ff4377bcf87e5e9c2ec7fdc4732408c1073dd4b9f49e719d783b1e4fb0f628191015b60405180910390a15050565b5f8181526020818152604080832033845290915281208054908261103983615134565b9091555090507fb21cd80665df6c8932e067c1fb0835dc3bc61d85bcab4c90a9992b692d8e17e2823361106d84600161514c565b604080519384526001600160a01b0390921660208401529082015260600161100a565b61109b8233836110bb565b6107045760405163526d0da560e01b815260048101829052602401610601565b5f81815260018401602090815260408083206001600160a01b03861684529091528120541515610669565b82515f5b81811015610631575f858281518110611105576111056150bb565b60200260200101515f015190505f868381518110611125576111256150bb565b6020026020010151602001515190505f5b818110156111b2575f611184898681518110611154576111546150bb565b6020026020010151602001518381518110611171576111716150bb565b6020026020010151805160209091012090565b5f89815260208c8152604080832088845290915290209091506111a8908883611a71565b5050600101611136565b505f8681526020898152604080832085845290915290206111d39086611a2e565b5f036111f5575f86815260018901602052604090206111f3908684611a71565b505b50506001016110ea565b805f5b81811015611299575f84848381811061121d5761121d6150bb565b90506020020160208101906112329190614cce565b5f87815260208b90526040902090915061124d90888361257f565b15611290577fb2a53c8ed9d14361634fc2a7835a222e5dbec408b6cef4e06768e844613fa7548689838a604051611287949392919061515f565b60405180910390a15b50600101611202565b5050505050505050565b5f6106948585308686612594565b6001600160a01b038181165f90815260018501602090815260408083209386168352929052908120541515610669565b6001815f8190036112f25750610694565b5f5b81811015611362575f85858381811061130f5761130f6150bb565b9050602002810190611321919061519b565b61132a906151b9565b80515f8a815260208c905260409020919250906113489089836112b1565b611358575f945050505050610694565b50506001016112f4565b505095945050505050565b5f61137b6020830183614cce565b611388602084018461505f565b84604001356040516020016113a094939291906151ec565b604051602081830303815290604052805190602001209050919050565b6060825f8190036113e157604051635cb045db60e01b815260040160405180910390fd5b806001600160401b038111156113f9576113f961434d565b604051908082528060200260200182016040528015611422578160200160208202803683370190505b5091505f5b818110156116435736868683818110611442576114426150bb565b9050602002810190611454919061521f565b90505f6114608261136d565b905061149360018261147181611782565b61147e60608701876150cf565b61148791615114565b6001939291908b61178d565b6114d56003826114a561073d8561218f565b6114b2608087018761519b565b6114c09060208101906150cf565b6114c991615114565b6002939291908b61178d565b6115016114e5608084018461519b565b6114ef90806150cf565b6114f891614fe0565b600790836120c5565b6115258161151260a08501856150cf565b61151b91615233565b6003919089611920565b61153160053383612655565b5061154b8161154660e0850160c0860161523f565b61170f565b5f8181526009602090815260408083203384529091529020546001600160a01b03166115cf576115cf816115826020850185614cce565b61158f602086018661505f565b8080601f0160208091040260200160405190810160405280939291908181526020018383808284375f92019190915250600995949392508c915050612661565b808584815181106115e2576115e26150bb565b6020026020010181815250507fc5c98ce9477fc2c88a84abed218cda086be8442fc2eecb9e1ce33941d28741b681336040516116319291909182526001600160a01b0316602082015260400190565b60405180910390a15050600101611427565b50509392505050565b6001815f81900361165d5750610694565b5f5b81811015611362573685858381811061167a5761167a6150bb565b905060200281019061168c919061525a565b90505f6116be61169f602084018461526e565b6116af6040850160208601614cce565b6001600160a01b031690612812565b90506116f589896116d260408601866150cf565b8e5f015f8781526020019081526020015f206112e190949392919063ffffffff16565b611705575f945050505050610694565b505060010161165f565b5f828152600a602090815260408083203380855290835292819020805460ff19168515159081179091558151868152928301939093528101919091527f2c479309476f30bc996bdf6bdea053f2a125e86e9f080ee5a87c1eff762209379060600161100a565b60605f6106698484612862565b5f6106b6823361286e565b81515f5b81811015611299575f8482815181106117ac576117ac6150bb565b60209081029190910101515190506117cd6001600160a01b0382168961289b565b831561183c57604051631304d58360e21b81523360048201526001600160a01b03821660248201526e69e2a187aeffb852bf3ccdc95151b290634c13560c906044015f6040518083038186803b158015611825575f5ffd5b505afa158015611837573d5f5f3e3d5ffd5b505050505b5f87815260208a905260409020611854903383612989565b50806001600160a01b031663989c9e463388888681518110611878576118786150bb565b6020026020010151602001516040518463ffffffff1660e01b81526004016118a293929190615289565b5f604051808303815f87803b1580156118b9575f5ffd5b505af11580156118cb573d5f5f3e3d5ffd5b505050507f1c5ea73ef804151087de6d0ce7a77287b15cfc4f51654cac5bfe6c558547f82787898333604051611904949392919061515f565b60405180910390a150600101611791565b60606106b68261299e565b826119415760405163526d0da560e01b815260048101849052602401610601565b81515f5b81811015610631575f848281518110611960576119606150bb565b602002602001015190505f61198e825f015183602001516001600160a01b031661281290919063ffffffff16565b60208301519091506001600160a01b03811615806119b457506001600160a01b03811630145b806119bd575081155b156119db5760405163703469d160e11b815260040160405180910390fd5b50611a096002886119ec8185612a63565b6040808701515f87815260208f905291909120939291908a61178d565b5f8781526001890160205260409020611a23903383612655565b505050600101611945565b5f6106ca8383612a77565b5f6001826002811115611a4e57611a4e61504b565b14806106b6575060025b826002811115611a6a57611a6a61504b565b1492915050565b5f610669848484612a82565b5f610669848484612b60565b6107048282612b6c565b5f803681611aa46001828789614fec565b611aad91615013565b60f81c6002811115611ac157611ac161504b565b9350611ad88460028111156108315761083161504b565b15611af357611aea8560018189614fec565b91509150611b1e565b611b01602160018789614fec565b611b0a916152b0565b9250611b198560218189614fec565b915091505b92959194509250565b5f80611a58565b5f611b3b600583886110bb565b611b5b5760405163526d0da560e01b815260048101879052602401610601565b5f611b6960e086018661505f565b159050611bbe575f878152600a602090815260408083206001600160a01b038716845290915290205460ff1615611ba257506001611bbe565b60405163357727e960e21b815260048101889052602401610601565b611c1187611bcb81611782565b87604051602401611bdd92919061530e565b60408051601f198184030181529190526020810180516001600160e01b0316633894f6e760e11b1790526001919084612bba565b91505f9050611c23606086018661505f565b611c31916004915f91614fec565b611c3a91615405565b9050631651a3ad60e01b6001600160e01b0319821601611d59575f80611c6b611c66606089018961505f565b612c55565b90925090506001600160f81b0319811615611c9957604051636c4872f960e01b815260040160405180910390fd5b6001600160f81b03198216600160f81b03611ccd57611cc6611cbf6003898c6001612c7e565b8590612d40565b9350611d52565b6001600160f81b03198216611d2d575f803681611cfd611cf8611cf360608e018e61505f565b612e13565b612e7d565b92965090945092509050611d22611d1b60038f878787876001612ec2565b8990612d40565b975050505050611d52565b604051632e5bf3f960e21b81526001600160f81b031983166004820152602401610601565b5050611e43565b6372288ed160e01b6001600160e01b0319821601611d8a57604051636c4872f960e01b815260040160405180910390fd5b5f611dc2611d9b606088018861505f565b611da9916004915f91614fec565b611db291615405565b6001600160a01b03861690612812565b9050611e3f611e3889611dd58185612a63565b87805f611de560608e018e61505f565b604051602401611dfa9695949392919061543b565b60408051601f19818403018152918152602080830180516001600160e01b03166305c0089560e01b1790525f87815260039091522091906001612bba565b8490612d40565b9250505b5f611e52600988868b896130c5565b90508061136257600192505050610694565b611e6c6141e5565b6060611eac84848080601f0160208091040260200160405190810160405280939291908181526020018383808284375f920191909152506131ad92505050565b806020019051810190611ebf91906159b1565b909590945092505050565b5f815f0151826020015183604001516040516020016113a093929190615aa9565b5f838152602081815260408083206001600160a01b0386168452909152812080549082611f1783615134565b9091555090505f611f2a86858486613269565b6060870151604051630b135d3f60e11b8082529293506001600160a01b03871691631626ba7e91611f5f918691600401615ada565b602060405180830381865afa158015611f7a573d5f5f3e3d5ffd5b505050506040513d601f19601f82011682018060405250810190611f9e9190615af2565b6001600160e01b03191614611fd857604051630f2a3bc360e21b81526001600160a01b038516600482015260248101829052604401610601565b5f611ffd600187611fe881611782565b60408b0151606001516001939291908661178d565b6040870151608001515161201490600790886120c5565b61203f60038761202661073d8a61218f565b60408b015160800151602001516002939291908661178d565b604087015160a0015161205790600390889084611920565b61206986886040015160c0015161170f565b5f8681526009602090815260408083206001600160a01b03808a168552925290912054166120ae57604087015180516020909101516120ae9160099189919085612661565b61129960053388612655565b805160209091012090565b81515f5b8181101561093c575f8482815181106120e4576120e46150bb565b60200260200101515f015190505f858381518110612104576121046150bb565b602002602001015160200151519050805f14612136575f8581526001880160205260409020612134903384612655565b505b5f5b81811015612184575f612156888681518110611154576111546150bb565b5f88815260208b81526040808320888452909152902090915061217a903383612655565b5050600101612138565b5050506001016120c9565b6040517f455243313237313a2000000000000000000000000000000000000000000000006020820152602981018290525f906049016113a0565b365f83839150915061ffff60605119046164920260208203830135036121f757506040810135016020810190355b9250929050565b5f8282823080156122ba575f5f5f5f5f336001600160a01b03166384b0196e6040518163ffffffff1660e01b81526004015f60405180830381865afa158015612249573d5f5f3e3d5ffd5b505050506040513d5f823e601f3d908101601f191682016040526122709190810190615b68565b506040805186516020978801208183015285519590960194909420606086015260808501929092526001600160a01b031660a084015260c083015260e08201905296505050505050505b6040516002870388013560f01c806042018089038a016119015f526040816020377f5479706564446174615369676e280000000000000000000000000000000000008452600e8401836040830182376040820198508397506028848201526029600185830103515f1a1461235e575f6001858301035b6001820191506029828203515f1a148683101161233057508085039450808560408501018337602881830153505b6f07fffffe00000000000001000000000081515f1a1c5b602882515f1a1461239b57806512010000000183515f1a1c179050600182019150612375565b7f20636f6e74656e74732c737472696e67206e616d652c737472696e670000000082527f2076657273696f6e2c75696e7432353620636861696e49642c61646472657373601c8301527f20766572696679696e67436f6e74726163742c627974657333322073616c7429603c830152605c82019150846040840183376040838837858583010386208752602051975060e0872060405280600116604201601e209d50505050808903985050506040526124598989898986898961334c565b9998505050505050505050565b5f828152602084815260408083206001600160a01b03858116808652918452938290208054835188815295169385019390935290830152907f1b8b78a1623842b0534f626565151ce282cc88268c30bf8d525c59d0c22f21db9060600160405180910390a1805473ffffffffffffffffffffffffffffffffffffffff1916815561098a6001820161348e565b5f828152600184016020526040812061250b9083611775565b80519091505f5b81811015612565575f83828151811061252d5761252d6150bb565b6020908102919091018101515f88815289835260408082208383529093529190912090915061255c9086611a89565b50600101612512565b505f848152600186016020526040902061093c9084611a89565b5f61066984846001600160a01b038516612a82565b5f7fd44896e3cb83d70abc949a38dd6f9f75e675dc329dfe958617f066f79ff88f05856125d58860028760028111156125cf576125cf61504b565b146134ae565b88516020808b01518051908201206040808d01518151938401979097526001600160a01b03958616908301526060820193909352908316608082015260a081019190915260c0810192909252851660e082015261010081018390526101200160405160208183030381529060405280519060200120905095945050505050565b5f61066984848461356e565b6001600160a01b03831615806126db575060405163ecd0596160e01b8152600760048201526001600160a01b0384169063ecd0596190602401602060405180830381865afa1580156126b5573d5f5f3e3d5ffd5b505050506040513d601f19601f820116820180604052508101906126d99190615c38565b155b15612704576040516353f5708960e11b81526001600160a01b0384166004820152602401610601565b801561277a5760405163529562a160e01b81523360048201526001600160a01b0384166024820152600760448201526e69e2a187aeffb852bf3ccdc95151b29063529562a1906064015f6040518083038186803b158015612763575f5ffd5b505afa158015612775573d5f5f3e3d5ffd5b505050505b5f848152602086815260408083203384529091529020805473ffffffffffffffffffffffffffffffffffffffff19166001600160a01b0385161781556127c360018201846135e2565b604080518681526001600160a01b0386166020820152338183015290517f9e1deb1dcdedd38e68d5543a9a6be8416a0e0a5627628e47780bd6ef8abc1a3c9181900360600190a1505050505050565b6040516bffffffffffffffffffffffff19606084901b1660208201526001600160e01b0319821660348201525f906038015b60405160208183030381529060405280519060200120905092915050565b60606106ca838361363d565b6040516bffffffffffffffffffffffff19606083901b166020820152603481018390525f90605401612844565b5f60018260038111156128b0576128b061504b565b036128d6576128cf6001600160a01b038416633894f6e760e11b613649565b9050612960565b60028260038111156128ea576128ea61504b565b03612909576128cf6001600160a01b0384166305c0089560e01b613649565b600382600381111561291d5761291d61504b565b0361293c576128cf6001600160a01b03841663cbf3450560e01b613649565b604051636a01dd0160e01b81526001600160a01b0384166004820152602401610601565b8061075957604051636a01dd0160e01b81526001600160a01b0384166004820152602401610601565b5f61066984846001600160a01b03851661356e565b80546060905f6129af602083615c53565b6129ba90600161514c565b9050600184015f826001600160401b038111156129d9576129d961434d565b604051908082528060200260200182016040528015612a02578160200160208202803683370190505b5090505f5b83811015612a3d575f81840154905080838381518110612a2957612a296150bb565b602090810291909101015250600101612a07565b5080604051602001612a4f9190615c72565b604080519190529384525091949350505050565b5f6106ca612a718484613664565b3361286e565b5f6106ca838361367f565b5f81815260018401602090815260408083206001600160a01b03861684529091528120548015612b57575f612ab8600183615ca7565b90505f6001612ac7888861367f565b612ad19190615ca7565b9050808214612b1b575f612ae6888884613692565b9050612af48888858461369e565b5f90815260018801602090815260408083206001600160a01b038a16845290915290208390555b612b2587876136aa565b5050505f8281526001808601602090815260408084206001600160a01b038816855290915282209190915590506106ca565b5f9150506106ca565b5f610669848484613692565b5f612b778383612a77565b905060015b81811161098a575f612b988585612b938587615ca7565b612b60565b9050612ba5858583612a82565b50508080612bb290615134565b915050612b7c565b5f8381526020859052604081208190612bd39033611775565b805190915080841115612bfc57604051631c792c0560e01b815260048101879052602401610601565b5f5b81811015612c4a57612c40611cbf8888868581518110612c2057612c206150bb565b60200260200101516001600160a01b03166136b49092919063ffffffff16565b9350600101612bfe565b505050949350505050565b5f8080612c66602460048688614fec565b612c6f916152b0565b95600887901b95509350505050565b5f3681612c99612c94611cf3606089018961505f565b61373b565b9092509050805f819003612cc057604051632b6c9e0d60e11b815260040160405180910390fd5b5f5b81811015612d345736848483818110612cdd57612cdd6150bb565b9050602002810190612cef919061525a565b90505f612d1c8b8a612d046020860186614cce565b6020860135612d16604088018861505f565b8e612ec2565b9050612d288782612d40565b96505050600101612cc2565b50505050949350505050565b5f81830160601b8260601b81148460601b8214176001600160a01b0384861816151760018114612d735760019250610d56565b7fffffffffffff000000000000000000000000000000000000000000000000000080851690861681811881831102188686176001600160a01b031617935065ffffffffffff60a01b86169081612dd05765ffffffffffff60a01b91505b5065ffffffffffff60a01b851680612dee575065ffffffffffff60a01b5b808218908211021880612e07575065ffffffffffff60a01b5b92909217949350505050565b365f6044831015612e22575f5ffd5b6024840180356001600160401b03811115612e3b575f5ffd5b01915050601f198101356001600160401b03811115612e58575f5ffd5b82840180831115612e67575f5ffd5b808284011115612e75575f5ffd5b509250929050565b5f803681612e8e6014828789614fec565b612e9791615cba565b60601c9350612eaa603460148789614fec565b612eb3916152b0565b9250611b198560348189614fec565b5f806004841015612edc57506001600160e01b0319612ef5565b612ee960045f8688614fec565b612ef291615405565b90505b6001600160e01b0319811663e9ae5c5360e01b148015612f1d57506001600160a01b03871633145b15612f3b57604051632a0399f560e11b815260040160405180910390fd5b5f196001600160a01b03881601612f655760405163416aebb560e11b815260040160405180910390fd5b5f306001600160a01b03891603612f9d57507f986126569d6396d837d7adeb3ca726199afaf83546f38726e6f331bb92d8e9d6613051565b612fb06001600160a01b03891683612812565b905061301689612fc08184612a63565b338b8b8b8b604051602401612fda9695949392919061543b565b60408051601f19818403018152918152602080830180516001600160e01b03166305c0089560e01b1790525f868152908f9052209190876137d1565b92506350ffbaad830361304a57507fd884b6afa19f8ace90a388daca691e4e28f20cdac5aeefd46ad8bd1c074d28cf613051565b50506130ba565b6130b58961305f8184612a63565b338b8b8b8b6040516024016130799695949392919061543b565b60408051601f19818403018152918152602080830180516001600160e01b03166305c0089560e01b1790525f868152908f905220919087612bba565b925050505b979650505050505050565b5f828152602086815260408083206001600160a01b0380881685529252822054168061311657604051630d5dd5ff60e31b8152600481018590526001600160a01b0386166024820152604401610601565b5f848152602088815260408083206001600160a01b03898116855292529091209082169063940d3840908890869061315090600101611915565b6040518463ffffffff1660e01b815260040161316e93929190615cfa565b602060405180830381865afa158015613189573d5f5f3e3d5ffd5b505050506040513d601f19601f820116820180604052508101906130ba9190615c38565b60405181516020838101938184019201015b80841015613251578351805f1a8060051c806131f15750600186810151855295810160020195930190920191506131bf565b600781148360011a600701821881028218600201600185836001011a85601f1660081b0101808803602082186020831102821891505f5b818101518a8201528201838110613228579a84016002019a9883019850505050505050506131bf565b50601f198282030182525f8152602001604052919050565b60408401515f90819061327e908685876112a3565b90505f8660200151875f015160ff168151811061329d5761329d6150bb565b60200260200101515f015190505f8760200151885f015160ff16815181106132c7576132c76150bb565b602002602001015160200151905046826001600160401b0316146133095760405163e75e237960e01b81526001600160401b0383166004820152602401610601565b828114613333576040516305846adf60e11b81526004810182905260248101849052604401610601565b6133408860200151613862565b98975050505050505050565b5f5f61338c84848080601f0160208091040260200160405190810160405280939291908181526020018383808284375f920191909152506120ba92505050565b90505f61339c602082898b614fec565b6133a5916152b0565b90506133b4876020818b614fec565b90985096506133c5600533836110bb565b15806133f157505f81815260076020908152604080832089845290915290206133ef9033846110bb565b155b15613400575f925050506130ba565b5f613426338c8c8c8c8761341661073d8a61218f565b60029695949392919060016138fb565b9050806134375792506130ba915050565b61347f8a33848c8c8080601f0160208091040260200160405190810160405280939291908181526020018383808284375f920191909152506009969594939250506130c59050565b9b9a5050505050505050505050565b5f80825560018201905b600a811015610759575f82820155600101613498565b5f5f5f5f6134bf8660a001516139fc565b9250925092507f871289c05e426554eb0f843c9aa542f9c2bc4eba7742ada6a5c014d3568674d45f1b8383878960c001516134fd8b60600151613ada565b61350a8c60800151613b53565b6040805160208101989098529515159587019590955292151560608601529015156080850152151560a084015260c083015260e082015261010081018290526101200160405160208183030381529060405280519060200120935050505092915050565b5f81815260018401602090815260408083206001600160a01b03861684529091528120546135db576135a1848484613bcd565b6135ab848461367f565b5f8381526001808701602090815260408084206001600160a01b03891685529091529091209190915590506106ca565b505f6106ca565b610140815111156135f1575f5ffd5b60606135fc82613bee565b9084558051909150600184015f5b82811015610631575f848281518110613625576136256150bb565b6020908102919091010151838301555060010161360a565b60606106ca8383613ca2565b5f61365383613d3b565b80156106ca57506106ca8383613d6d565b60408051602081018490529081018290525f90606001612844565b5f818152602083905260408120546106ca565b5f610669848484613df0565b61098a84848484613e07565b6107048282613e1f565b5f80806136cf6001600160a01b0387165f1983602088613e5b565b915091505f826136ee5763f42707525f5260208201516020526024601cfd5b5060208101519250826001600160a01b0381161561373157604051633b57736160e01b8152600481018790526001600160a01b0388166024820152604401610601565b5050509392505050565b365f833580850160208587010360208201945081359350808460051b8301118360401c17156137715763ba597e7e5f526004601cfd5b83156137c7578392505b6001830392508260051b850135915081850160408101358082018381358201118460408501111782861782351760401c17156137be5763ba597e7e5f526004601cfd5b5050508261377b575b5050509250929050565b5f83815260208590526040812081906137ea9033611775565b805190915080841115613805576350ffbaad92505050610669565b5f5b8181101561383357613829611cbf8888868581518110612c2057612c206150bb565b9350600101613807565b506350ffbaad830361385857604051630b4e78fd60e21b815260040160405180910390fd5b5050949350505050565b5f807f0c9d02fb89a1da34d66ea2088dc9ee6a58efee71cef6f1bb849ed74fc6003d9861388e84613ee0565b60408051602081019390935282015260600160408051601f1981840301815290829052805160209091012061190160f01b82527f057501e891776d1482927e5f094ae44049a4d893ba2d7b334dd7db8d38d3a0e160028301526022820181905260429091209091506106ca565b5f83815260208a9052604081208190613914908b611775565b80519091508084111561393d57604051631c792c0560e01b815260048101879052602401610601565b5f5b818110156139ec57828181518110613959576139596150bb565b60200260200101516001600160a01b031663cbf34505878d8f8e8e8e6040518763ffffffff1660e01b81526004016139969695949392919061543b565b602060405180830381865afa1580156139b1573d5f5f3e3d5ffd5b505050506040513d601f19601f820116820180604052508101906139d59190615c38565b9350836139e457505050612459565b60010161393f565b5050509998505050505050505050565b5f5f5f5f845190505f613a1f8260408051828152600190920160051b8201905290565b90505f5b82811015613ac5575f878281518110613a3e57613a3e6150bb565b6020026020010151905060016001600160a01b031681602001516001600160a01b031603613a9f578680613a80575080516001600160e01b031916600160e01b145b96508580613a9c575080516001600160e01b031916600160e11b145b95505b613abb82613aac83613f3a565b600190910160051b8501528390565b5050600101613a23565b50805160051b60208201209496939550505050565b80515f9081613af98260408051828152600190920160051b8201905290565b90505f5b82811015613b4357613b3a81613b2b878481518110613b1e57613b1e6150bb565b6020026020010151613fbd565b600190910160051b8401528290565b50600101613afd565b50805160051b6020820120610669565b6040805160038152608081019091527fdfd9b5718eebaa2484740b4ea6939e96189024c15848f16ccce901118114e15260208201525f90613baa6001613b9b855f0151614018565b600190910160051b8301528190565b50613bbd6002613b9b8560200151613ada565b50805160051b60208201206106ca565b5f828152602084905260409020805460018183018101849055019055505050565b80516060610140821115613c00575f5ffd5b5f613c0c602084615c53565b613c1790600161514c565b9050806001600160401b03811115613c3157613c3161434d565b604051908082528060200260200182016040528015613c5a578160200160208202803683370190505b5091505f5b81811015613c9b575f60206001830102860151905080848381518110613c8757613c876150bb565b602090810291909101015250600101613c5f565b5050915091565b5f818152602083905260409020805460609190806001600160401b03811115613ccd57613ccd61434d565b604051908082528060200260200182016040528015613cf6578160200160208202803683370190505b5092505f5b81811015613d3257613d0d8382614072565b848281518110613d1f57613d1f6150bb565b6020908102919091010152600101613cfb565b50505092915050565b5f613d4d826301ffc9a760e01b613d6d565b80156106b65750613d66826001600160e01b0319613d6d565b1592915050565b6040516001600160e01b0319821660248201525f90819060440160408051601f19818403018152919052602080820180516001600160e01b03166301ffc9a760e01b17815282519293505f9283928392909183918a617530fa92503d91505f519050828015613ddd575060208210155b80156130ba575015159695505050505050565b5f8281526020849052604081206106699083614072565b5f83815260208590526040902061098a908383614095565b5f81815260208390526040812080549091819003613e3d5750505050565b613e5282613e4c600184615ca7565b5f614095565b5f190190555050565b5f60605f5f5f8661ffff166001600160401b03811115613e7d57613e7d61434d565b6040519080825280601f01601f191660200182016040528015613ea7576020820181803683370190505b5090505f5f8751602089018b8e8ef191503d925086831115613ec7578692505b828152825f602083013e90999098509650505050505050565b80515f9081613eff8260408051828152600190920160051b8201905290565b90505f5b82811015613b4357613f3181613b2b878481518110613f2457613f246150bb565b60200260200101516140b6565b50600101613f03565b5f7f35809859dccf8877c407a59527c2f00fb81ca9c198ebcb0c832c3deaa38d35025f1b825f01518360200151613f748560400151613ada565b6040805160208101959095526001600160e01b0319909316928401929092526001600160a01b03166060830152608082015260a0016113a0565b60019190910160051b82015290565b80516020808301518051908201206040515f936113a0937fdddac12cd8b10a071bea04226e97ac9490698394e19224abc47a5cfeeeb6ee97939192019283526001600160a01b03919091166020830152604082015260600190565b80515f90816140378260408051828152600190920160051b8201905290565b90505f5b82811015613b435761406981613b2b87848151811061405c5761405c6150bb565b602002602001015161410b565b5060010161403b565b5f8254821061408c57638277484f5f52816020526024601cfd5b50016001015490565b825482106140ae57638277484f5f52816020526024601cfd5b910160010155565b80516020808301516040515f936113a0937f1ea7e4bc398fa0ccd68d92b5d8931a3fd93eebe1cf0391b4ba28935801af7c80939192019283526001600160401b03919091166020830152604082015260600190565b805160208201515f917e6166b2b3a1edaf1da1ce02715d02d4979a4ab93755bff9ec054b0e6a96a1da9161413e9061415d565b60408051602081019490945283019190915260608201526080016113a0565b80515f908161417c8260408051828152600190920160051b8201905290565b90505f5b82811015613b43576141dc8186838151811061419e5761419e6150bb565b60200260200101516040516020016141b69190615d24565b6040516020818303038152906040528051906020012084613fae9092919063ffffffff16565b50600101614180565b604080516080810182525f815260606020820152908101614204614211565b8152602001606081525090565b6040518060e001604052805f6001600160a01b03168152602001606081526020015f81526020016060815260200161425c604051806040016040528060608152602001606081525090565b8152606060208201525f60409091015290565b5f5f83601f84011261427f575f5ffd5b5081356001600160401b03811115614295575f5ffd5b6020830191508360208260051b85010111156121f7575f5ffd5b5f5f5f5f5f606086880312156142c3575f5ffd5b8535945060208601356001600160401b038111156142df575f5ffd5b6142eb8882890161426f565b90955093505060408601356001600160401b03811115614309575f5ffd5b6143158882890161426f565b969995985093965092949392505050565b6001600160a01b038116811461433a575f5ffd5b50565b803561434881614326565b919050565b634e487b7160e01b5f52604160045260245ffd5b604080519081016001600160401b03811182821017156143835761438361434d565b60405290565b604051606081016001600160401b03811182821017156143835761438361434d565b60405160e081016001600160401b03811182821017156143835761438361434d565b604051608081016001600160401b03811182821017156143835761438361434d565b604051601f8201601f191681016001600160401b03811182821017156144175761441761434d565b604052919050565b5f6001600160401b038211156144375761443761434d565b50601f01601f191660200190565b5f82601f830112614454575f5ffd5b8135602083015f61446c6144678461441f565b6143ef565b905082815285838301111561447f575f5ffd5b828260208301375f92810160200192909252509392505050565b5f6001600160401b038211156144b1576144b161434d565b5060051b60200190565b5f604082840312156144cb575f5ffd5b6144d3614361565b905081356144e081614326565b815260208201356001600160401b038111156144fa575f5ffd5b61450684828501614445565b60208301525092915050565b5f61451f61446784614499565b838152905060208101600584901b83018581111561453b575f5ffd5b835b818110156137315780356001600160401b0381111561455a575f5ffd5b614566888288016144bb565b8452506020928301920161453d565b5f82601f830112614584575f5ffd5b6106ca83833560208501614512565b5f6145a061446784614499565b838152905060208101600584901b8301858111156145bc575f5ffd5b835b818110156137315780356001600160401b038111156145db575f5ffd5b8501604081890312156145ec575f5ffd5b6145f4614361565b8135815260208201356001600160401b03811115614610575f5ffd5b80830192505088601f830112614624575f5ffd5b813561463261446782614499565b8082825260208201915060208360051b86010192508b831115614653575f5ffd5b602085015b838110156146935780356001600160401b03811115614675575f5ffd5b6146848e6020838a0101614445565b84525060209283019201614658565b5080602085015250505080855250506020830192506020810190506145be565b5f604082840312156146c3575f5ffd5b6146cb614361565b905081356001600160401b038111156146e2575f5ffd5b8201601f810184136146f2575f5ffd5b61470184823560208401614593565b82525060208201356001600160401b0381111561471c575f5ffd5b61450684828501614575565b6001600160e01b03198116811461433a575f5ffd5b5f61474a61446784614499565b838152905060208101600584901b830185811115614766575f5ffd5b835b818110156137315780356001600160401b03811115614785575f5ffd5b850160608189031215614796575f5ffd5b61479e614389565b81356147a981614728565b815260208201356147b981614326565b602082015260408201356001600160401b038111156147d6575f5ffd5b6147e28a828501614575565b60408301525084525060209283019201614768565b5f82601f830112614806575f5ffd5b6106ca8383356020850161473d565b801515811461433a575f5ffd5b803561434881614815565b803560038110614348575f5ffd5b5f5f5f5f6080858703121561484e575f5ffd5b84359350602085013561486081614326565b925060408501356001600160401b0381111561487a575f5ffd5b850160e0818803121561488b575f5ffd5b6148936143ab565b61489c8261433d565b815260208201356001600160401b038111156148b6575f5ffd5b6148c289828501614445565b6020830152506040828101359082015260608201356001600160401b038111156148ea575f5ffd5b6148f689828501614575565b60608301525060808201356001600160401b03811115614914575f5ffd5b614920898285016146b3565b60808301525060a08201356001600160401b0381111561493e575f5ffd5b61494a898285016147f7565b60a08301525061495c60c08301614822565b60c0820152925061497190506060860161482d565b905092959194509250565b5f5f5f5f6080858703121561498f575f5ffd5b843561499a81614326565b9350602085013592506040850135915060608501356149b881614326565b939692955090935050565b5f5f5f5f606085870312156149d6575f5ffd5b84356149e181614326565b93506020850135925060408501356001600160401b03811115614a02575f5ffd5b614a0e8782880161426f565b95989497509550505050565b5f60208284031215614a2a575f5ffd5b81356001600160401b03811115614a3f575f5ffd5b820160e081850312156106ca575f5ffd5b5f5f60208385031215614a61575f5ffd5b82356001600160401b03811115614a76575f5ffd5b614a828582860161426f565b90969095509350505050565b602080825282518282018190525f918401906040840190835b81811015614ac5578351835260209384019390920191600101614aa7565b509095945050505050565b5f5f60408385031215614ae1575f5ffd5b823591506020830135614af381614815565b809150509250929050565b5f5f60408385031215614b0f575f5ffd5b8235614b1a81614326565b946020939093013593505050565b602080825282518282018190525f918401906040840190835b81811015614ac55783516001600160a01b0316835260209384019390920191600101614b41565b5f5f60408385031215614b79575f5ffd5b8235915060208301356001600160401b03811115614b95575f5ffd5b61079585828601614575565b5f81518084528060208401602086015e5f602082860101526020601f19601f83011685010191505092915050565b6001600160a01b0383168152604060208201525f6106696040830184614ba1565b5f5f60408385031215614c01575f5ffd5b8235915060208301356001600160401b03811115614c1d575f5ffd5b610795858286016147f7565b5f5f83601f840112614c39575f5ffd5b5081356001600160401b03811115614c4f575f5ffd5b6020830191508360208285010111156121f7575f5ffd5b5f5f60208385031215614c77575f5ffd5b82356001600160401b03811115614c8c575f5ffd5b614a8285828601614c29565b5f5f5f5f60608587031215614cab575f5ffd5b843593506020850135925060408501356001600160401b03811115614a02575f5ffd5b5f60208284031215614cde575f5ffd5b81356106ca81614326565b5f5f60408385031215614cfa575f5ffd5b823591506020830135614af381614326565b5f5f60408385031215614d1d575f5ffd5b50508035926020909101359150565b5f5f60408385031215614d3d575f5ffd5b82356001600160401b03811115614d52575f5ffd5b83016101208186031215614b1a575f5ffd5b5f5f5f60608486031215614d76575f5ffd5b8335614d8181614326565b9250602084013591506040840135614d9881614326565b809150509250925092565b5f8151808452602084019350602083015f5b82811015614dd3578151865260209586019590910190600101614db5565b5093949350505050565b602081525f6106ca6020830184614da3565b5f5f5f60608486031215614e01575f5ffd5b8335614e0c81614326565b95602085013595506040909401359392505050565b5f5f5f60408486031215614e33575f5ffd5b8335925060208401356001600160401b03811115614e4f575f5ffd5b614e5b8682870161426f565b9497909650939450505050565b5f602082016020835280845180835260408501915060408160051b8601019250602086015f5b82811015614ed657603f198786030184528151805186526020810151905060406020870152614ec06040870182614da3565b9550506020938401939190910190600101614e8e565b50929695505050505050565b5f5f5f5f60808587031215614ef5575f5ffd5b8435614f0081614326565b9350602085013592506040850135915060608501356001600160401b03811115614f28575f5ffd5b614f3487828801614445565b91505092959194509250565b5f60208284031215614f50575f5ffd5b5035919050565b5f5f60408385031215614f68575f5ffd5b8235915060208301356001600160401b03811115614f84575f5ffd5b830160408186031215614af3575f5ffd5b5f5f5f5f60608587031215614fa8575f5ffd5b8435614fb381614326565b93506020850135925060408501356001600160401b03811115614fd4575f5ffd5b614a0e87828801614c29565b5f6106ca368484614593565b5f5f85851115614ffa575f5ffd5b83861115615006575f5ffd5b5050820193919092039150565b80356001600160f81b03198116906001841015615044576001600160f81b0319600185900360031b81901b82161691505b5092915050565b634e487b7160e01b5f52602160045260245ffd5b5f5f8335601e19843603018112615074575f5ffd5b8301803591506001600160401b0382111561508d575f5ffd5b6020019150368190038213156121f7575f5ffd5b60208101600383106150b5576150b561504b565b91905290565b634e487b7160e01b5f52603260045260245ffd5b5f5f8335601e198436030181126150e4575f5ffd5b8301803591506001600160401b038211156150fd575f5ffd5b6020019150600581901b36038213156121f7575f5ffd5b5f6106ca368484614512565b634e487b7160e01b5f52601160045260245ffd5b5f6001820161514557615145615120565b5060010190565b808201808211156106b6576106b6615120565b84815260808101600485106151765761517661504b565b60208201949094526001600160a01b0392831660408201529116606090910152919050565b5f8235603e198336030181126151af575f5ffd5b9190910192915050565b5f6106b636836144bb565b81835281816020850137505f828201602090810191909152601f909101601f19169091010190565b6001600160a01b0385168152606060208201525f61520e6060830185876151c4565b905082604083015295945050505050565b5f823560de198336030181126151af575f5ffd5b5f6106ca36848461473d565b5f6020828403121561524f575f5ffd5b81356106ca81614815565b5f8235605e198336030181126151af575f5ffd5b5f6020828403121561527e575f5ffd5b81356106ca81614728565b6001600160a01b0384168152826020820152606060408201525f6106946060830184614ba1565b803560208310156106b6575f19602084900360031b1b1692915050565b5f5f8335601e198436030181126152e2575f5ffd5b83016020810192503590506001600160401b03811115615300575f5ffd5b8036038213156121f7575f5ffd5b82815260406020820152615335604082016153288461433d565b6001600160a01b03169052565b602082013560608201525f61534d60408401846152cd565b6101206080850152615364610160850182846151c4565b91505061537460608501856152cd565b848303603f190160a086015261538b8382846151c4565b608087013560c08781019190915260a088013560e080890191909152908801356101008801529093506153c3925086019050856152cd565b848303603f19016101208601526153db8382846151c4565b925050506153ed6101008501856152cd565b848303603f19016101408601526130ba8382846151c4565b80356001600160e01b03198116906004841015615044576001600160e01b031960049490940360031b84901b1690921692915050565b8681526001600160a01b03861660208201526001600160a01b038516604082015283606082015260a060808201525f61334060a0830184866151c4565b5f82601f830112615487575f5ffd5b815161549561446782614499565b8082825260208201915060208360061b8601019250858311156154b6575f5ffd5b602085015b8381101561550c57604081880312156154d2575f5ffd5b6154da614361565b81516001600160401b03811681146154f0575f5ffd5b81526020828101518183015290845292909201916040016154bb565b5095945050505050565b805161434881614326565b5f82601f830112615530575f5ffd5b8151602083015f6155436144678461441f565b9050828152858383011115615556575f5ffd5b8282602083015e5f92810160200192909252509392505050565b5f82601f83011261557f575f5ffd5b815161558d61446782614499565b8082825260208201915060208360051b8601019250858311156155ae575f5ffd5b602085015b8381101561550c5780516001600160401b038111156155d0575f5ffd5b86016040818903601f190112156155e5575f5ffd5b6155ed614361565b60208201516155fb81614326565b815260408201516001600160401b03811115615615575f5ffd5b6156248a602083860101615521565b60208301525080855250506020830192506020810190506155b3565b5f60408284031215615650575f5ffd5b615658614361565b905081516001600160401b0381111561566f575f5ffd5b8201601f8101841361567f575f5ffd5b805161568d61446782614499565b8082825260208201915060208360051b8501019250868311156156ae575f5ffd5b602084015b838110156157b25780516001600160401b038111156156d0575f5ffd5b85016040818a03601f190112156156e5575f5ffd5b6156ed614361565b6020820151815260408201516001600160401b0381111561570c575f5ffd5b60208184010192505089601f830112615723575f5ffd5b815161573161446782614499565b8082825260208201915060208360051b86010192508c831115615752575f5ffd5b602085015b838110156157925780516001600160401b03811115615774575f5ffd5b6157838f6020838a0101615521565b84525060209283019201615757565b5080602085015250505080855250506020830192506020810190506156b3565b50845250505060208201516001600160401b038111156157d0575f5ffd5b61450684828501615570565b5f82601f8301126157eb575f5ffd5b81516157f961446782614499565b8082825260208201915060208360051b86010192508583111561581a575f5ffd5b602085015b8381101561550c5780516001600160401b0381111561583c575f5ffd5b86016060818903601f19011215615851575f5ffd5b615859614389565b602082015161586781614728565b8152604082015161587781614326565b602082015260608201516001600160401b03811115615894575f5ffd5b6158a38a602083860101615570565b6040830152508452506020928301920161581f565b805161434881614815565b5f60e082840312156158d3575f5ffd5b6158db6143ab565b90506158e682615516565b815260208201516001600160401b03811115615900575f5ffd5b61590c84828501615521565b6020830152506040828101519082015260608201516001600160401b03811115615934575f5ffd5b61594084828501615570565b60608301525060808201516001600160401b0381111561595e575f5ffd5b61596a84828501615640565b60808301525060a08201516001600160401b03811115615988575f5ffd5b615994848285016157dc565b60a0830152506159a660c083016158b8565b60c082015292915050565b5f5f604083850312156159c2575f5ffd5b82516001600160401b038111156159d7575f5ffd5b8301608081860312156159e8575f5ffd5b6159f06143cd565b815160ff81168114615a00575f5ffd5b815260208201516001600160401b03811115615a1a575f5ffd5b615a2687828501615478565b60208301525060408201516001600160401b03811115615a44575f5ffd5b615a50878285016158c3565b60408301525060608201516001600160401b03811115615a6e575f5ffd5b615a7a87828501615521565b606083015250809350505060208301516001600160401b03811115615a9d575f5ffd5b61079585828601615521565b6001600160a01b0384168152606060208201525f615aca6060830185614ba1565b9050826040830152949350505050565b828152604060208201525f6106696040830184614ba1565b5f60208284031215615b02575f5ffd5b81516106ca81614728565b5f82601f830112615b1c575f5ffd5b8151615b2a61446782614499565b8082825260208201915060208360051b860101925085831115615b4b575f5ffd5b602085015b8381101561550c578051835260209283019201615b50565b5f5f5f5f5f5f5f60e0888a031215615b7e575f5ffd5b87516001600160f81b031981168114615b95575f5ffd5b60208901519097506001600160401b03811115615bb0575f5ffd5b615bbc8a828b01615521565b96505060408801516001600160401b03811115615bd7575f5ffd5b615be38a828b01615521565b60608a01519096509450615bfb905060808901615516565b60a089015160c08a015191945092506001600160401b03811115615c1d575f5ffd5b615c298a828b01615b0d565b91505092959891949750929550565b5f60208284031215615c48575f5ffd5b81516106ca81614815565b5f82615c6d57634e487b7160e01b5f52601260045260245ffd5b500490565b81515f90829060208501835b82811015615c9c578151845260209384019390910190600101615c7e565b509195945050505050565b818103818111156106b6576106b6615120565b80356bffffffffffffffffffffffff198116906014841015615044576bffffffffffffffffffffffff1960149490940360031b84901b1690921692915050565b838152606060208201525f615d126060830185614ba1565b82810360408401526106658185614ba1565b5f82518060208501845e5f92019182525091905056fea164736f6c634300081c000a","linkReferences":{}},"methodIdentifiers":{"areActionsEnabled(address,bytes32,(bytes4,address,(address,bytes)[])[])":"2dadb5e9","areERC1271PoliciesEnabled(address,bytes32,(address,bytes)[])":"1097109e","areUserOpPoliciesEnabled(address,bytes32,(address,bytes)[])":"2445e73e","disableActionId(bytes32,bytes32)":"96e72962","disableActionPolicies(bytes32,bytes32,address[])":"6e79eee0","disableERC1271Policies(bytes32,address[],(bytes32,string[])[])":"02a1a4cd","disableUserOpPolicies(bytes32,address[])":"d056b06d","enableActionPolicies(bytes32,(bytes4,address,(address,bytes)[])[])":"4e33ad2e","enableERC1271Policies(bytes32,((bytes32,string[])[],(address,bytes)[]))":"f5297b77","enableSessions((address,bytes,bytes32,(address,bytes)[],((bytes32,string[])[],(address,bytes)[]),(bytes4,address,(address,bytes)[])[],bool)[])":"21712407","enableUserOpPolicies(bytes32,(address,bytes)[])":"454c9d82","getActionPolicies(address,bytes32,bytes32)":"d527ed6e","getERC1271Policies(address,bytes32)":"a67c714e","getEnabledActions(address,bytes32)":"a9fa4b44","getEnabledERC7739Content(address,bytes32)":"d0e6f608","getNonce(bytes32,address)":"795f9269","getPermissionIDs(address)":"7373f181","getPermissionId((address,bytes,bytes32,(address,bytes)[],((bytes32,string[])[],(address,bytes)[]),(bytes4,address,(address,bytes)[])[],bool))":"1be1fffb","getSessionDigest(bytes32,address,(address,bytes,bytes32,(address,bytes)[],((bytes32,string[])[],(address,bytes)[]),(bytes4,address,(address,bytes)[])[],bool),uint8)":"05defba6","getSessionValidatorAndConfig(address,bytes32)":"496c8a91","getUserOpPolicies(address,bytes32)":"44d1628c","isActionIdEnabled(address,bytes32,bytes32)":"af29e6b2","isActionPolicyEnabled(address,bytes32,bytes32,address)":"09e5aef8","isERC1271PolicyEnabled(address,bytes32,address)":"a7ef6205","isERC7739ContentEnabled(address,bytes32,bytes32,string)":"eab25667","isISessionValidatorSet(bytes32,address)":"c9a5ec39","isInitialized(address)":"d60b347f","isModuleType(uint256)":"ecd05961","isPermissionEnabled(bytes32,address)":"adbc532f","isUserOpPolicyEnabled(address,bytes32,address)":"f77a7eac","isValidSignatureWithSender(address,bytes32,bytes)":"f551e2ee","onInstall(bytes)":"6d61fe70","onUninstall(bytes)":"8a91b0e3","removeSession(bytes32)":"f867b08e","revokeEnableSignature(bytes32)":"f9b80369","setPermit4337Paymaster(bytes32,bool)":"2e644d8d","validateUserOp((address,uint256,bytes,bytes,bytes32,uint256,bytes32,bytes,bytes),bytes32)":"97003203"},"id":2}