{"abi":[{"type":"function","name":"$canUsePaymaster","inputs":[{"name":"permissionId","type":"bytes32","internalType":"PermissionId"},{"name":"smartAccount","type":"address","internalType":"address"}],"outputs":[{"name":"canUsePaymaster","type":"bool","internalType":"bool"}],"stateMutability":"view"},{"type":"function","name":"areActionsEnabled","inputs":[{"name":"account","type":"address","internalType":"address"},{"name":"permissionId","type":"bytes32","internalType":"PermissionId"},{"name":"actions","type":"tuple[]","internalType":"struct ActionData[]","components":[{"name":"actionTargetSelector","type":"bytes4","internalType":"bytes4"},{"name":"actionTarget","type":"address","internalType":"address"},{"name":"actionPolicies","type":"tuple[]","internalType":"struct PolicyData[]","components":[{"name":"policy","type":"address","internalType":"address"},{"name":"initData","type":"bytes","internalType":"bytes"}]}]}],"outputs":[{"name":"","type":"bool","internalType":"bool"}],"stateMutability":"view"},{"type":"function","name":"areERC1271PoliciesEnabled","inputs":[{"name":"account","type":"address","internalType":"address"},{"name":"permissionId","type":"bytes32","internalType":"PermissionId"},{"name":"erc1271Policies","type":"tuple[]","internalType":"struct PolicyData[]","components":[{"name":"policy","type":"address","internalType":"address"},{"name":"initData","type":"bytes","internalType":"bytes"}]}],"outputs":[{"name":"","type":"bool","internalType":"bool"}],"stateMutability":"view"},{"type":"function","name":"areUserOpPoliciesEnabled","inputs":[{"name":"account","type":"address","internalType":"address"},{"name":"permissionId","type":"bytes32","internalType":"PermissionId"},{"name":"userOpPolicies","type":"tuple[]","internalType":"struct PolicyData[]","components":[{"name":"policy","type":"address","internalType":"address"},{"name":"initData","type":"bytes","internalType":"bytes"}]}],"outputs":[{"name":"","type":"bool","internalType":"bool"}],"stateMutability":"view"},{"type":"function","name":"disableActionId","inputs":[{"name":"permissionId","type":"bytes32","internalType":"PermissionId"},{"name":"actionId","type":"bytes32","internalType":"ActionId"}],"outputs":[],"stateMutability":"nonpayable"},{"type":"function","name":"disableActionPolicies","inputs":[{"name":"permissionId","type":"bytes32","internalType":"PermissionId"},{"name":"actionId","type":"bytes32","internalType":"ActionId"},{"name":"policies","type":"address[]","internalType":"address[]"}],"outputs":[],"stateMutability":"nonpayable"},{"type":"function","name":"disableERC1271Policies","inputs":[{"name":"permissionId","type":"bytes32","internalType":"PermissionId"},{"name":"policies","type":"address[]","internalType":"address[]"},{"name":"contexts","type":"tuple[]","internalType":"struct ERC7739Context[]","components":[{"name":"appDomainSeparator","type":"bytes32","internalType":"bytes32"},{"name":"contentNames","type":"string[]","internalType":"string[]"}]}],"outputs":[],"stateMutability":"nonpayable"},{"type":"function","name":"disableUserOpPolicies","inputs":[{"name":"permissionId","type":"bytes32","internalType":"PermissionId"},{"name":"policies","type":"address[]","internalType":"address[]"}],"outputs":[],"stateMutability":"nonpayable"},{"type":"function","name":"enableActionPolicies","inputs":[{"name":"permissionId","type":"bytes32","internalType":"PermissionId"},{"name":"actionPolicies","type":"tuple[]","internalType":"struct ActionData[]","components":[{"name":"actionTargetSelector","type":"bytes4","internalType":"bytes4"},{"name":"actionTarget","type":"address","internalType":"address"},{"name":"actionPolicies","type":"tuple[]","internalType":"struct PolicyData[]","components":[{"name":"policy","type":"address","internalType":"address"},{"name":"initData","type":"bytes","internalType":"bytes"}]}]}],"outputs":[],"stateMutability":"nonpayable"},{"type":"function","name":"enableERC1271Policies","inputs":[{"name":"permissionId","type":"bytes32","internalType":"PermissionId"},{"name":"erc1271Policies","type":"tuple","internalType":"struct ERC7739Data","components":[{"name":"allowedERC7739Content","type":"tuple[]","internalType":"struct ERC7739Context[]","components":[{"name":"appDomainSeparator","type":"bytes32","internalType":"bytes32"},{"name":"contentNames","type":"string[]","internalType":"string[]"}]},{"name":"erc1271Policies","type":"tuple[]","internalType":"struct PolicyData[]","components":[{"name":"policy","type":"address","internalType":"address"},{"name":"initData","type":"bytes","internalType":"bytes"}]}]}],"outputs":[],"stateMutability":"nonpayable"},{"type":"function","name":"enableSessions","inputs":[{"name":"sessions","type":"tuple[]","internalType":"struct Session[]","components":[{"name":"sessionValidator","type":"address","internalType":"contract ISessionValidator"},{"name":"sessionValidatorInitData","type":"bytes","internalType":"bytes"},{"name":"salt","type":"bytes32","internalType":"bytes32"},{"name":"userOpPolicies","type":"tuple[]","internalType":"struct PolicyData[]","components":[{"name":"policy","type":"address","internalType":"address"},{"name":"initData","type":"bytes","internalType":"bytes"}]},{"name":"erc7739Policies","type":"tuple","internalType":"struct ERC7739Data","components":[{"name":"allowedERC7739Content","type":"tuple[]","internalType":"struct ERC7739Context[]","components":[{"name":"appDomainSeparator","type":"bytes32","internalType":"bytes32"},{"name":"contentNames","type":"string[]","internalType":"string[]"}]},{"name":"erc1271Policies","type":"tuple[]","internalType":"struct PolicyData[]","components":[{"name":"policy","type":"address","internalType":"address"},{"name":"initData","type":"bytes","internalType":"bytes"}]}]},{"name":"actions","type":"tuple[]","internalType":"struct ActionData[]","components":[{"name":"actionTargetSelector","type":"bytes4","internalType":"bytes4"},{"name":"actionTarget","type":"address","internalType":"address"},{"name":"actionPolicies","type":"tuple[]","internalType":"struct PolicyData[]","components":[{"name":"policy","type":"address","internalType":"address"},{"name":"initData","type":"bytes","internalType":"bytes"}]}]},{"name":"canUsePaymaster","type":"bool","internalType":"bool"}]}],"outputs":[{"name":"permissionIds","type":"bytes32[]","internalType":"PermissionId[]"}],"stateMutability":"nonpayable"},{"type":"function","name":"enableUserOpPolicies","inputs":[{"name":"permissionId","type":"bytes32","internalType":"PermissionId"},{"name":"userOpPolicies","type":"tuple[]","internalType":"struct PolicyData[]","components":[{"name":"policy","type":"address","internalType":"address"},{"name":"initData","type":"bytes","internalType":"bytes"}]}],"outputs":[],"stateMutability":"nonpayable"},{"type":"function","name":"getActionPolicies","inputs":[{"name":"account","type":"address","internalType":"address"},{"name":"permissionId","type":"bytes32","internalType":"PermissionId"},{"name":"actionId","type":"bytes32","internalType":"ActionId"}],"outputs":[{"name":"","type":"address[]","internalType":"address[]"}],"stateMutability":"view"},{"type":"function","name":"getERC1271Policies","inputs":[{"name":"account","type":"address","internalType":"address"},{"name":"permissionId","type":"bytes32","internalType":"PermissionId"}],"outputs":[{"name":"","type":"address[]","internalType":"address[]"}],"stateMutability":"view"},{"type":"function","name":"getEnabledActions","inputs":[{"name":"account","type":"address","internalType":"address"},{"name":"permissionId","type":"bytes32","internalType":"PermissionId"}],"outputs":[{"name":"","type":"bytes32[]","internalType":"bytes32[]"}],"stateMutability":"view"},{"type":"function","name":"getEnabledERC7739Content","inputs":[{"name":"account","type":"address","internalType":"address"},{"name":"permissionId","type":"bytes32","internalType":"PermissionId"}],"outputs":[{"name":"enabledERC7739ContentHashes","type":"tuple[]","internalType":"struct ERC7739ContextHashes[]","components":[{"name":"appDomainSeparator","type":"bytes32","internalType":"bytes32"},{"name":"contentNameHashes","type":"bytes32[]","internalType":"bytes32[]"}]}],"stateMutability":"view"},{"type":"function","name":"getNonce","inputs":[{"name":"permissionId","type":"bytes32","internalType":"PermissionId"},{"name":"account","type":"address","internalType":"address"}],"outputs":[{"name":"","type":"uint256","internalType":"uint256"}],"stateMutability":"view"},{"type":"function","name":"getPermissionIDs","inputs":[{"name":"account","type":"address","internalType":"address"}],"outputs":[{"name":"permissionIds","type":"bytes32[]","internalType":"PermissionId[]"}],"stateMutability":"view"},{"type":"function","name":"getPermissionId","inputs":[{"name":"session","type":"tuple","internalType":"struct Session","components":[{"name":"sessionValidator","type":"address","internalType":"contract ISessionValidator"},{"name":"sessionValidatorInitData","type":"bytes","internalType":"bytes"},{"name":"salt","type":"bytes32","internalType":"bytes32"},{"name":"userOpPolicies","type":"tuple[]","internalType":"struct PolicyData[]","components":[{"name":"policy","type":"address","internalType":"address"},{"name":"initData","type":"bytes","internalType":"bytes"}]},{"name":"erc7739Policies","type":"tuple","internalType":"struct ERC7739Data","components":[{"name":"allowedERC7739Content","type":"tuple[]","internalType":"struct ERC7739Context[]","components":[{"name":"appDomainSeparator","type":"bytes32","internalType":"bytes32"},{"name":"contentNames","type":"string[]","internalType":"string[]"}]},{"name":"erc1271Policies","type":"tuple[]","internalType":"struct PolicyData[]","components":[{"name":"policy","type":"address","internalType":"address"},{"name":"initData","type":"bytes","internalType":"bytes"}]}]},{"name":"actions","type":"tuple[]","internalType":"struct ActionData[]","components":[{"name":"actionTargetSelector","type":"bytes4","internalType":"bytes4"},{"name":"actionTarget","type":"address","internalType":"address"},{"name":"actionPolicies","type":"tuple[]","internalType":"struct PolicyData[]","components":[{"name":"policy","type":"address","internalType":"address"},{"name":"initData","type":"bytes","internalType":"bytes"}]}]},{"name":"canUsePaymaster","type":"bool","internalType":"bool"}]}],"outputs":[{"name":"permissionId","type":"bytes32","internalType":"PermissionId"}],"stateMutability":"pure"},{"type":"function","name":"getSessionDigest","inputs":[{"name":"permissionId","type":"bytes32","internalType":"PermissionId"},{"name":"account","type":"address","internalType":"address"},{"name":"data","type":"tuple","internalType":"struct Session","components":[{"name":"sessionValidator","type":"address","internalType":"contract ISessionValidator"},{"name":"sessionValidatorInitData","type":"bytes","internalType":"bytes"},{"name":"salt","type":"bytes32","internalType":"bytes32"},{"name":"userOpPolicies","type":"tuple[]","internalType":"struct PolicyData[]","components":[{"name":"policy","type":"address","internalType":"address"},{"name":"initData","type":"bytes","internalType":"bytes"}]},{"name":"erc7739Policies","type":"tuple","internalType":"struct ERC7739Data","components":[{"name":"allowedERC7739Content","type":"tuple[]","internalType":"struct ERC7739Context[]","components":[{"name":"appDomainSeparator","type":"bytes32","internalType":"bytes32"},{"name":"contentNames","type":"string[]","internalType":"string[]"}]},{"name":"erc1271Policies","type":"tuple[]","internalType":"struct PolicyData[]","components":[{"name":"policy","type":"address","internalType":"address"},{"name":"initData","type":"bytes","internalType":"bytes"}]}]},{"name":"actions","type":"tuple[]","internalType":"struct ActionData[]","components":[{"name":"actionTargetSelector","type":"bytes4","internalType":"bytes4"},{"name":"actionTarget","type":"address","internalType":"address"},{"name":"actionPolicies","type":"tuple[]","internalType":"struct PolicyData[]","components":[{"name":"policy","type":"address","internalType":"address"},{"name":"initData","type":"bytes","internalType":"bytes"}]}]},{"name":"canUsePaymaster","type":"bool","internalType":"bool"}]},{"name":"mode","type":"uint8","internalType":"enum SmartSessionMode"}],"outputs":[{"name":"","type":"bytes32","internalType":"bytes32"}],"stateMutability":"view"},{"type":"function","name":"getSessionValidatorAndConfig","inputs":[{"name":"account","type":"address","internalType":"address"},{"name":"permissionId","type":"bytes32","internalType":"PermissionId"}],"outputs":[{"name":"sessionValidator","type":"address","internalType":"address"},{"name":"sessionValidatorData","type":"bytes","internalType":"bytes"}],"stateMutability":"view"},{"type":"function","name":"getUserOpPolicies","inputs":[{"name":"account","type":"address","internalType":"address"},{"name":"permissionId","type":"bytes32","internalType":"PermissionId"}],"outputs":[{"name":"","type":"address[]","internalType":"address[]"}],"stateMutability":"view"},{"type":"function","name":"isActionIdEnabled","inputs":[{"name":"account","type":"address","internalType":"address"},{"name":"permissionId","type":"bytes32","internalType":"PermissionId"},{"name":"actionId","type":"bytes32","internalType":"ActionId"}],"outputs":[{"name":"","type":"bool","internalType":"bool"}],"stateMutability":"view"},{"type":"function","name":"isActionPolicyEnabled","inputs":[{"name":"account","type":"address","internalType":"address"},{"name":"permissionId","type":"bytes32","internalType":"PermissionId"},{"name":"actionId","type":"bytes32","internalType":"ActionId"},{"name":"policy","type":"address","internalType":"address"}],"outputs":[{"name":"","type":"bool","internalType":"bool"}],"stateMutability":"view"},{"type":"function","name":"isERC1271PolicyEnabled","inputs":[{"name":"account","type":"address","internalType":"address"},{"name":"permissionId","type":"bytes32","internalType":"PermissionId"},{"name":"policy","type":"address","internalType":"address"}],"outputs":[{"name":"","type":"bool","internalType":"bool"}],"stateMutability":"view"},{"type":"function","name":"isERC7739ContentEnabled","inputs":[{"name":"account","type":"address","internalType":"address"},{"name":"permissionId","type":"bytes32","internalType":"PermissionId"},{"name":"appDomainSeparator","type":"bytes32","internalType":"bytes32"},{"name":"content","type":"string","internalType":"string"}],"outputs":[{"name":"","type":"bool","internalType":"bool"}],"stateMutability":"view"},{"type":"function","name":"isISessionValidatorSet","inputs":[{"name":"permissionId","type":"bytes32","internalType":"PermissionId"},{"name":"account","type":"address","internalType":"address"}],"outputs":[{"name":"","type":"bool","internalType":"bool"}],"stateMutability":"view"},{"type":"function","name":"isInitialized","inputs":[{"name":"smartAccount","type":"address","internalType":"address"}],"outputs":[{"name":"","type":"bool","internalType":"bool"}],"stateMutability":"view"},{"type":"function","name":"isModuleType","inputs":[{"name":"typeID","type":"uint256","internalType":"uint256"}],"outputs":[{"name":"","type":"bool","internalType":"bool"}],"stateMutability":"pure"},{"type":"function","name":"isPermissionEnabled","inputs":[{"name":"permissionId","type":"bytes32","internalType":"PermissionId"},{"name":"account","type":"address","internalType":"address"}],"outputs":[{"name":"","type":"bool","internalType":"bool"}],"stateMutability":"view"},{"type":"function","name":"isUserOpPolicyEnabled","inputs":[{"name":"account","type":"address","internalType":"address"},{"name":"permissionId","type":"bytes32","internalType":"PermissionId"},{"name":"policy","type":"address","internalType":"address"}],"outputs":[{"name":"","type":"bool","internalType":"bool"}],"stateMutability":"view"},{"type":"function","name":"isValidSignatureWithSender","inputs":[{"name":"sender","type":"address","internalType":"address"},{"name":"hash","type":"bytes32","internalType":"bytes32"},{"name":"signature","type":"bytes","internalType":"bytes"}],"outputs":[{"name":"result","type":"bytes4","internalType":"bytes4"}],"stateMutability":"view"},{"type":"function","name":"onInstall","inputs":[{"name":"data","type":"bytes","internalType":"bytes"}],"outputs":[],"stateMutability":"nonpayable"},{"type":"function","name":"onUninstall","inputs":[{"name":"","type":"bytes","internalType":"bytes"}],"outputs":[],"stateMutability":"nonpayable"},{"type":"function","name":"removeSession","inputs":[{"name":"permissionId","type":"bytes32","internalType":"PermissionId"}],"outputs":[],"stateMutability":"nonpayable"},{"type":"function","name":"revokeEnableSignature","inputs":[{"name":"permissionId","type":"bytes32","internalType":"PermissionId"}],"outputs":[],"stateMutability":"nonpayable"},{"type":"function","name":"setCanUsePaymaster","inputs":[{"name":"permissionId","type":"bytes32","internalType":"PermissionId"},{"name":"enabled","type":"bool","internalType":"bool"}],"outputs":[],"stateMutability":"nonpayable"},{"type":"function","name":"validateUserOp","inputs":[{"name":"userOp","type":"tuple","internalType":"struct PackedUserOperation","components":[{"name":"sender","type":"address","internalType":"address"},{"name":"nonce","type":"uint256","internalType":"uint256"},{"name":"initCode","type":"bytes","internalType":"bytes"},{"name":"callData","type":"bytes","internalType":"bytes"},{"name":"accountGasLimits","type":"bytes32","internalType":"bytes32"},{"name":"preVerificationGas","type":"uint256","internalType":"uint256"},{"name":"gasFees","type":"bytes32","internalType":"bytes32"},{"name":"paymasterAndData","type":"bytes","internalType":"bytes"},{"name":"signature","type":"bytes","internalType":"bytes"}]},{"name":"userOpHash","type":"bytes32","internalType":"bytes32"}],"outputs":[{"name":"vd","type":"uint256","internalType":"ValidationData"}],"stateMutability":"nonpayable"},{"type":"event","name":"ActionIdDisabled","inputs":[{"name":"permissionId","type":"bytes32","indexed":false,"internalType":"PermissionId"},{"name":"actionId","type":"bytes32","indexed":false,"internalType":"ActionId"},{"name":"smartAccount","type":"address","indexed":false,"internalType":"address"}],"anonymous":false},{"type":"event","name":"NonceIterated","inputs":[{"name":"permissionId","type":"bytes32","indexed":false,"internalType":"PermissionId"},{"name":"account","type":"address","indexed":false,"internalType":"address"},{"name":"newValue","type":"uint256","indexed":false,"internalType":"uint256"}],"anonymous":false},{"type":"event","name":"PermissionIdCanUsePaymaster","inputs":[{"name":"permissionId","type":"bytes32","indexed":false,"internalType":"PermissionId"},{"name":"smartAccount","type":"address","indexed":false,"internalType":"address"},{"name":"enabled","type":"bool","indexed":false,"internalType":"bool"}],"anonymous":false},{"type":"event","name":"PolicyDisabled","inputs":[{"name":"permissionId","type":"bytes32","indexed":false,"internalType":"PermissionId"},{"name":"policyType","type":"uint8","indexed":false,"internalType":"enum PolicyType"},{"name":"policy","type":"address","indexed":false,"internalType":"address"},{"name":"smartAccount","type":"address","indexed":false,"internalType":"address"}],"anonymous":false},{"type":"event","name":"PolicyEnabled","inputs":[{"name":"permissionId","type":"bytes32","indexed":false,"internalType":"PermissionId"},{"name":"policyType","type":"uint8","indexed":false,"internalType":"enum PolicyType"},{"name":"policy","type":"address","indexed":false,"internalType":"address"},{"name":"smartAccount","type":"address","indexed":false,"internalType":"address"}],"anonymous":false},{"type":"event","name":"SessionCreated","inputs":[{"name":"permissionId","type":"bytes32","indexed":false,"internalType":"PermissionId"},{"name":"account","type":"address","indexed":false,"internalType":"address"}],"anonymous":false},{"type":"event","name":"SessionRemoved","inputs":[{"name":"permissionId","type":"bytes32","indexed":false,"internalType":"PermissionId"},{"name":"smartAccount","type":"address","indexed":false,"internalType":"address"}],"anonymous":false},{"type":"event","name":"SessionValidatorDisabled","inputs":[{"name":"permissionId","type":"bytes32","indexed":false,"internalType":"PermissionId"},{"name":"sessionValidator","type":"address","indexed":false,"internalType":"address"},{"name":"smartAccount","type":"address","indexed":false,"internalType":"address"}],"anonymous":false},{"type":"event","name":"SessionValidatorEnabled","inputs":[{"name":"permissionId","type":"bytes32","indexed":false,"internalType":"PermissionId"},{"name":"sessionValidator","type":"address","indexed":false,"internalType":"address"},{"name":"smartAccount","type":"address","indexed":false,"internalType":"address"}],"anonymous":false},{"type":"error","name":"AssociatedArray_OutOfBounds","inputs":[{"name":"index","type":"uint256","internalType":"uint256"}]},{"type":"error","name":"ChainIdMismatch","inputs":[{"name":"providedChainId","type":"uint64","internalType":"uint64"}]},{"type":"error","name":"ChainIdMismatch","inputs":[{"name":"providedChainId","type":"uint64","internalType":"uint64"}]},{"type":"error","name":"ForbiddenValidationData","inputs":[]},{"type":"error","name":"HashIndexOutOfBounds","inputs":[{"name":"index","type":"uint256","internalType":"uint256"}]},{"type":"error","name":"HashMismatch","inputs":[{"name":"providedHash","type":"bytes32","internalType":"bytes32"},{"name":"computedHash","type":"bytes32","internalType":"bytes32"}]},{"type":"error","name":"HashMismatch","inputs":[{"name":"providedHash","type":"bytes32","internalType":"bytes32"},{"name":"computedHash","type":"bytes32","internalType":"bytes32"}]},{"type":"error","name":"InvalidActionId","inputs":[]},{"type":"error","name":"InvalidCallTarget","inputs":[]},{"type":"error","name":"InvalidData","inputs":[]},{"type":"error","name":"InvalidDataLength","inputs":[]},{"type":"error","name":"InvalidEnableSignature","inputs":[{"name":"account","type":"address","internalType":"address"},{"name":"hash","type":"bytes32","internalType":"bytes32"}]},{"type":"error","name":"InvalidISessionValidator","inputs":[{"name":"sessionValidator","type":"address","internalType":"contract ISessionValidator"}]},{"type":"error","name":"InvalidMode","inputs":[]},{"type":"error","name":"InvalidPermissionId","inputs":[{"name":"permissionId","type":"bytes32","internalType":"PermissionId"}]},{"type":"error","name":"InvalidSelfCall","inputs":[]},{"type":"error","name":"InvalidSession","inputs":[{"name":"permissionId","type":"bytes32","internalType":"PermissionId"}]},{"type":"error","name":"InvalidSessionKeySignature","inputs":[{"name":"permissionId","type":"bytes32","internalType":"PermissionId"},{"name":"sessionValidator","type":"address","internalType":"address"},{"name":"account","type":"address","internalType":"address"},{"name":"userOpHash","type":"bytes32","internalType":"bytes32"}]},{"type":"error","name":"InvalidTarget","inputs":[]},{"type":"error","name":"InvalidUserOpSender","inputs":[{"name":"sender","type":"address","internalType":"address"}]},{"type":"error","name":"NoExecutionsInBatch","inputs":[]},{"type":"error","name":"NoPoliciesSet","inputs":[{"name":"permissionId","type":"bytes32","internalType":"PermissionId"}]},{"type":"error","name":"PartlyEnabledActions","inputs":[]},{"type":"error","name":"PartlyEnabledPolicies","inputs":[]},{"type":"error","name":"PaymasterValidationNotEnabled","inputs":[{"name":"permissionId","type":"bytes32","internalType":"PermissionId"}]},{"type":"error","name":"PolicyViolation","inputs":[{"name":"permissionId","type":"bytes32","internalType":"PermissionId"},{"name":"policy","type":"address","internalType":"address"}]},{"type":"error","name":"SignerNotFound","inputs":[{"name":"permissionId","type":"bytes32","internalType":"PermissionId"},{"name":"account","type":"address","internalType":"address"}]},{"type":"error","name":"SignerNotFound","inputs":[{"name":"permissionId","type":"bytes32","internalType":"PermissionId"},{"name":"account","type":"address","internalType":"address"}]},{"type":"error","name":"SmartSessionModuleAlreadyInstalled","inputs":[{"name":"account","type":"address","internalType":"address"}]},{"type":"error","name":"UnsupportedExecutionType","inputs":[]},{"type":"error","name":"UnsupportedPolicy","inputs":[{"name":"policy","type":"address","internalType":"address"}]},{"type":"error","name":"UnsupportedPolicy","inputs":[{"name":"policy","type":"address","internalType":"address"}]},{"type":"error","name":"UnsupportedSmartSessionMode","inputs":[{"name":"mode","type":"uint8","internalType":"enum SmartSessionMode"}]}],"bytecode":{"object":"0x6080604052348015600e575f5ffd5b506160de8061001c5f395ff3fe608060405234801561000f575f5ffd5b5060043610610283575f3560e01c806396e7296211610157578063d0e6f608116100d2578063f5297b7711610088578063f77a7eac1161006e578063f77a7eac146105db578063f867b08e146105ee578063f9b8036914610601575f5ffd5b8063f5297b771461059c578063f551e2ee146105af575f5ffd5b8063d60b347f116100b8578063d60b347f14610562578063eab2566714610575578063ecd0596114610588575f5ffd5b8063d0e6f6081461052f578063d527ed6e1461054f575f5ffd5b8063a9fa4b4411610127578063af29e6b21161010d578063af29e6b2146104f6578063c9a5ec3914610509578063d056b06d1461051c575f5ffd5b8063a9fa4b44146104c3578063adbc532f146104e3575f5ffd5b806396e7296214610477578063970032031461048a578063a67c714e1461049d578063a7ef6205146104b0575f5ffd5b806344d1628c116102015780636e79eee0116101b75780637373f1811161019d5780637373f1811461041e578063795f9269146104315780638a91b0e314610464575f5ffd5b80636e79eee0146103de57806370f1dbb1146103f1575f5ffd5b8063496c8a91116101e7578063496c8a91146103975780634e33ad2e146103b85780636d61fe70146103cb575f5ffd5b806344d1628c14610364578063454c9d8214610384575f5ffd5b80631be1fffb116102565780632445e73e1161023c5780632445e73e1461032b5780632cca983d1461033e5780632dadb5e914610351575f5ffd5b80631be1fffb146102f8578063217124071461030b575f5ffd5b806302a1a4cd1461028757806305defba61461029c57806309e5aef8146102c25780631097109e146102e5575b5f5ffd5b61029a6102953660046145ff565b610614565b005b6102af6102aa366004614b8b565b610684565b6040519081526020015b60405180910390f35b6102d56102d0366004614ccc565b6106bc565b60405190151581526020016102b9565b6102d56102f3366004614d13565b6106e8565b6102af610306366004614d6a565b6106f7565b61031e610319366004614da0565b610707565b6040516102b99190614dde565b6102d5610339366004614d13565b61071c565b61029a61034c366004614e20565b61072b565b6102d561035f366004614d13565b6107a4565b610377610372366004614e4e565b6107b3565b6040516102b99190614e78565b61029a610392366004614eb8565b6107cd565b6103aa6103a5366004614e4e565b61080a565b6040516102b9929190614f1f565b61029a6103c6366004614f40565b61084b565b61029a6103d9366004614fb6565b610866565b61029a6103ec366004614fe8565b610975565b6102d56103ff36600461501e565b600a60209081525f928352604080842090915290825290205460ff1681565b61031e61042c366004615041565b610a25565b6102af61043f36600461501e565b5f918252602082815260408084206001600160a01b0393909316845291905290205490565b61029a610472366004614fb6565b610a33565b61029a61048536600461505c565b610a72565b6102af61049836600461507c565b610afd565b6103776104ab366004614e4e565b610c91565b6102d56104be3660046150b4565b610cab565b6104d66104d1366004614e4e565b610cc3565b6040516102b9919061512d565b6102d56104f136600461501e565b610cdd565b6102d561050436600461513f565b610cea565b6102d561051736600461501e565b610d02565b61029a61052a366004615171565b610d2c565b61054261053d366004614e4e565b610d47565b6040516102b991906151b8565b61037761055d36600461513f565b610e87565b6102d5610570366004615041565b610eac565b6102d5610583366004615232565b610ec2565b6102d5610596366004615290565b60011490565b61029a6105aa3660046152a7565b610ef5565b6105c26105bd3660046152e5565b610f57565b6040516001600160e01b031990911681526020016102b9565b6102d56105e93660046150b4565b610ff1565b61029a6105fc366004615290565b611009565b61029a61060f366004615290565b611155565b846106206005826111cf565b61062c600533886111fe565b15155f03610655576040516324b5a7e760e21b8152600481018790526024015b60405180910390fd5b61066c6106628385615330565b6007908833611229565b61067c6002600333898989611342565b505050505050565b5f848152602081815260408083206001600160a01b03871684529091528120546106b0848685846113e6565b9150505b949350505050565b5f82815260036020908152604080832086845290915281206106df9086846113f4565b95945050505050565b5f6106df600285878686611424565b5f610701826114b5565b92915050565b606061071583836001611505565b9392505050565b5f6106df600185878686611424565b6107366005836111cf565b5f828152600a602090815260408083203380855290835292819020805460ff19166001179055805185815291820192909252821515918101919091527fa281e1a78ed9e87a1f99f00fb4d03699e2c176c0943496e206e81107e176acf8906060015b60405180910390a15050565b5f6106df6003858786866117d4565b5f8181526001602052604090206060906107159084611899565b816107d96005826111cf565b6107fa6001846107ed816118a6565b6118a6565b60019291908633856118b1565b6108056005826111cf565b505050565b5f8181526009602090815260408083206001600160a01b038087168552925290912080549091169060609061084160018201611a5f565b9150509250929050565b816108576005826111cf565b6107fa60038484336001611a6a565b5f610872600533611ba8565b11156108ac576040517fbcf00e1d00000000000000000000000000000000000000000000000000000000815233600482015260240161064c565b5f8190036108b8575050565b5f6108c6600182848661533c565b6108cf91615363565b60f81c60028111156108e3576108e361539b565b90506108ff8160028111156108fa576108fa61539b565b611bb3565b610935576040517fa0042b1700000000000000000000000000000000000000000000000000000000815260040160405180910390fd5b610942826001818661533c565b90935091508235830160208101903561067c828261097086600281111561096b5761096b61539b565b611beb565b611505565b836109816005826111cf565b5f84815260036020526040902061099d90600233888787611342565b5f84815260036020908152604080832088845290915290206109bf9033611ba8565b5f03610a1e575f8581526004602052604090206109dd903386611bf3565b506040805186815260208101869052338183015290517ffb5966a10bbfa837a7964784b0eb92d624218037b24ae5d1aeae23157f21453f9181900360600190a15b5050505050565b60605f610715600584611899565b5f610a3f600533611ba8565b90505f5b81811015610a6c575f610a5860053383611bff565b9050610a6381611009565b50600101610a43565b50505050565b81610a7e6005826111cf565b5f8281526003602090815260408083208684529091529020610aa09033611c0b565b5f838152600460205260409020610ab8903384611bf3565b506040805184815260208101849052338183015290517ffb5966a10bbfa837a7964784b0eb92d624218037b24ae5d1aeae23157f21453f9181900360600190a1505050565b5f80610b0c6020850185615041565b90506001600160a01b0381163314610b5b576040517f04a4ab940000000000000000000000000000000000000000000000000000000081526001600160a01b038216600482015260240161064c565b5f803681610b75610b706101008a018a6153af565b611c15565b9350935093509350610b97846002811115610b9257610b9261539b565b611ca9565b15610bed57610be683888a610be086868080601f0160208091040260200160405190810160405280939291908181526020018383808284375f92019190915250611cb092505050565b89611cce565b9550610c86565b610c028460028111156108fa576108fa61539b565b15610c5257610c0f614535565b6060610c1b8484612074565b60408201519193509150610c2e906120da565b9450610c3c828689896120fb565b610c49858a8c848b611cce565b97505050610c86565b836040517f97dc33dc00000000000000000000000000000000000000000000000000000000815260040161064c91906153f1565b505050505092915050565b5f8181526002602052604090206060906107159084611899565b5f8281526002602052604081206106b49085846113f4565b5f8181526004602052604090206060906107159084611899565b5f610715600583856111fe565b5f8281526004602052604081206106b49085846111fe565b5f8281526009602090815260408083206001600160a01b0380861685529252822054161515610715565b82610d386005826111cf565b610a6c60018033878787611342565b5f81815260086020526040812060609190610d629085611ba8565b9050806001600160401b03811115610d7c57610d7c61469d565b604051908082528060200260200182016040528015610dc157816020015b604080518082019091525f815260606020820152815260200190600190039081610d9a5790505b5091505f5b81811015610e7f575f848152600860205260409020610de6908683611bff565b838281518110610df857610df861540b565b60200260200101515f018181525050610e578560075f015f8781526020019081526020015f205f868581518110610e3157610e3161540b565b60200260200101515f015181526020019081526020015f2061189990919063ffffffff16565b838281518110610e6957610e6961540b565b6020908102919091018101510152600101610dc6565b505092915050565b5f81815260036020908152604080832085845290915290206060906106b49085611899565b5f80610eb9600584611ba8565b15159392505050565b5f6106df85610ed684805160209091012090565b5f878152600760209081526040808320898452909152902091906111fe565b81610f016005826111cf565b610f21610f0e838061541f565b610f1791615330565b6007908533612311565b6107fa600384610f336107e8876123db565b610f40602087018761541f565b610f4991615464565b6002939291903360016118b1565b5f7f7739773977397739773977397739773977397739773977397739773977397739849003610fa757507f77390001000000000000000000000000000000000000000000000000000000006106b4565b306001600160a01b03861603610fc657506001600160e01b03196106b4565b5f610fdb8686610fd68787612415565b61244a565b155f03631626ba7e1760e01b9695505050505050565b5f8281526001602052604081206106b49085846113f4565b8061102a576040516324b5a7e760e21b81526004810182905260240161064c565b5f8181526001602052604090206110419033611c0b565b5f8181526002602052604090206110589033611c0b565b5f81815260046020526040812061106f9033611ba8565b90505f5b818110156110c1575f838152600460205260408120611093903384611bff565b5f81815260036020908152604080832088845290915290209091506110b89033611c0b565b50600101611073565b505f8281526004602052604090206110d99033611c0b565b6110e5600983336126b2565b5f828152600a60209081526040808320338085529252909120805460ff191690556111139060059084611bf3565b506111206007833361273e565b604080518381523360208201527f1ff4377bcf87e5e9c2ec7fdc4732408c1073dd4b9f49e719d783b1e4fb0f62819101610798565b5f8181526020818152604080832033845290915281208054908261117883615484565b9091555090507fb21cd80665df6c8932e067c1fb0835dc3bc61d85bcab4c90a9992b692d8e17e282336111ac84600161549c565b604080519384526001600160a01b03909216602084015290820152606001610798565b6111da8233836111fe565b6111fa5760405163526d0da560e01b81526004810182905260240161064c565b5050565b5f81815260018401602090815260408083206001600160a01b038616845290915281205415156106b4565b82515f5b8181101561067c575f8582815181106112485761124861540b565b60200260200101515f015190505f8683815181106112685761126861540b565b6020026020010151602001515190505f5b818110156112f5575f6112c78986815181106112975761129761540b565b60200260200101516020015183815181106112b4576112b461540b565b6020026020010151805160209091012090565b5f89815260208c8152604080832088845290915290209091506112eb908883611bf3565b5050600101611279565b505f8681526020898152604080832085845290915290206113169086611ba8565b5f03611338575f8681526001890160205260409020611336908684611bf3565b505b505060010161122d565b805f5b818110156113dc575f8484838181106113605761136061540b565b90506020020160208101906113759190615041565b5f87815260208b9052604090209091506113909088836127cb565b156113d3577fb2a53c8ed9d14361634fc2a7835a222e5dbec408b6cef4e06768e844613fa7548689838a6040516113ca94939291906154af565b60405180910390a15b50600101611345565b5050505050505050565b5f6106df85853086866127e0565b6001600160a01b038181165f908152600185016020908152604080832093861683529290529081205415156106b4565b5f818082036114375760019150506106df565b5f5b818110156114a7575f8585838181106114545761145461540b565b905060200281019061146691906154eb565b61146f90615509565b80515f8a815260208c9052604090209192509061148d9089836113f4565b61149d575f9450505050506106df565b5050600101611439565b506001979650505050505050565b5f6114c36020830183615041565b6114d060208401846153af565b84604001356040516020016114e8949392919061553c565b604051602081830303815290604052805190602001209050919050565b6060825f819003611542576040517f5cb045db00000000000000000000000000000000000000000000000000000000815260040160405180910390fd5b806001600160401b0381111561155a5761155a61469d565b604051908082528060200260200182016040528015611583578160200160208202803683370190505b5091505f5b818110156117cb57368686838181106115a3576115a361540b565b90506020028101906115b5919061556f565b90505f6115c1826114b5565b90506115f56001826115d2816118a6565b6115df606087018761541f565b6115e891615464565b600193929190338c6118b1565b6116386003826116076107e8856123db565b61161460808701876154eb565b61162290602081019061541f565b61162b91615464565b600293929190338c6118b1565b61166561164860808401846154eb565b611652908061541f565b61165b91615330565b6007908333612311565b61168a8161167660a085018561541f565b61167f91615583565b60039190338a611a6a565b611696600533836128d5565b506116a760e0830160c0840161558f565b156116d0575f818152600a602090815260408083203384529091529020805460ff191660011790555b5f8181526009602090815260408083203384529091529020546001600160a01b03166117575761175781336117086020860186615041565b61171560208701876153af565b8080601f0160208091040260200160405190810160405280939291908181526020018383808284375f92019190915250600996959493925060019150506128e1565b8085848151811061176a5761176a61540b565b6020026020010181815250507fc5c98ce9477fc2c88a84abed218cda086be8442fc2eecb9e1ce33941d28741b681336040516117b99291909182526001600160a01b0316602082015260400190565b60405180910390a15050600101611588565b50509392505050565b5f818082036117e75760019150506106df565b5f5b818110156114a757368585838181106118045761180461540b565b905060200281019061181691906155aa565b90505f61184861182960208401846155be565b6118396040850160208601615041565b6001600160a01b031690612ae8565b905061187f898961185c604086018661541f565b8e5f015f8781526020019081526020015f2061142490949392919063ffffffff16565b61188f575f9450505050506106df565b50506001016117e9565b60605f6106b48484612b38565b5f6107018233612b44565b82515f5b81811015611a54575f8582815181106118d0576118d061540b565b60209081029190910101515190506118f16001600160a01b0382168a612b71565b831561197b576040517f4c13560c0000000000000000000000000000000000000000000000000000000081526001600160a01b038087166004830152821660248201526e69e2a187aeffb852bf3ccdc95151b290634c13560c906044015f6040518083038186803b158015611964575f5ffd5b505afa158015611976573d5f5f3e3d5ffd5b505050505b5f88815260208b905260409020611993908683612c78565b50806001600160a01b031663989c9e4686898986815181106119b7576119b761540b565b6020026020010151602001516040518463ffffffff1660e01b81526004016119e1939291906155d9565b5f604051808303815f87803b1580156119f8575f5ffd5b505af1158015611a0a573d5f5f3e3d5ffd5b505050507f1c5ea73ef804151087de6d0ce7a77287b15cfc4f51654cac5bfe6c558547f827888a8388604051611a4394939291906154af565b60405180910390a1506001016118b5565b505050505050505050565b606061070182612c8d565b83611a8b5760405163526d0da560e01b81526004810185905260240161064c565b82515f5b81811015611b9f575f858281518110611aaa57611aaa61540b565b602002602001015190505f6001600160a01b031681602001516001600160a01b03161480611ae4575060208101516001600160a01b031630145b15611b025760405163703469d160e11b815260040160405180910390fd5b805160208201515f91611b1e916001600160a01b031690612ae8565b905080611b3e5760405163703469d160e11b815260040160405180910390fd5b611b7a600289611b4e8185612d53565b85604001518a8a8f5f015f8981526020019081526020015f206118b1909695949392919063ffffffff16565b5f88815260018a0160205260409020611b949087836128d5565b505050600101611a8f565b50505050505050565b5f6107158383612d67565b5f6001826002811115611bc857611bc861539b565b1480610701575060025b826002811115611be457611be461539b565b1492915050565b5f6001611bd2565b5f6106b4848484612d72565b5f6106b4848484612e50565b6111fa8282612e5c565b5f803681611c26600182878961533c565b611c2f91615363565b60f81c6002811115611c4357611c4361539b565b9350611c5a8460028111156108fa576108fa61539b565b15611c7557611c6c856001818961533c565b91509150611ca0565b611c8360216001878961533c565b611c8c91615600565b9250611c9b856021818961533c565b915091505b92959194509250565b5f80611bd2565b6060611cbb82612eaa565b806020019051810190610701919061566c565b5f611cdb600583886111fe565b611cfb5760405163526d0da560e01b81526004810187905260240161064c565b5f611d0960e08601866153af565b159050611d77575f878152600a602090815260408083206001600160a01b038716845290915290205460ff1615611d4257506001611d77565b6040517fd5dc9fa40000000000000000000000000000000000000000000000000000000081526004810188905260240161064c565b611dcc8588611d85816118a6565b88604051602401611d979291906156de565b60408051601f198184030181529190526020810180516001600160e01b0316633894f6e760e11b179052600192919085612f66565b91505f9050611dde60608601866153af565b611dec916004915f9161533c565b611df5916157d5565b90507f1651a3ad000000000000000000000000000000000000000000000000000000006001600160e01b0319821601611f43575f80611e3f611e3a60608901896153af565b61300e565b90925090506001600160f81b0319811615611e6d57604051636c4872f960e01b815260040160405180910390fd5b6001600160f81b03198216600160f81b03611ea157611e9a611e936003898c6001613037565b859061311c565b9350611f3c565b6001600160f81b03198216611f23575f803681611ee3611ede611ec760608e018e6153af565b506024818101359091019081019160049091013590565b6131ef565b9350935093509350611f18611f118c8f87878787600160035f0161323490979695949392919063ffffffff16565b899061311c565b975050505050611f3c565b604051636c4872f960e01b815260040160405180910390fd5b5050612048565b7f72288ed1000000000000000000000000000000000000000000000000000000006001600160e01b0319821601611f8d57604051636c4872f960e01b815260040160405180910390fd5b5f611fc5611f9e60608801886153af565b611fac916004915f9161533c565b611fb5916157d5565b6001600160a01b03861690612ae8565b905061204461203d878a611fd98186612d53565b88805f611fe960608f018f6153af565b604051602401611ffe9695949392919061580a565b60408051601f19818403018152918152602080830180516001600160e01b03166305c0089560e01b1790525f8881526003909152209291906001612f66565b849061311c565b9250505b5f612057600988868b8961353e565b905080612069576001925050506106df565b505095945050505050565b61207c614535565b60606120bc84848080601f0160208091040260200160405190810160405280939291908181526020018383808284375f92019190915250612eaa92505050565b8060200190518101906120cf9190615d31565b909590945092505050565b5f815f0151826020015183604001516040516020016114e893929190615e29565b5f838152602081815260408083206001600160a01b038616845290915281208054908261212783615484565b9091555090505f61213a8685848661364a565b60608701516040517f1626ba7e000000000000000000000000000000000000000000000000000000008082529293506001600160a01b03871691631626ba7e91612188918691600401615e5a565b602060405180830381865afa1580156121a3573d5f5f3e3d5ffd5b505050506040513d601f19601f820116820180604052508101906121c79190615e72565b6001600160e01b0319161461221a576040517f3ca8ef0c0000000000000000000000000000000000000000000000000000000081526001600160a01b03851660048201526024810182905260440161064c565b5f61223084600281111561096b5761096b61539b565b9050612257600187612241816118a6565b60408b0151606001516001939291908a876118b1565b6040870151608001515161226f906007908888612311565b61229b6003876122816107e88a6123db565b60408b015160800151602001516002939291908a876118b1565b604087015160a001516122b49060039088908885611a6a565b5f8681526009602090815260408083206001600160a01b03808a168552925290912054166122fa57604087015180516020909101516122fa9160099189918991866128e1565b6113dc600533886128d5565b805160209091012090565b82515f5b8181101561067c575f8582815181106123305761233061540b565b60200260200101515f015190505f8683815181106123505761235061540b565b602002602001015160200151519050805f14612382575f86815260018901602052604090206123809086846128d5565b505b5f5b818110156123d0575f6123a28986815181106112975761129761540b565b5f89815260208c8152604080832088845290915290209091506123c69088836128d5565b5050600101612384565b505050600101612315565b6040517f455243313237313a2000000000000000000000000000000000000000000000006020820152602981018290525f906049016114e8565b365f83839150915061ffff606051190461649202602082038301350361244357506040810135016020810190355b9250929050565b5f828282308015612506575f5f5f5f5f336001600160a01b03166384b0196e6040518163ffffffff1660e01b81526004015f60405180830381865afa158015612495573d5f5f3e3d5ffd5b505050506040513d5f823e601f3d908101601f191682016040526124bc9190810190615ee8565b506040805186516020978801208183015285519590960194909420606086015260808501929092526001600160a01b031660a084015260c083015260e08201905296505050505050505b6040516002870388013560f01c806042018089038a016119015f526040816020377f5479706564446174615369676e280000000000000000000000000000000000008452600e8401836040830182376040820198508397506028848201526029600185830103515f1a146125aa575f6001858301035b6001820191506029828203515f1a148683101161257c57508085039450808560408501018337602881830153505b6f07fffffe00000000000001000000000081515f1a1c5b602882515f1a146125e757806512010000000183515f1a1c1790506001820191506125c1565b7f20636f6e74656e74732c737472696e67206e616d652c737472696e670000000082527f2076657273696f6e2c75696e7432353620636861696e49642c61646472657373601c8301527f20766572696679696e67436f6e74726163742c627974657333322073616c7429603c830152605c82019150846040840183376040838837858583010386208752602051975060e0872060405280600116604201601e209d50505050808903985050506040526126a58989898986898961375f565b9998505050505050505050565b5f828152602084815260408083206001600160a01b03858116808652918452938290208054835188815295169385019390935290830152907f1b8b78a1623842b0534f626565151ce282cc88268c30bf8d525c59d0c22f21db9060600160405180910390a1805473ffffffffffffffffffffffffffffffffffffffff19168155610a6c600182016138a6565b5f82815260018401602052604081206127579083611899565b80519091505f5b818110156127b1575f8382815181106127795761277961540b565b6020908102919091018101515f8881528983526040808220838352909352919091209091506127a89086611c0b565b5060010161275e565b505f8481526001860160205260409020610a1e9084611c0b565b5f6106b484846001600160a01b038516612d72565b5f7fc1211ac69ffe18c099e596ce9a4395ae7a1400e7db4ae9a45fcdc0a67709ffa285858560028111156128165761281661539b565b895160408b01516020808d0151805191012060608d0151612836906138c6565b6128438e6080015161393f565b6128508f60a001516139b9565b60408051602081019b909b526001600160a01b03998a16908b015296881660608a015260ff90951660808901529590921660a087015260c086015260e085015261010084019290925261012083019190915261014082015261016081018390526101800160405160208183030381529060405280519060200120905095945050505050565b5f6106b4848484613a13565b6001600160a01b038316158061297457506040517fecd05961000000000000000000000000000000000000000000000000000000008152600760048201526001600160a01b0384169063ecd0596190602401602060405180830381865afa15801561294e573d5f5f3e3d5ffd5b505050506040513d601f19601f820116820180604052508101906129729190615fb8565b155b156129b6576040517fa7eae1120000000000000000000000000000000000000000000000000000000081526001600160a01b038416600482015260240161064c565b8015612a47576040517f529562a10000000000000000000000000000000000000000000000000000000081526001600160a01b03808616600483015284166024820152600760448201526e69e2a187aeffb852bf3ccdc95151b29063529562a1906064015f6040518083038186803b158015612a30575f5ffd5b505afa158015612a42573d5f5f3e3d5ffd5b505050505b5f858152602087815260408083206001600160a01b0388811685529252909120805473ffffffffffffffffffffffffffffffffffffffff1916918516919091178155612a966001820184613a87565b604080518781526001600160a01b03868116602083015287168183015290517f9e1deb1dcdedd38e68d5543a9a6be8416a0e0a5627628e47780bd6ef8abc1a3c9181900360600190a150505050505050565b6040516bffffffffffffffffffffffff19606084901b1660208201526001600160e01b0319821660348201525f906038015b60405160208183030381529060405280519060200120905092915050565b60606107158383613aff565b6040516bffffffffffffffffffffffff19606083901b166020820152603481018390525f90605401612b1a565b5f6001826003811115612b8657612b8661539b565b03612bac57612ba56001600160a01b038416633894f6e760e11b613b0b565b9050612c4f565b6002826003811115612bc057612bc061539b565b03612bdf57612ba56001600160a01b0384166305c0089560e01b613b0b565b6003826003811115612bf357612bf361539b565b03612c2b57612ba56001600160a01b0384167fcbf3450500000000000000000000000000000000000000000000000000000000613b0b565b604051636a01dd0160e01b81526001600160a01b038416600482015260240161064c565b8061080557604051636a01dd0160e01b81526001600160a01b038416600482015260240161064c565b5f6106b484846001600160a01b038516613a13565b80546060905f6020612ca083601f61549c565b612caa9190615fd3565b9050600184015f826001600160401b03811115612cc957612cc961469d565b604051908082528060200260200182016040528015612cf2578160200160208202803683370190505b5090505f5b83811015612d2d575f81840154905080838381518110612d1957612d1961540b565b602090810291909101015250600101612cf7565b5080604051602001612d3f9190615ff2565b604080519190529384525091949350505050565b5f610715612d618484613b26565b33612b44565b5f6107158383613b41565b5f81815260018401602090815260408083206001600160a01b03861684529091528120548015612e47575f612da8600183616027565b90505f6001612db78888613b41565b612dc19190616027565b9050808214612e0b575f612dd6888884613b54565b9050612de488888584613b60565b5f90815260018801602090815260408083206001600160a01b038a16845290915290208390555b612e158787613b6c565b5050505f8281526001808601602090815260408084206001600160a01b03881685529091528220919091559050610715565b5f915050610715565b5f6106b4848484613b54565b5f612e678383612d67565b905060015b818111610a6c575f612e888585612e838587616027565b612e50565b9050612e95858583612d72565b50508080612ea290615484565b915050612e6c565b60405181516020838101938184019201015b80841015612f4e578351805f1a8060051c80612eee575060018681015185529581016002019593019092019150612ebc565b600781148360011a600701821881028218600201600185836001011a85601f1660081b0101808803602082186020831102821891505f5b818101518a8201528201838110612f25579a84016002019a988301985050505050505050612ebc565b50601f198282030182525f8152602001604052919050565b5f80612f8b612f786020880188615041565b5f87815260208a90526040902090611899565b805190915080841115612fb457604051631c792c0560e01b81526004810187905260240161064c565b5f5b8181101561300257612ff8611e938888868581518110612fd857612fd861540b565b60200260200101516001600160a01b0316613b769092919063ffffffff16565b9350600101612fb6565b50505095945050505050565b5f808061301f60246004868861533c565b61302891615600565b95600887901b95509350505050565b5f368161305b61304d611ec760608901896153af565b508035016020810191903590565b9092509050805f81900361309b576040517f56d93c1a00000000000000000000000000000000000000000000000000000000815260040160405180910390fd5b5f5b8181101561311057368484838181106130b8576130b861540b565b90506020028101906130ca91906155aa565b90505f6130f88b8b8b6130e06020870187615041565b60208701356130f260408901896153af565b8f613234565b9050613104878261311c565b9650505060010161309d565b50505050949350505050565b5f81830160601b8260601b81148460601b8214176001600160a01b038486181615176001811461314f5760019250610e7f565b7fffffffffffff000000000000000000000000000000000000000000000000000080851690861681811881831102188686176001600160a01b031617935065ffffffffffff60a01b861690816131ac5765ffffffffffff60a01b91505b5065ffffffffffff60a01b8516806131ca575065ffffffffffff60a01b5b8082189082110218806131e3575065ffffffffffff60a01b5b92909217949350505050565b5f803681613200601482878961533c565b6132099161603a565b60601c935061321c60346014878961533c565b61322591615600565b9250611c9b856034818961533c565b5f80600484101561324e57506001600160e01b0319613267565b61325b60045f868861533c565b613264916157d5565b90505b6001600160e01b031981167fe9ae5c53000000000000000000000000000000000000000000000000000000001480156132bd57506132a860208a018a615041565b6001600160a01b0316876001600160a01b0316145b156132f4576040517f540733ea00000000000000000000000000000000000000000000000000000000815260040160405180910390fd5b6001600160a01b0387166001148061331457506001600160a01b03871630145b1561334b576040517f82d5d76a00000000000000000000000000000000000000000000000000000000815260040160405180910390fd5b5f61335f6001600160a01b03891683612ae8565b90506133e88a8a6133708185612d53565b61337d60208f018f615041565b8c8c8c8c6040516024016133969695949392919061580a565b6040516020818303038152906040526305c0089560e01b6020820180516001600160e01b038381831617835250505050878f5f8781526020019081526020015f20613c1690949392919063ffffffff16565b92506350ffbaad8303613530576040516c0100000000000000000000000060208201527c0100000000000000000000000000000000000000000000000000000000603482015261352d908b908b9061346290603801604051602081830303815290604052805190602001208d612d5390919063ffffffff16565b61346f60208f018f615041565b8c8c8c8c6040516024016134889695949392919061580a565b6040516020818303038152906040526305c0089560e01b6020820180516001600160e01b038381831617835250505050878f5f60018060e01b6040516020016134f992919060609290921b6bffffffffffffffffffffffff191682526001600160e01b031916601482015260180190565b6040516020818303038152906040528051906020012081526020019081526020015f20612f6690949392919063ffffffff16565b92505b505098975050505050505050565b5f828152602086815260408083206001600160a01b038088168552925282205416806135a8576040517f6aeeaff8000000000000000000000000000000000000000000000000000000008152600481018590526001600160a01b038616602482015260440161064c565b5f848152602088815260408083206001600160a01b03898116855292529091209082169063940d384090889086906135e290600101611a5f565b6040518463ffffffff1660e01b81526004016136009392919061607a565b602060405180830381865afa15801561361b573d5f5f3e3d5ffd5b505050506040513d601f19601f8201168201806040525081019061363f9190615fb8565b979650505050505050565b60408401515f90819061365f908685876113e6565b90505f8660200151875f015160ff168151811061367e5761367e61540b565b60200260200101515f015190505f8760200151885f015160ff16815181106136a8576136a861540b565b602002602001015160200151905046826001600160401b031614613703576040517fe75e23790000000000000000000000000000000000000000000000000000000081526001600160401b038316600482015260240161064c565b828114613746576040517f0b08d5be000000000000000000000000000000000000000000000000000000008152600481018290526024810184905260440161064c565b6137538860200151613caf565b98975050505050505050565b5f5f61379f84848080601f0160208091040260200160405190810160405280939291908181526020018383808284375f9201919091525061230692505050565b90505f6137af602082898b61533c565b6137b891615600565b90506137c7876020818b61533c565b90985096506137d8600533836111fe565b6137e6575f9250505061363f565b5f81815260076020908152604080832089845290915290206138099033846111fe565b613817575f9250505061363f565b5f61383d338c8c8c8c8761382d6107e88a6123db565b6002969594939291906001613dd3565b90508061384f575f935050505061363f565b6138978a33848c8c8080601f0160208091040260200160405190810160405280939291908181526020018383808284375f9201919091525060099695949392505061353e9050565b9b9a5050505050505050505050565b5f80825560018201905b6020811015610805575f828201556001016138b0565b80515f90816138e58260408051828152600190920160051b8201905290565b90505f5b8281101561392f576139268161391787848151811061390a5761390a61540b565b6020026020010151613ed7565b600190910160051b8401528290565b506001016138e9565b50805160051b60208201206106b4565b6040805160038152608081019091527fdfd9b5718eebaa2484740b4ea6939e96189024c15848f16ccce901118114e15260208201525f906139966001613987855f0151613f41565b600190910160051b8301528190565b506139a9600261398785602001516138c6565b50805160051b6020820120610715565b80515f90816139d88260408051828152600190920160051b8201905290565b90505f5b8281101561392f57613a0a816139178784815181106139fd576139fd61540b565b6020026020010151613f9b565b506001016139dc565b5f81815260018401602090815260408083206001600160a01b0386168452909152812054613a8057613a4684848461400f565b613a508484613b41565b5f8381526001808701602090815260408084206001600160a01b0389168552909152909120919091559050610715565b505f610715565b613a926020806160a4565b81511115613ab357604051630dfe930960e41b815260040160405180910390fd5b6060613abe8261401a565b9084558051909150600184015f5b8281101561067c575f848281518110613ae757613ae761540b565b60209081029190910101518383015550600101613acc565b606061071583836140ec565b5f613b1583614185565b8015610715575061071583836141b7565b60408051602081018490529081018290525f90606001612b1a565b5f81815260208390526040812054610715565b5f6106b484848461423a565b610a6c84848484614251565b6111fa8282614269565b5f8080613b916001600160a01b0387165f19836020886142a5565b915091505f82613bb05763f42707525f5260208201516020526024601cfd5b5060208101519250826001600160a01b03811615613c0c576040517f3b577361000000000000000000000000000000000000000000000000000000008152600481018790526001600160a01b038816602482015260440161064c565b5050509392505050565b5f80613c28612f786020880188615041565b805190915080841115613c43576350ffbaad925050506106df565b5f5b81811015613c7157613c67611e938888868581518110612fd857612fd861540b565b9350600101613c45565b506350ffbaad8303612069576040517f2d39e3f400000000000000000000000000000000000000000000000000000000815260040160405180910390fd5b5f807fb8891a1d91e981333b5a0f2583fadff6cb80006149b9f8407608eb4c0a130c7d613cdb8461432a565b60408051602081019390935282015260600160408051601f1981840301815282825280516020918201207fb03948446334eb9b2196d5eb166f69b9d49403eb4a12f36de8d3f9f3cb8e15c3918401919091527f174e195918c922f8ce2a6d59c7e3e4eb4908dcdb2e305d06e24a973039099ed4918301919091527fc89efdaa54c0f20c7adf612882df0950f5a951637e0307cdcb4c672f298b8bc6606083015291506107159060800160408051601f198184030181529082905280516020909101207f190100000000000000000000000000000000000000000000000000000000000082526002820152602281018390526042902090565b5f83815260208a9052604081208190613dec908b611899565b805190915080841115613e1557604051631c792c0560e01b81526004810187905260240161064c565b5f5b81811015613ec757828181518110613e3157613e3161540b565b60200260200101516001600160a01b031663cbf34505878d8f8e8e8e6040518763ffffffff1660e01b8152600401613e6e9695949392919061580a565b602060405180830381865afa158015613e89573d5f5f3e3d5ffd5b505050506040513d601f19601f82011682018060405250810190613ead9190615fb8565b935083613ebf575f93505050506126a5565b600101613e17565b5050509998505050505050505050565b80516020808301518051908201206040515f936114e8937fdddac12cd8b10a071bea04226e97ac9490698394e19224abc47a5cfeeeb6ee97939192019283526001600160a01b03919091166020830152604082015260600190565b60019190910160051b82015290565b80515f9081613f608260408051828152600190920160051b8201905290565b90505f5b8281101561392f57613f9281613917878481518110613f8557613f8561540b565b6020026020010151614384565b50600101613f64565b5f7f35809859dccf8877c407a59527c2f00fb81ca9c198ebcb0c832c3deaa38d35025f1b825f01518360200151613fd585604001516138c6565b6040805160208101959095526001600160e01b0319909316928401929092526001600160a01b03166060830152608082015260a0016114e8565b6108058383836143d6565b805160606140296020806160a4565b82111561404957604051630dfe930960e41b815260040160405180910390fd5b5f602061405784601f61549c565b6140619190615fd3565b9050806001600160401b0381111561407b5761407b61469d565b6040519080825280602002602001820160405280156140a4578160200160208202803683370190505b5091505f5b818110156140e5575f602060018301028601519050808483815181106140d1576140d161540b565b6020908102919091010152506001016140a9565b5050915091565b5f818152602083905260409020805460609190806001600160401b038111156141175761411761469d565b604051908082528060200260200182016040528015614140578160200160208202803683370190505b5092505f5b8181101561417c576141578382614414565b8482815181106141695761416961540b565b6020908102919091010152600101614145565b50505092915050565b5f614197826301ffc9a760e01b6141b7565b801561070157506141b0826001600160e01b03196141b7565b1592915050565b6040516001600160e01b0319821660248201525f90819060440160408051601f19818403018152919052602080820180516001600160e01b03166301ffc9a760e01b17815282519293505f9283928392909183918a617530fa92503d91505f519050828015614227575060208210155b801561363f575015159695505050505050565b5f8281526020849052604081206106b49083614414565b5f838152602085905260409020610a6c908383614437565b5f818152602083905260408120805490918190036142875750505050565b61429c82614296600184616027565b5f614437565b5f190190555050565b5f60605f5f5f8661ffff166001600160401b038111156142c7576142c761469d565b6040519080825280601f01601f1916602001820160405280156142f1576020820181803683370190505b5090505f5f8751602089018b8e8ef191503d925086831115614311578692505b828152825f602083013e90999098509650505050505050565b80515f90816143498260408051828152600190920160051b8201905290565b90505f5b8281101561392f5761437b8161391787848151811061436e5761436e61540b565b6020026020010151614458565b5060010161434d565b805160208201515f917e6166b2b3a1edaf1da1ce02715d02d4979a4ab93755bff9ec054b0e6a96a1da916143b7906144ad565b60408051602081019490945283019190915260608201526080016114e8565b5f8281526020849052604090208054607f8111156143ff57638277484f5f52806020526024601cfd5b82600182018301556001810182555050505050565b5f8254821061442e57638277484f5f52816020526024601cfd5b50016001015490565b8254821061445057638277484f5f52816020526024601cfd5b910160010155565b80516020808301516040515f936114e8937fce180a7804b7aa8318434f77c9fa28e064a722408ea7b7874d9163732f3ba1d5939192019283526001600160401b03919091166020830152604082015260600190565b80515f90816144cc8260408051828152600190920160051b8201905290565b90505f5b8281101561392f5761452c818683815181106144ee576144ee61540b565b602002602001015160405160200161450691906160bb565b6040516020818303038152906040528051906020012084613f329092919063ffffffff16565b506001016144d0565b604080516080810182525f815260606020820152908101614554614561565b8152602001606081525090565b6040518060e001604052805f6001600160a01b03168152602001606081526020015f8152602001606081526020016145ac604051806040016040528060608152602001606081525090565b8152606060208201525f60409091015290565b5f5f83601f8401126145cf575f5ffd5b5081356001600160401b038111156145e5575f5ffd5b6020830191508360208260051b8501011115612443575f5ffd5b5f5f5f5f5f60608688031215614613575f5ffd5b8535945060208601356001600160401b0381111561462f575f5ffd5b61463b888289016145bf565b90955093505060408601356001600160401b03811115614659575f5ffd5b614665888289016145bf565b969995985093965092949392505050565b6001600160a01b038116811461468a575f5ffd5b50565b803561469881614676565b919050565b634e487b7160e01b5f52604160045260245ffd5b604080519081016001600160401b03811182821017156146d3576146d361469d565b60405290565b604051606081016001600160401b03811182821017156146d3576146d361469d565b60405160e081016001600160401b03811182821017156146d3576146d361469d565b604051608081016001600160401b03811182821017156146d3576146d361469d565b604051601f8201601f191681016001600160401b03811182821017156147675761476761469d565b604052919050565b5f6001600160401b038211156147875761478761469d565b50601f01601f191660200190565b5f82601f8301126147a4575f5ffd5b8135602083015f6147bc6147b78461476f565b61473f565b90508281528583830111156147cf575f5ffd5b828260208301375f92810160200192909252509392505050565b5f6001600160401b038211156148015761480161469d565b5060051b60200190565b5f6040828403121561481b575f5ffd5b6148236146b1565b9050813561483081614676565b815260208201356001600160401b0381111561484a575f5ffd5b61485684828501614795565b60208301525092915050565b5f61486f6147b7846147e9565b838152905060208101600584901b83018581111561488b575f5ffd5b835b81811015613c0c5780356001600160401b038111156148aa575f5ffd5b6148b68882880161480b565b8452506020928301920161488d565b5f82601f8301126148d4575f5ffd5b61071583833560208501614862565b5f6148f06147b7846147e9565b838152905060208101600584901b83018581111561490c575f5ffd5b835b81811015613c0c5780356001600160401b0381111561492b575f5ffd5b85016040818903121561493c575f5ffd5b6149446146b1565b8135815260208201356001600160401b03811115614960575f5ffd5b80830192505088601f830112614974575f5ffd5b81356149826147b7826147e9565b8082825260208201915060208360051b86010192508b8311156149a3575f5ffd5b602085015b838110156149e35780356001600160401b038111156149c5575f5ffd5b6149d48e6020838a0101614795565b845250602092830192016149a8565b50806020850152505050808552505060208301925060208101905061490e565b5f60408284031215614a13575f5ffd5b614a1b6146b1565b905081356001600160401b03811115614a32575f5ffd5b8201601f81018413614a42575f5ffd5b614a51848235602084016148e3565b82525060208201356001600160401b03811115614a6c575f5ffd5b614856848285016148c5565b6001600160e01b03198116811461468a575f5ffd5b5f614a9a6147b7846147e9565b838152905060208101600584901b830185811115614ab6575f5ffd5b835b81811015613c0c5780356001600160401b03811115614ad5575f5ffd5b850160608189031215614ae6575f5ffd5b614aee6146d9565b8135614af981614a78565b81526020820135614b0981614676565b602082015260408201356001600160401b03811115614b26575f5ffd5b614b328a8285016148c5565b60408301525084525060209283019201614ab8565b5f82601f830112614b56575f5ffd5b61071583833560208501614a8d565b801515811461468a575f5ffd5b803561469881614b65565b803560038110614698575f5ffd5b5f5f5f5f60808587031215614b9e575f5ffd5b843593506020850135614bb081614676565b925060408501356001600160401b03811115614bca575f5ffd5b850160e08188031215614bdb575f5ffd5b614be36146fb565b614bec8261468d565b815260208201356001600160401b03811115614c06575f5ffd5b614c1289828501614795565b6020830152506040828101359082015260608201356001600160401b03811115614c3a575f5ffd5b614c46898285016148c5565b60608301525060808201356001600160401b03811115614c64575f5ffd5b614c7089828501614a03565b60808301525060a08201356001600160401b03811115614c8e575f5ffd5b614c9a89828501614b47565b60a083015250614cac60c08301614b72565b60c08201529250614cc1905060608601614b7d565b905092959194509250565b5f5f5f5f60808587031215614cdf575f5ffd5b8435614cea81614676565b935060208501359250604085013591506060850135614d0881614676565b939692955090935050565b5f5f5f5f60608587031215614d26575f5ffd5b8435614d3181614676565b93506020850135925060408501356001600160401b03811115614d52575f5ffd5b614d5e878288016145bf565b95989497509550505050565b5f60208284031215614d7a575f5ffd5b81356001600160401b03811115614d8f575f5ffd5b820160e08185031215610715575f5ffd5b5f5f60208385031215614db1575f5ffd5b82356001600160401b03811115614dc6575f5ffd5b614dd2858286016145bf565b90969095509350505050565b602080825282518282018190525f918401906040840190835b81811015614e15578351835260209384019390920191600101614df7565b509095945050505050565b5f5f60408385031215614e31575f5ffd5b823591506020830135614e4381614b65565b809150509250929050565b5f5f60408385031215614e5f575f5ffd5b8235614e6a81614676565b946020939093013593505050565b602080825282518282018190525f918401906040840190835b81811015614e155783516001600160a01b0316835260209384019390920191600101614e91565b5f5f60408385031215614ec9575f5ffd5b8235915060208301356001600160401b03811115614ee5575f5ffd5b610841858286016148c5565b5f81518084528060208401602086015e5f602082860101526020601f19601f83011685010191505092915050565b6001600160a01b0383168152604060208201525f6106b46040830184614ef1565b5f5f60408385031215614f51575f5ffd5b8235915060208301356001600160401b03811115614f6d575f5ffd5b61084185828601614b47565b5f5f83601f840112614f89575f5ffd5b5081356001600160401b03811115614f9f575f5ffd5b602083019150836020828501011115612443575f5ffd5b5f5f60208385031215614fc7575f5ffd5b82356001600160401b03811115614fdc575f5ffd5b614dd285828601614f79565b5f5f5f5f60608587031215614ffb575f5ffd5b843593506020850135925060408501356001600160401b03811115614d52575f5ffd5b5f5f6040838503121561502f575f5ffd5b823591506020830135614e4381614676565b5f60208284031215615051575f5ffd5b813561071581614676565b5f5f6040838503121561506d575f5ffd5b50508035926020909101359150565b5f5f6040838503121561508d575f5ffd5b82356001600160401b038111156150a2575f5ffd5b83016101208186031215614e6a575f5ffd5b5f5f5f606084860312156150c6575f5ffd5b83356150d181614676565b92506020840135915060408401356150e881614676565b809150509250925092565b5f8151808452602084019350602083015f5b82811015615123578151865260209586019590910190600101615105565b5093949350505050565b602081525f61071560208301846150f3565b5f5f5f60608486031215615151575f5ffd5b833561515c81614676565b95602085013595506040909401359392505050565b5f5f5f60408486031215615183575f5ffd5b8335925060208401356001600160401b0381111561519f575f5ffd5b6151ab868287016145bf565b9497909650939450505050565b5f602082016020835280845180835260408501915060408160051b8601019250602086015f5b8281101561522657603f19878603018452815180518652602081015190506040602087015261521060408701826150f3565b95505060209384019391909101906001016151de565b50929695505050505050565b5f5f5f5f60808587031215615245575f5ffd5b843561525081614676565b9350602085013592506040850135915060608501356001600160401b03811115615278575f5ffd5b61528487828801614795565b91505092959194509250565b5f602082840312156152a0575f5ffd5b5035919050565b5f5f604083850312156152b8575f5ffd5b8235915060208301356001600160401b038111156152d4575f5ffd5b830160408186031215614e43575f5ffd5b5f5f5f5f606085870312156152f8575f5ffd5b843561530381614676565b93506020850135925060408501356001600160401b03811115615324575f5ffd5b614d5e87828801614f79565b5f6107153684846148e3565b5f5f8585111561534a575f5ffd5b83861115615356575f5ffd5b5050820193919092039150565b80356001600160f81b03198116906001841015615394576001600160f81b0319600185900360031b81901b82161691505b5092915050565b634e487b7160e01b5f52602160045260245ffd5b5f5f8335601e198436030181126153c4575f5ffd5b8301803591506001600160401b038211156153dd575f5ffd5b602001915036819003821315612443575f5ffd5b60208101600383106154055761540561539b565b91905290565b634e487b7160e01b5f52603260045260245ffd5b5f5f8335601e19843603018112615434575f5ffd5b8301803591506001600160401b0382111561544d575f5ffd5b6020019150600581901b3603821315612443575f5ffd5b5f610715368484614862565b634e487b7160e01b5f52601160045260245ffd5b5f6001820161549557615495615470565b5060010190565b8082018082111561070157610701615470565b84815260808101600485106154c6576154c661539b565b60208201949094526001600160a01b0392831660408201529116606090910152919050565b5f8235603e198336030181126154ff575f5ffd5b9190910192915050565b5f610701368361480b565b81835281816020850137505f828201602090810191909152601f909101601f19169091010190565b6001600160a01b0385168152606060208201525f61555e606083018587615514565b905082604083015295945050505050565b5f823560de198336030181126154ff575f5ffd5b5f610715368484614a8d565b5f6020828403121561559f575f5ffd5b813561071581614b65565b5f8235605e198336030181126154ff575f5ffd5b5f602082840312156155ce575f5ffd5b813561071581614a78565b6001600160a01b0384168152826020820152606060408201525f6106df6060830184614ef1565b80356020831015610701575f19602084900360031b1b1692915050565b5f82601f83011261562c575f5ffd5b8151602083015f61563f6147b78461476f565b9050828152858383011115615652575f5ffd5b8282602083015e5f92810160200192909252509392505050565b5f6020828403121561567c575f5ffd5b81516001600160401b03811115615691575f5ffd5b6106b48482850161561d565b5f5f8335601e198436030181126156b2575f5ffd5b83016020810192503590506001600160401b038111156156d0575f5ffd5b803603821315612443575f5ffd5b82815260406020820152615705604082016156f88461468d565b6001600160a01b03169052565b602082013560608201525f61571d604084018461569d565b610120608085015261573461016085018284615514565b915050615744606085018561569d565b848303603f190160a086015261575b838284615514565b608087013560c08781019190915260a088013560e080890191909152908801356101008801529093506157939250860190508561569d565b848303603f19016101208601526157ab838284615514565b925050506157bd61010085018561569d565b848303603f190161014086015261363f838284615514565b80356001600160e01b03198116906004841015615394576001600160e01b0319808560040360031b1b82161691505092915050565b8681526001600160a01b03861660208201526001600160a01b038516604082015283606082015260a060808201525f61375360a083018486615514565b5f82601f830112615856575f5ffd5b81516158646147b7826147e9565b8082825260208201915060208360061b860101925085831115615885575f5ffd5b602085015b838110156158db57604081880312156158a1575f5ffd5b6158a96146b1565b81516001600160401b03811681146158bf575f5ffd5b815260208281015181830152908452929092019160400161588a565b5095945050505050565b805161469881614676565b5f82601f8301126158ff575f5ffd5b815161590d6147b7826147e9565b8082825260208201915060208360051b86010192508583111561592e575f5ffd5b602085015b838110156158db5780516001600160401b03811115615950575f5ffd5b86016040818903601f19011215615965575f5ffd5b61596d6146b1565b602082015161597b81614676565b815260408201516001600160401b03811115615995575f5ffd5b6159a48a60208386010161561d565b6020830152508085525050602083019250602081019050615933565b5f604082840312156159d0575f5ffd5b6159d86146b1565b905081516001600160401b038111156159ef575f5ffd5b8201601f810184136159ff575f5ffd5b8051615a0d6147b7826147e9565b8082825260208201915060208360051b850101925086831115615a2e575f5ffd5b602084015b83811015615b325780516001600160401b03811115615a50575f5ffd5b85016040818a03601f19011215615a65575f5ffd5b615a6d6146b1565b6020820151815260408201516001600160401b03811115615a8c575f5ffd5b60208184010192505089601f830112615aa3575f5ffd5b8151615ab16147b7826147e9565b8082825260208201915060208360051b86010192508c831115615ad2575f5ffd5b602085015b83811015615b125780516001600160401b03811115615af4575f5ffd5b615b038f6020838a010161561d565b84525060209283019201615ad7565b508060208501525050508085525050602083019250602081019050615a33565b50845250505060208201516001600160401b03811115615b50575f5ffd5b614856848285016158f0565b5f82601f830112615b6b575f5ffd5b8151615b796147b7826147e9565b8082825260208201915060208360051b860101925085831115615b9a575f5ffd5b602085015b838110156158db5780516001600160401b03811115615bbc575f5ffd5b86016060818903601f19011215615bd1575f5ffd5b615bd96146d9565b6020820151615be781614a78565b81526040820151615bf781614676565b602082015260608201516001600160401b03811115615c14575f5ffd5b615c238a6020838601016158f0565b60408301525084525060209283019201615b9f565b805161469881614b65565b5f60e08284031215615c53575f5ffd5b615c5b6146fb565b9050615c66826158e5565b815260208201516001600160401b03811115615c80575f5ffd5b615c8c8482850161561d565b6020830152506040828101519082015260608201516001600160401b03811115615cb4575f5ffd5b615cc0848285016158f0565b60608301525060808201516001600160401b03811115615cde575f5ffd5b615cea848285016159c0565b60808301525060a08201516001600160401b03811115615d08575f5ffd5b615d1484828501615b5c565b60a083015250615d2660c08301615c38565b60c082015292915050565b5f5f60408385031215615d42575f5ffd5b82516001600160401b03811115615d57575f5ffd5b830160808186031215615d68575f5ffd5b615d7061471d565b815160ff81168114615d80575f5ffd5b815260208201516001600160401b03811115615d9a575f5ffd5b615da687828501615847565b60208301525060408201516001600160401b03811115615dc4575f5ffd5b615dd087828501615c43565b60408301525060608201516001600160401b03811115615dee575f5ffd5b615dfa8782850161561d565b606083015250809350505060208301516001600160401b03811115615e1d575f5ffd5b6108418582860161561d565b6001600160a01b0384168152606060208201525f615e4a6060830185614ef1565b9050826040830152949350505050565b828152604060208201525f6106b46040830184614ef1565b5f60208284031215615e82575f5ffd5b815161071581614a78565b5f82601f830112615e9c575f5ffd5b8151615eaa6147b7826147e9565b8082825260208201915060208360051b860101925085831115615ecb575f5ffd5b602085015b838110156158db578051835260209283019201615ed0565b5f5f5f5f5f5f5f60e0888a031215615efe575f5ffd5b87516001600160f81b031981168114615f15575f5ffd5b60208901519097506001600160401b03811115615f30575f5ffd5b615f3c8a828b0161561d565b96505060408801516001600160401b03811115615f57575f5ffd5b615f638a828b0161561d565b60608a01519096509450615f7b9050608089016158e5565b60a089015160c08a015191945092506001600160401b03811115615f9d575f5ffd5b615fa98a828b01615e8d565b91505092959891949750929550565b5f60208284031215615fc8575f5ffd5b815161071581614b65565b5f82615fed57634e487b7160e01b5f52601260045260245ffd5b500490565b81515f90829060208501835b8281101561601c578151845260209384019390910190600101615ffe565b509195945050505050565b8181038181111561070157610701615470565b80356bffffffffffffffffffffffff198116906014841015615394576bffffffffffffffffffffffff1960149490940360031b84901b1690921692915050565b838152606060208201525f6160926060830185614ef1565b82810360408401526106b08185614ef1565b808202811582820484141761070157610701615470565b5f82518060208501845e5f92019182525091905056fea164736f6c634300081b000a","linkReferences":{}},"methodIdentifiers":{"$canUsePaymaster(bytes32,address)":"70f1dbb1","areActionsEnabled(address,bytes32,(bytes4,address,(address,bytes)[])[])":"2dadb5e9","areERC1271PoliciesEnabled(address,bytes32,(address,bytes)[])":"1097109e","areUserOpPoliciesEnabled(address,bytes32,(address,bytes)[])":"2445e73e","disableActionId(bytes32,bytes32)":"96e72962","disableActionPolicies(bytes32,bytes32,address[])":"6e79eee0","disableERC1271Policies(bytes32,address[],(bytes32,string[])[])":"02a1a4cd","disableUserOpPolicies(bytes32,address[])":"d056b06d","enableActionPolicies(bytes32,(bytes4,address,(address,bytes)[])[])":"4e33ad2e","enableERC1271Policies(bytes32,((bytes32,string[])[],(address,bytes)[]))":"f5297b77","enableSessions((address,bytes,bytes32,(address,bytes)[],((bytes32,string[])[],(address,bytes)[]),(bytes4,address,(address,bytes)[])[],bool)[])":"21712407","enableUserOpPolicies(bytes32,(address,bytes)[])":"454c9d82","getActionPolicies(address,bytes32,bytes32)":"d527ed6e","getERC1271Policies(address,bytes32)":"a67c714e","getEnabledActions(address,bytes32)":"a9fa4b44","getEnabledERC7739Content(address,bytes32)":"d0e6f608","getNonce(bytes32,address)":"795f9269","getPermissionIDs(address)":"7373f181","getPermissionId((address,bytes,bytes32,(address,bytes)[],((bytes32,string[])[],(address,bytes)[]),(bytes4,address,(address,bytes)[])[],bool))":"1be1fffb","getSessionDigest(bytes32,address,(address,bytes,bytes32,(address,bytes)[],((bytes32,string[])[],(address,bytes)[]),(bytes4,address,(address,bytes)[])[],bool),uint8)":"05defba6","getSessionValidatorAndConfig(address,bytes32)":"496c8a91","getUserOpPolicies(address,bytes32)":"44d1628c","isActionIdEnabled(address,bytes32,bytes32)":"af29e6b2","isActionPolicyEnabled(address,bytes32,bytes32,address)":"09e5aef8","isERC1271PolicyEnabled(address,bytes32,address)":"a7ef6205","isERC7739ContentEnabled(address,bytes32,bytes32,string)":"eab25667","isISessionValidatorSet(bytes32,address)":"c9a5ec39","isInitialized(address)":"d60b347f","isModuleType(uint256)":"ecd05961","isPermissionEnabled(bytes32,address)":"adbc532f","isUserOpPolicyEnabled(address,bytes32,address)":"f77a7eac","isValidSignatureWithSender(address,bytes32,bytes)":"f551e2ee","onInstall(bytes)":"6d61fe70","onUninstall(bytes)":"8a91b0e3","removeSession(bytes32)":"f867b08e","revokeEnableSignature(bytes32)":"f9b80369","setCanUsePaymaster(bytes32,bool)":"2cca983d","validateUserOp((address,uint256,bytes,bytes,bytes32,uint256,bytes32,bytes,bytes),bytes32)":"97003203"},"id":2}