{"abi":[{"type":"function","name":"checkUserOpPolicy","inputs":[{"name":"id","type":"bytes32","internalType":"ConfigId"},{"name":"userOp","type":"tuple","internalType":"struct PackedUserOperation","components":[{"name":"sender","type":"address","internalType":"address"},{"name":"nonce","type":"uint256","internalType":"uint256"},{"name":"initCode","type":"bytes","internalType":"bytes"},{"name":"callData","type":"bytes","internalType":"bytes"},{"name":"accountGasLimits","type":"bytes32","internalType":"bytes32"},{"name":"preVerificationGas","type":"uint256","internalType":"uint256"},{"name":"gasFees","type":"bytes32","internalType":"bytes32"},{"name":"paymasterAndData","type":"bytes","internalType":"bytes"},{"name":"signature","type":"bytes","internalType":"bytes"}]}],"outputs":[{"name":"","type":"uint256","internalType":"uint256"}],"stateMutability":"nonpayable"},{"type":"function","name":"getGasConfig","inputs":[{"name":"configId","type":"bytes32","internalType":"ConfigId"},{"name":"multiplexer","type":"address","internalType":"address"},{"name":"userOpSender","type":"address","internalType":"address"}],"outputs":[{"name":"gasLimit","type":"uint128","internalType":"uint128"},{"name":"gasUsed","type":"uint128","internalType":"uint128"},{"name":"costLimit","type":"uint128","internalType":"uint128"},{"name":"costUsed","type":"uint128","internalType":"uint128"}],"stateMutability":"view"},{"type":"function","name":"initializeWithMultiplexer","inputs":[{"name":"account","type":"address","internalType":"address"},{"name":"configId","type":"bytes32","internalType":"ConfigId"},{"name":"initData","type":"bytes","internalType":"bytes"}],"outputs":[],"stateMutability":"nonpayable"},{"type":"function","name":"supportsInterface","inputs":[{"name":"interfaceID","type":"bytes4","internalType":"bytes4"}],"outputs":[{"name":"","type":"bool","internalType":"bool"}],"stateMutability":"pure"},{"type":"event","name":"PolicySet","inputs":[{"name":"id","type":"bytes32","indexed":false,"internalType":"ConfigId"},{"name":"multiplexer","type":"address","indexed":false,"internalType":"address"},{"name":"account","type":"address","indexed":false,"internalType":"address"}],"anonymous":false},{"type":"error","name":"PolicyNotInitialized","inputs":[{"name":"id","type":"bytes32","internalType":"ConfigId"},{"name":"multiplexer","type":"address","internalType":"address"},{"name":"account","type":"address","internalType":"address"}]}],"bytecode":{"object":"0x6080604052348015600e575f5ffd5b5061082d8061001c5f395ff3fe608060405234801561000f575f5ffd5b506004361061004a575f3560e01c806301ffc9a71461004e578063703c59c0146100765780637129edce1461010b578063989c9e461461012c575b5f5ffd5b61006161005c3660046105a9565b610141565b60405190151581526020015b60405180910390f35b6100d86100843660046105eb565b5f928352602083815260408085206001600160a01b039485168652825280852092909316845252902080546001909101546001600160801b0380831693600160801b93849004821693828416930490911690565b604080516001600160801b039586168152938516602085015291841691830191909152909116606082015260800161006d565b61011e610119366004610624565b610192565b60405190815260200161006d565b61013f61013a36600461066f565b6103c6565b005b5f6001600160e01b031982166301ffc9a760e01b148061017157506001600160e01b03198216634c4e4f2360e11b145b8061018c57506001600160e01b03198216633894f6e760e11b145b92915050565b5f8281526020818152604080832033845282528220829182906101b7908601866106f2565b6001600160a01b031681526020808201929092526040015f2080549092506001600160801b0316151590859033906101f1908701876106f2565b9091926102305760405163369d19e760e11b815260048101939093526001600160a01b0391821660248401521660448201526064015b60405180910390fd5b5050505f8360a00135610242856104ec565b61024b86610500565b610255919061071f565b61025f919061071f565b9050603461027060e0860186610732565b9050106102a2576102808461050f565b61028a908261071f565b90506102958461053e565b61029f908261071f565b90505b5f6102ac8561055b565b90505f6102b9828461077c565b84549091506001600160801b03808216916102dd918691600160801b90041661071f565b11156102f057600194505050505061018c565b60018401546001600160801b0380821691610314918491600160801b90041661071f565b111561032757600194505050505061018c565b83548390859060109061034b908490600160801b90046001600160801b0316610793565b92506101000a8154816001600160801b0302191690836001600160801b03160217905550808460010160108282829054906101000a90046001600160801b03166103959190610793565b92506101000a8154816001600160801b0302191690836001600160801b031602179055505f94505050505092915050565b82338560208410156104055760405163369d19e760e11b815260048101939093526001600160a01b039182166024840152166044820152606401610227565b505f9150610418905060108284866107b2565b610421916107d9565b60801c90505f6104356020601085876107b2565b61043e916107d9565b60801c90506001600160801b0382161580159061046357506001600160801b03811615155b8533889091926104a05760405163369d19e760e11b815260048101939093526001600160a01b039182166024840152166044820152606401610227565b5050505f9485526020858152604080872033885282528087206001600160a01b03989098168752969052949093206001600160801b039384168155939092166001909301929092555050565b5f6001600160801b0360808301351661018c565b5f61018c826080013560801c90565b5f61051d60e0830183610732565b61052c916024916014916107b2565b610535916107d9565b60801c92915050565b5f61054c60e0830183610732565b61052c916034916024916107b2565b5f60c0820135608081901c906001600160801b031681810361057e579392505050565b61058a81488401610592565b949350505050565b5f8183106105a057816105a2565b825b9392505050565b5f602082840312156105b9575f5ffd5b81356001600160e01b0319811681146105a2575f5ffd5b80356001600160a01b03811681146105e6575f5ffd5b919050565b5f5f5f606084860312156105fd575f5ffd5b8335925061060d602085016105d0565b915061061b604085016105d0565b90509250925092565b5f5f60408385031215610635575f5ffd5b82359150602083013567ffffffffffffffff811115610652575f5ffd5b83016101208186031215610664575f5ffd5b809150509250929050565b5f5f5f5f60608587031215610682575f5ffd5b61068b856105d0565b935060208501359250604085013567ffffffffffffffff8111156106ad575f5ffd5b8501601f810187136106bd575f5ffd5b803567ffffffffffffffff8111156106d3575f5ffd5b8760208284010111156106e4575f5ffd5b949793965060200194505050565b5f60208284031215610702575f5ffd5b6105a2826105d0565b634e487b7160e01b5f52601160045260245ffd5b8082018082111561018c5761018c61070b565b5f5f8335601e19843603018112610747575f5ffd5b83018035915067ffffffffffffffff821115610761575f5ffd5b602001915036819003821315610775575f5ffd5b9250929050565b808202811582820484141761018c5761018c61070b565b6001600160801b03818116838216019081111561018c5761018c61070b565b5f5f858511156107c0575f5ffd5b838611156107cc575f5ffd5b5050820193919092039150565b80356fffffffffffffffffffffffffffffffff198116906010841015610819576001600160801b03196001600160801b03198560100360031b1b82161691505b509291505056fea164736f6c634300081c000a","linkReferences":{}},"methodIdentifiers":{"checkUserOpPolicy(bytes32,(address,uint256,bytes,bytes,bytes32,uint256,bytes32,bytes,bytes))":"7129edce","getGasConfig(bytes32,address,address)":"703c59c0","initializeWithMultiplexer(address,bytes32,bytes)":"989c9e46","supportsInterface(bytes4)":"01ffc9a7"},"id":1}